{
  "contractName": "DistributorRole",
  "abi": [
    {
      "inputs": [],
      "payable": false,
      "stateMutability": "nonpayable",
      "type": "constructor"
    },
    {
      "anonymous": false,
      "inputs": [
        {
          "indexed": true,
          "internalType": "address",
          "name": "account",
          "type": "address"
        }
      ],
      "name": "DistributorAdded",
      "type": "event"
    },
    {
      "anonymous": false,
      "inputs": [
        {
          "indexed": true,
          "internalType": "address",
          "name": "account",
          "type": "address"
        }
      ],
      "name": "DistributorRemoved",
      "type": "event"
    },
    {
      "constant": true,
      "inputs": [
        {
          "internalType": "address",
          "name": "account",
          "type": "address"
        }
      ],
      "name": "isDistributor",
      "outputs": [
        {
          "internalType": "bool",
          "name": "",
          "type": "bool"
        }
      ],
      "payable": false,
      "stateMutability": "view",
      "type": "function"
    },
    {
      "constant": false,
      "inputs": [
        {
          "internalType": "address",
          "name": "account",
          "type": "address"
        }
      ],
      "name": "addDistributor",
      "outputs": [],
      "payable": false,
      "stateMutability": "nonpayable",
      "type": "function"
    },
    {
      "constant": false,
      "inputs": [],
      "name": "removeDistributor",
      "outputs": [],
      "payable": false,
      "stateMutability": "nonpayable",
      "type": "function"
    }
  ],
  "bytecode": "0x608060405234801561001057600080fd5b5061002333640100000000610028810204565b610101565b61004060008264010000000061022061007782021704565b604051600160a060020a038216907fddbf200aa634dc3fb81cfd68583dd1040d1c751d335e1d86b631bde3e977fea890600090a250565b600160a060020a03811661008a57600080fd5b61009d82826401000000006100cc810204565b156100a757600080fd5b600160a060020a0316600090815260209190915260409020805460ff19166001179055565b6000600160a060020a0382166100e157600080fd5b50600160a060020a03166000908152602091909152604090205460ff1690565b61031d806101106000396000f3fe608060405234801561001057600080fd5b506004361061005d577c010000000000000000000000000000000000000000000000000000000060003504637250e22481146100625780638f0c86fa146100975780639bdc0801146100de575b600080fd5b6100956004803603602081101561007857600080fd5b503573ffffffffffffffffffffffffffffffffffffffff166100e6565b005b6100ca600480360360208110156100ad57600080fd5b503573ffffffffffffffffffffffffffffffffffffffff16610104565b604080519115158252519081900360200190f35b61009561011c565b6100ef33610104565b6100f857600080fd5b61010181610127565b50565b6000610116818363ffffffff61017c16565b92915050565b610125336101cb565b565b61013860008263ffffffff61022016565b60405173ffffffffffffffffffffffffffffffffffffffff8216907fddbf200aa634dc3fb81cfd68583dd1040d1c751d335e1d86b631bde3e977fea890600090a250565b600073ffffffffffffffffffffffffffffffffffffffff821661019e57600080fd5b5073ffffffffffffffffffffffffffffffffffffffff166000908152602091909152604090205460ff1690565b6101dc60008263ffffffff61028616565b60405173ffffffffffffffffffffffffffffffffffffffff8216907f126174f6cf49c81cdb4a9214c6b8f037bef55b4ec31e4fc776cea2a1c8a88d5990600090a250565b73ffffffffffffffffffffffffffffffffffffffff811661024057600080fd5b61024a828261017c565b1561025457600080fd5b73ffffffffffffffffffffffffffffffffffffffff16600090815260209190915260409020805460ff19166001179055565b73ffffffffffffffffffffffffffffffffffffffff81166102a657600080fd5b6102b0828261017c565b6102b957600080fd5b73ffffffffffffffffffffffffffffffffffffffff16600090815260209190915260409020805460ff1916905556fea265627a7a7231582094d22427ae0abaaae28d2b385195634a1946fd58b6f788f74f98403cee6222fb64736f6c63430005100032",
  "source": "pragma solidity ^0.5.16;\n\n//\n// Import the Roles library \n//\nimport \"./Roles.sol\";\n\ncontract DistributorRole {\n  using Roles for Roles.Role;\n\n  //\n  // Events\n  //\n  event DistributorAdded(address indexed account);\n  event DistributorRemoved(address indexed account);\n\n  Roles.Role private distributors;\n\n  constructor() public {\n    _addDistributor(msg.sender);\n  }\n\n  modifier onlyDistributor() {\n    require(isDistributor(msg.sender));\n    _;\n  }\n\n  function isDistributor(address account) public view returns (bool) {\n    return distributors.has(account);\n  }\n\n  function addDistributor(address account) public onlyDistributor {\n    _addDistributor(account);\n  }\n\n  function removeDistributor() public {\n    _removeDistributor(msg.sender);\n  }\n\n  function _addDistributor(address account) internal {\n    distributors.add(account);\n    emit DistributorAdded(account);\n  }\n\n  function _removeDistributor(address account) internal {\n    distributors.remove(account);\n    emit DistributorRemoved(account);\n  }\n}\n\n",
  "sourcePath": "/Users/marcilgen/work/blockchain/UdacityNanodegree/project3/cannabis-supply-chain/app/contracts/accesscontrol/DistributorRole.sol",
  "compiler": {
    "name": "solc",
    "version": "0.5.16+commit.9c3226ce.Emscripten.clang"
  },
  "schemaVersion": "3.4.2",
  "updatedAt": "2021-08-10T19:08:27.041Z",
  "networkType": "ethereum",
  "devdoc": {
    "methods": {}
  },
  "userdoc": {
    "methods": {}
  }
}