{
  "contractName": "GrowerRole",
  "abi": [
    {
      "inputs": [],
      "payable": false,
      "stateMutability": "nonpayable",
      "type": "constructor"
    },
    {
      "anonymous": false,
      "inputs": [
        {
          "indexed": true,
          "internalType": "address",
          "name": "account",
          "type": "address"
        }
      ],
      "name": "GrowerAdded",
      "type": "event"
    },
    {
      "anonymous": false,
      "inputs": [
        {
          "indexed": true,
          "internalType": "address",
          "name": "account",
          "type": "address"
        }
      ],
      "name": "GrowerRemoved",
      "type": "event"
    },
    {
      "constant": true,
      "inputs": [
        {
          "internalType": "address",
          "name": "account",
          "type": "address"
        }
      ],
      "name": "isGrower",
      "outputs": [
        {
          "internalType": "bool",
          "name": "",
          "type": "bool"
        }
      ],
      "payable": false,
      "stateMutability": "view",
      "type": "function"
    },
    {
      "constant": false,
      "inputs": [
        {
          "internalType": "address",
          "name": "account",
          "type": "address"
        }
      ],
      "name": "addGrower",
      "outputs": [],
      "payable": false,
      "stateMutability": "nonpayable",
      "type": "function"
    },
    {
      "constant": false,
      "inputs": [],
      "name": "removeGrower",
      "outputs": [],
      "payable": false,
      "stateMutability": "nonpayable",
      "type": "function"
    }
  ],
  "bytecode": "0x608060405234801561001057600080fd5b5061002333640100000000610028810204565b610101565b61004060008264010000000061028261007782021704565b604051600160a060020a038216907f423fd8158a2c5772d65f93f5aa158245f414b4da880b0d6d2a3361a3915ad3ae90600090a250565b600160a060020a03811661008a57600080fd5b61009d82826401000000006100cc810204565b156100a757600080fd5b600160a060020a0316600090815260209190915260409020805460ff19166001179055565b6000600160a060020a0382166100e157600080fd5b50600160a060020a03166000908152602091909152604090205460ff1690565b61031d806101106000396000f3fe608060405234801561001057600080fd5b506004361061005d577c01000000000000000000000000000000000000000000000000000000006000350463468532108114610062578063b8b06c861461006c578063c4d10d741461009f575b600080fd5b61006a6100e6565b005b61006a6004803603602081101561008257600080fd5b503573ffffffffffffffffffffffffffffffffffffffff166100f1565b6100d2600480360360208110156100b557600080fd5b503573ffffffffffffffffffffffffffffffffffffffff1661010f565b604080519115158252519081900360200190f35b6100ef33610127565b565b6100fa3361010f565b61010357600080fd5b61010c8161017c565b50565b6000610121818363ffffffff6101d116565b92915050565b61013860008263ffffffff61022016565b60405173ffffffffffffffffffffffffffffffffffffffff8216907f686dbfa27271f8cf2fe2e5eaeaf43f15d839d20c7e162ca3aee8362b6c6a861b90600090a250565b61018d60008263ffffffff61028216565b60405173ffffffffffffffffffffffffffffffffffffffff8216907f423fd8158a2c5772d65f93f5aa158245f414b4da880b0d6d2a3361a3915ad3ae90600090a250565b600073ffffffffffffffffffffffffffffffffffffffff82166101f357600080fd5b5073ffffffffffffffffffffffffffffffffffffffff166000908152602091909152604090205460ff1690565b73ffffffffffffffffffffffffffffffffffffffff811661024057600080fd5b61024a82826101d1565b61025357600080fd5b73ffffffffffffffffffffffffffffffffffffffff16600090815260209190915260409020805460ff19169055565b73ffffffffffffffffffffffffffffffffffffffff81166102a257600080fd5b6102ac82826101d1565b156102b657600080fd5b73ffffffffffffffffffffffffffffffffffffffff16600090815260209190915260409020805460ff1916600117905556fea265627a7a723158202540075c57d0c1b97f94b31e5aa31950b79ec93a2589d5f9df5934fb8704f0de64736f6c63430005100032",
  "source": "pragma solidity ^0.5.16;\n\n//\n// Import the Roles library \n//\nimport \"./Roles.sol\";\n\ncontract GrowerRole {\n  using Roles for Roles.Role;\n\n  //\n  // Events\n  //\n  event GrowerAdded(address indexed account);\n  event GrowerRemoved(address indexed account);\n\n  Roles.Role private growers;\n\n  constructor() public {\n    _addGrower(msg.sender);\n  }\n\n  modifier onlyGrower() {\n    require(isGrower(msg.sender));\n    _;\n  }\n\n  function isGrower(address account) public view returns (bool) {\n    return growers.has(account);\n  }\n\n  function addGrower(address account) public onlyGrower {\n    _addGrower(account);\n  }\n\n  function removeGrower() public {\n    _removeGrower(msg.sender);\n  }\n\n  function _addGrower(address account) internal {\n    growers.add(account);\n    emit GrowerAdded(account);\n  }\n\n  function _removeGrower(address account) internal {\n    growers.remove(account);\n    emit GrowerRemoved(account);\n  }\n}\n\n",
  "sourcePath": "/Users/marcilgen/work/blockchain/UdacityNanodegree/project3/cannabis-supply-chain/app/contracts/accesscontrol/GrowerRole.sol",
  "compiler": {
    "name": "solc",
    "version": "0.5.16+commit.9c3226ce.Emscripten.clang"
  },
  "schemaVersion": "3.4.2",
  "updatedAt": "2021-08-10T19:08:27.031Z",
  "networkType": "ethereum",
  "devdoc": {
    "methods": {}
  },
  "userdoc": {
    "methods": {}
  }
}