{
  "contractName": "RetailerRole",
  "abi": [
    {
      "inputs": [],
      "payable": false,
      "stateMutability": "nonpayable",
      "type": "constructor"
    },
    {
      "anonymous": false,
      "inputs": [
        {
          "indexed": true,
          "internalType": "address",
          "name": "account",
          "type": "address"
        }
      ],
      "name": "RetailerAdded",
      "type": "event"
    },
    {
      "anonymous": false,
      "inputs": [
        {
          "indexed": true,
          "internalType": "address",
          "name": "account",
          "type": "address"
        }
      ],
      "name": "RetailerRemoved",
      "type": "event"
    },
    {
      "constant": true,
      "inputs": [
        {
          "internalType": "address",
          "name": "account",
          "type": "address"
        }
      ],
      "name": "isRetailer",
      "outputs": [
        {
          "internalType": "bool",
          "name": "",
          "type": "bool"
        }
      ],
      "payable": false,
      "stateMutability": "view",
      "type": "function"
    },
    {
      "constant": false,
      "inputs": [
        {
          "internalType": "address",
          "name": "account",
          "type": "address"
        }
      ],
      "name": "addRetailer",
      "outputs": [],
      "payable": false,
      "stateMutability": "nonpayable",
      "type": "function"
    },
    {
      "constant": false,
      "inputs": [],
      "name": "removeRetailer",
      "outputs": [],
      "payable": false,
      "stateMutability": "nonpayable",
      "type": "function"
    }
  ],
  "bytecode": "0x608060405234801561001057600080fd5b5061002333640100000000610028810204565b610101565b61004060008264010000000061028261007782021704565b604051600160a060020a038216907f71ae26cad02663e3d92efd6ec56031a80d74a20c0ab4183faa8bf262261c9baa90600090a250565b600160a060020a03811661008a57600080fd5b61009d82826401000000006100cc810204565b156100a757600080fd5b600160a060020a0316600090815260209190915260409020805460ff19166001179055565b6000600160a060020a0382166100e157600080fd5b50600160a060020a03166000908152602091909152604090205460ff1690565b61031d806101106000396000f3fe608060405234801561001057600080fd5b506004361061005d577c0100000000000000000000000000000000000000000000000000000000600035046316479b8581146100625780635da09b881461006c5780638ec4f505146100b3575b600080fd5b61006a6100e6565b005b61009f6004803603602081101561008257600080fd5b503573ffffffffffffffffffffffffffffffffffffffff166100f1565b604080519115158252519081900360200190f35b61006a600480360360208110156100c957600080fd5b503573ffffffffffffffffffffffffffffffffffffffff16610109565b6100ef33610127565b565b6000610103818363ffffffff61017c16565b92915050565b610112336100f1565b61011b57600080fd5b610124816101cb565b50565b61013860008263ffffffff61022016565b60405173ffffffffffffffffffffffffffffffffffffffff8216907fdb7176e79cffef81cb01767dd0447a0b24bb72ca9778d4b245581086b2a7e6db90600090a250565b600073ffffffffffffffffffffffffffffffffffffffff821661019e57600080fd5b5073ffffffffffffffffffffffffffffffffffffffff166000908152602091909152604090205460ff1690565b6101dc60008263ffffffff61028216565b60405173ffffffffffffffffffffffffffffffffffffffff8216907f71ae26cad02663e3d92efd6ec56031a80d74a20c0ab4183faa8bf262261c9baa90600090a250565b73ffffffffffffffffffffffffffffffffffffffff811661024057600080fd5b61024a828261017c565b61025357600080fd5b73ffffffffffffffffffffffffffffffffffffffff16600090815260209190915260409020805460ff19169055565b73ffffffffffffffffffffffffffffffffffffffff81166102a257600080fd5b6102ac828261017c565b156102b657600080fd5b73ffffffffffffffffffffffffffffffffffffffff16600090815260209190915260409020805460ff1916600117905556fea265627a7a72315820f9475b97ff70dbe12c553be8fd46a6991f3dbda98e0b37f1a77435c9139e631964736f6c63430005100032",
  "source": "pragma solidity ^0.5.16;\n\n//\n// Import the Roles library \n//\nimport \"./Roles.sol\";\n\ncontract RetailerRole {\n  using Roles for Roles.Role;\n\n  //\n  // Events\n  //\n  event RetailerAdded(address indexed account);\n  event RetailerRemoved(address indexed account);\n\n  Roles.Role private retailers;\n\n  constructor() public {\n    _addRetailer(msg.sender);\n  }\n\n  modifier onlyRetailer() {\n    require(isRetailer(msg.sender));\n    _;\n  }\n\n  function isRetailer(address account) public view returns (bool) {\n    return retailers.has(account);\n  }\n\n  function addRetailer(address account) public onlyRetailer {\n    _addRetailer(account);\n  }\n\n  function removeRetailer() public {\n    _removeRetailer(msg.sender);\n  }\n\n  function _addRetailer(address account) internal {\n    retailers.add(account);\n    emit RetailerAdded(account);\n  }\n\n  function _removeRetailer(address account) internal {\n    retailers.remove(account);\n    emit RetailerRemoved(account);\n  }\n}\n\n",
  "sourcePath": "/Users/marcilgen/work/blockchain/UdacityNanodegree/project3/cannabis-supply-chain/app/contracts/accesscontrol/RetailerRole.sol",
  "compiler": {
    "name": "solc",
    "version": "0.5.16+commit.9c3226ce.Emscripten.clang"
  },
  "schemaVersion": "3.4.2",
  "updatedAt": "2021-08-10T19:08:27.042Z",
  "networkType": "ethereum",
  "devdoc": {
    "methods": {}
  },
  "userdoc": {
    "methods": {}
  }
}