{
  "contractName": "SupplyChainBase",
  "abi": [
    {
      "inputs": [],
      "payable": true,
      "stateMutability": "payable",
      "type": "constructor"
    },
    {
      "anonymous": false,
      "inputs": [
        {
          "indexed": false,
          "internalType": "uint256",
          "name": "upc",
          "type": "uint256"
        },
        {
          "indexed": false,
          "internalType": "uint256",
          "name": "baleId",
          "type": "uint256"
        },
        {
          "indexed": false,
          "internalType": "uint256",
          "name": "sampleId",
          "type": "uint256"
        }
      ],
      "name": "Approved",
      "type": "event"
    },
    {
      "anonymous": false,
      "inputs": [
        {
          "indexed": true,
          "internalType": "address",
          "name": "account",
          "type": "address"
        }
      ],
      "name": "ConsumerAdded",
      "type": "event"
    },
    {
      "anonymous": false,
      "inputs": [
        {
          "indexed": true,
          "internalType": "address",
          "name": "account",
          "type": "address"
        }
      ],
      "name": "ConsumerRemoved",
      "type": "event"
    },
    {
      "anonymous": false,
      "inputs": [
        {
          "indexed": true,
          "internalType": "address",
          "name": "account",
          "type": "address"
        }
      ],
      "name": "DistributorAdded",
      "type": "event"
    },
    {
      "anonymous": false,
      "inputs": [
        {
          "indexed": true,
          "internalType": "address",
          "name": "account",
          "type": "address"
        }
      ],
      "name": "DistributorRemoved",
      "type": "event"
    },
    {
      "anonymous": false,
      "inputs": [
        {
          "indexed": false,
          "internalType": "uint256",
          "name": "upc",
          "type": "uint256"
        },
        {
          "indexed": false,
          "internalType": "uint256",
          "name": "baleId",
          "type": "uint256"
        },
        {
          "indexed": false,
          "internalType": "uint256",
          "name": "distributorPrice",
          "type": "uint256"
        }
      ],
      "name": "ForSaleByDistributor",
      "type": "event"
    },
    {
      "anonymous": false,
      "inputs": [
        {
          "indexed": false,
          "internalType": "uint256",
          "name": "upc",
          "type": "uint256"
        },
        {
          "indexed": false,
          "internalType": "uint256",
          "name": "baleId",
          "type": "uint256"
        },
        {
          "indexed": false,
          "internalType": "uint256",
          "name": "growerPrice",
          "type": "uint256"
        }
      ],
      "name": "ForSaleByGrower",
      "type": "event"
    },
    {
      "anonymous": false,
      "inputs": [
        {
          "indexed": false,
          "internalType": "uint256",
          "name": "upc",
          "type": "uint256"
        },
        {
          "indexed": false,
          "internalType": "uint256",
          "name": "baleId",
          "type": "uint256"
        },
        {
          "indexed": false,
          "internalType": "uint256",
          "name": "retailId",
          "type": "uint256"
        },
        {
          "indexed": false,
          "internalType": "uint256",
          "name": "retailPrice",
          "type": "uint256"
        }
      ],
      "name": "ForSaleByRetailer",
      "type": "event"
    },
    {
      "anonymous": false,
      "inputs": [
        {
          "indexed": true,
          "internalType": "address",
          "name": "account",
          "type": "address"
        }
      ],
      "name": "GrowerAdded",
      "type": "event"
    },
    {
      "anonymous": false,
      "inputs": [
        {
          "indexed": true,
          "internalType": "address",
          "name": "account",
          "type": "address"
        }
      ],
      "name": "GrowerRemoved",
      "type": "event"
    },
    {
      "anonymous": false,
      "inputs": [
        {
          "indexed": false,
          "internalType": "uint256",
          "name": "upc",
          "type": "uint256"
        },
        {
          "indexed": false,
          "internalType": "uint256",
          "name": "baleId",
          "type": "uint256"
        },
        {
          "indexed": false,
          "internalType": "uint256",
          "name": "_state",
          "type": "uint256"
        },
        {
          "indexed": false,
          "internalType": "string",
          "name": "_stateStr",
          "type": "string"
        },
        {
          "indexed": false,
          "internalType": "string",
          "name": "_strainStr",
          "type": "string"
        }
      ],
      "name": "Harvested",
      "type": "event"
    },
    {
      "anonymous": false,
      "inputs": [
        {
          "indexed": false,
          "internalType": "uint256",
          "name": "upc",
          "type": "uint256"
        },
        {
          "indexed": false,
          "internalType": "uint256",
          "name": "baleId",
          "type": "uint256"
        },
        {
          "indexed": false,
          "internalType": "uint256",
          "name": "sampleId",
          "type": "uint256"
        }
      ],
      "name": "InTesting",
      "type": "event"
    },
    {
      "anonymous": false,
      "inputs": [
        {
          "indexed": false,
          "internalType": "uint256",
          "name": "upc",
          "type": "uint256"
        },
        {
          "indexed": false,
          "internalType": "uint256",
          "name": "baleId",
          "type": "uint256"
        },
        {
          "indexed": false,
          "internalType": "uint256",
          "name": "_state",
          "type": "uint256"
        },
        {
          "indexed": false,
          "internalType": "string",
          "name": "_stateStr",
          "type": "string"
        }
      ],
      "name": "Processed",
      "type": "event"
    },
    {
      "anonymous": false,
      "inputs": [
        {
          "indexed": false,
          "internalType": "uint256",
          "name": "upc",
          "type": "uint256"
        },
        {
          "indexed": false,
          "internalType": "uint256",
          "name": "baleId",
          "type": "uint256"
        }
      ],
      "name": "Productized",
      "type": "event"
    },
    {
      "anonymous": false,
      "inputs": [
        {
          "indexed": false,
          "internalType": "uint256",
          "name": "upc",
          "type": "uint256"
        },
        {
          "indexed": false,
          "internalType": "uint256",
          "name": "baleId",
          "type": "uint256"
        },
        {
          "indexed": false,
          "internalType": "uint256",
          "name": "retailId",
          "type": "uint256"
        }
      ],
      "name": "PurchasedByConsumer",
      "type": "event"
    },
    {
      "anonymous": false,
      "inputs": [
        {
          "indexed": false,
          "internalType": "uint256",
          "name": "upc",
          "type": "uint256"
        },
        {
          "indexed": false,
          "internalType": "uint256",
          "name": "baleId",
          "type": "uint256"
        }
      ],
      "name": "ReceivedByDistributor",
      "type": "event"
    },
    {
      "anonymous": false,
      "inputs": [
        {
          "indexed": false,
          "internalType": "uint256",
          "name": "upc",
          "type": "uint256"
        },
        {
          "indexed": false,
          "internalType": "uint256",
          "name": "baleId",
          "type": "uint256"
        }
      ],
      "name": "ReceivedByRetailer",
      "type": "event"
    },
    {
      "anonymous": false,
      "inputs": [
        {
          "indexed": false,
          "internalType": "uint256",
          "name": "upc",
          "type": "uint256"
        },
        {
          "indexed": false,
          "internalType": "uint256",
          "name": "baleId",
          "type": "uint256"
        },
        {
          "indexed": false,
          "internalType": "uint256",
          "name": "sampleId",
          "type": "uint256"
        }
      ],
      "name": "ReceivedByTester",
      "type": "event"
    },
    {
      "anonymous": false,
      "inputs": [
        {
          "indexed": false,
          "internalType": "uint256",
          "name": "upc",
          "type": "uint256"
        },
        {
          "indexed": false,
          "internalType": "uint256",
          "name": "baleId",
          "type": "uint256"
        },
        {
          "indexed": false,
          "internalType": "uint256",
          "name": "retailId",
          "type": "uint256"
        }
      ],
      "name": "RetailItemCreated",
      "type": "event"
    },
    {
      "anonymous": false,
      "inputs": [
        {
          "indexed": true,
          "internalType": "address",
          "name": "account",
          "type": "address"
        }
      ],
      "name": "RetailerAdded",
      "type": "event"
    },
    {
      "anonymous": false,
      "inputs": [
        {
          "indexed": true,
          "internalType": "address",
          "name": "account",
          "type": "address"
        }
      ],
      "name": "RetailerRemoved",
      "type": "event"
    },
    {
      "anonymous": false,
      "inputs": [
        {
          "indexed": false,
          "internalType": "uint256",
          "name": "upc",
          "type": "uint256"
        },
        {
          "indexed": false,
          "internalType": "uint256",
          "name": "baleId",
          "type": "uint256"
        },
        {
          "indexed": false,
          "internalType": "uint256",
          "name": "sampleId",
          "type": "uint256"
        }
      ],
      "name": "SampleCreated",
      "type": "event"
    },
    {
      "anonymous": false,
      "inputs": [
        {
          "indexed": false,
          "internalType": "uint256",
          "name": "upc",
          "type": "uint256"
        },
        {
          "indexed": false,
          "internalType": "uint256",
          "name": "baleId",
          "type": "uint256"
        },
        {
          "indexed": false,
          "internalType": "uint256",
          "name": "sampleId",
          "type": "uint256"
        }
      ],
      "name": "SampleRequested",
      "type": "event"
    },
    {
      "anonymous": false,
      "inputs": [
        {
          "indexed": false,
          "internalType": "uint256",
          "name": "upc",
          "type": "uint256"
        },
        {
          "indexed": false,
          "internalType": "uint256",
          "name": "baleId",
          "type": "uint256"
        }
      ],
      "name": "Sampled",
      "type": "event"
    },
    {
      "anonymous": false,
      "inputs": [
        {
          "indexed": false,
          "internalType": "uint256",
          "name": "upc",
          "type": "uint256"
        },
        {
          "indexed": false,
          "internalType": "uint256",
          "name": "baleId",
          "type": "uint256"
        },
        {
          "indexed": false,
          "internalType": "uint256",
          "name": "sampleId",
          "type": "uint256"
        }
      ],
      "name": "SentToTester",
      "type": "event"
    },
    {
      "anonymous": false,
      "inputs": [
        {
          "indexed": false,
          "internalType": "uint256",
          "name": "upc",
          "type": "uint256"
        },
        {
          "indexed": false,
          "internalType": "uint256",
          "name": "baleId",
          "type": "uint256"
        }
      ],
      "name": "ShippedToDistributor",
      "type": "event"
    },
    {
      "anonymous": false,
      "inputs": [
        {
          "indexed": false,
          "internalType": "uint256",
          "name": "upc",
          "type": "uint256"
        },
        {
          "indexed": false,
          "internalType": "uint256",
          "name": "baleId",
          "type": "uint256"
        }
      ],
      "name": "ShippedToRetailer",
      "type": "event"
    },
    {
      "anonymous": false,
      "inputs": [
        {
          "indexed": false,
          "internalType": "uint256",
          "name": "upc",
          "type": "uint256"
        },
        {
          "indexed": false,
          "internalType": "uint256",
          "name": "baleId",
          "type": "uint256"
        }
      ],
      "name": "SoldByDistributor",
      "type": "event"
    },
    {
      "anonymous": false,
      "inputs": [
        {
          "indexed": false,
          "internalType": "uint256",
          "name": "upc",
          "type": "uint256"
        },
        {
          "indexed": false,
          "internalType": "uint256",
          "name": "baleId",
          "type": "uint256"
        }
      ],
      "name": "SoldByGrower",
      "type": "event"
    },
    {
      "anonymous": false,
      "inputs": [
        {
          "indexed": true,
          "internalType": "address",
          "name": "account",
          "type": "address"
        }
      ],
      "name": "TesterAdded",
      "type": "event"
    },
    {
      "anonymous": false,
      "inputs": [
        {
          "indexed": true,
          "internalType": "address",
          "name": "account",
          "type": "address"
        }
      ],
      "name": "TesterRemoved",
      "type": "event"
    },
    {
      "anonymous": false,
      "inputs": [
        {
          "indexed": true,
          "internalType": "address payable",
          "name": "oldOwner",
          "type": "address"
        },
        {
          "indexed": true,
          "internalType": "address payable",
          "name": "newOwner",
          "type": "address"
        }
      ],
      "name": "TransferOwnership",
      "type": "event"
    },
    {
      "constant": false,
      "inputs": [
        {
          "internalType": "address",
          "name": "account",
          "type": "address"
        }
      ],
      "name": "addConsumer",
      "outputs": [],
      "payable": false,
      "stateMutability": "nonpayable",
      "type": "function"
    },
    {
      "constant": false,
      "inputs": [
        {
          "internalType": "address",
          "name": "account",
          "type": "address"
        }
      ],
      "name": "addDistributor",
      "outputs": [],
      "payable": false,
      "stateMutability": "nonpayable",
      "type": "function"
    },
    {
      "constant": false,
      "inputs": [
        {
          "internalType": "address",
          "name": "account",
          "type": "address"
        }
      ],
      "name": "addGrower",
      "outputs": [],
      "payable": false,
      "stateMutability": "nonpayable",
      "type": "function"
    },
    {
      "constant": false,
      "inputs": [
        {
          "internalType": "address",
          "name": "account",
          "type": "address"
        }
      ],
      "name": "addRetailer",
      "outputs": [],
      "payable": false,
      "stateMutability": "nonpayable",
      "type": "function"
    },
    {
      "constant": false,
      "inputs": [
        {
          "internalType": "address",
          "name": "account",
          "type": "address"
        }
      ],
      "name": "addTester",
      "outputs": [],
      "payable": false,
      "stateMutability": "nonpayable",
      "type": "function"
    },
    {
      "constant": true,
      "inputs": [
        {
          "internalType": "address",
          "name": "account",
          "type": "address"
        }
      ],
      "name": "isConsumer",
      "outputs": [
        {
          "internalType": "bool",
          "name": "",
          "type": "bool"
        }
      ],
      "payable": false,
      "stateMutability": "view",
      "type": "function"
    },
    {
      "constant": true,
      "inputs": [
        {
          "internalType": "address",
          "name": "account",
          "type": "address"
        }
      ],
      "name": "isDistributor",
      "outputs": [
        {
          "internalType": "bool",
          "name": "",
          "type": "bool"
        }
      ],
      "payable": false,
      "stateMutability": "view",
      "type": "function"
    },
    {
      "constant": true,
      "inputs": [
        {
          "internalType": "address",
          "name": "account",
          "type": "address"
        }
      ],
      "name": "isGrower",
      "outputs": [
        {
          "internalType": "bool",
          "name": "",
          "type": "bool"
        }
      ],
      "payable": false,
      "stateMutability": "view",
      "type": "function"
    },
    {
      "constant": true,
      "inputs": [],
      "name": "isOwner",
      "outputs": [
        {
          "internalType": "bool",
          "name": "",
          "type": "bool"
        }
      ],
      "payable": false,
      "stateMutability": "view",
      "type": "function"
    },
    {
      "constant": true,
      "inputs": [
        {
          "internalType": "address",
          "name": "account",
          "type": "address"
        }
      ],
      "name": "isRetailer",
      "outputs": [
        {
          "internalType": "bool",
          "name": "",
          "type": "bool"
        }
      ],
      "payable": false,
      "stateMutability": "view",
      "type": "function"
    },
    {
      "constant": true,
      "inputs": [
        {
          "internalType": "address",
          "name": "account",
          "type": "address"
        }
      ],
      "name": "isTester",
      "outputs": [
        {
          "internalType": "bool",
          "name": "",
          "type": "bool"
        }
      ],
      "payable": false,
      "stateMutability": "view",
      "type": "function"
    },
    {
      "constant": true,
      "inputs": [],
      "name": "owner",
      "outputs": [
        {
          "internalType": "address payable",
          "name": "",
          "type": "address"
        }
      ],
      "payable": false,
      "stateMutability": "view",
      "type": "function"
    },
    {
      "constant": false,
      "inputs": [],
      "name": "removeConsumer",
      "outputs": [],
      "payable": false,
      "stateMutability": "nonpayable",
      "type": "function"
    },
    {
      "constant": false,
      "inputs": [],
      "name": "removeDistributor",
      "outputs": [],
      "payable": false,
      "stateMutability": "nonpayable",
      "type": "function"
    },
    {
      "constant": false,
      "inputs": [],
      "name": "removeGrower",
      "outputs": [],
      "payable": false,
      "stateMutability": "nonpayable",
      "type": "function"
    },
    {
      "constant": false,
      "inputs": [],
      "name": "removeRetailer",
      "outputs": [],
      "payable": false,
      "stateMutability": "nonpayable",
      "type": "function"
    },
    {
      "constant": false,
      "inputs": [],
      "name": "removeTester",
      "outputs": [],
      "payable": false,
      "stateMutability": "nonpayable",
      "type": "function"
    },
    {
      "constant": false,
      "inputs": [],
      "name": "renounceOwnership",
      "outputs": [],
      "payable": false,
      "stateMutability": "nonpayable",
      "type": "function"
    },
    {
      "constant": false,
      "inputs": [
        {
          "internalType": "address payable",
          "name": "newOwner",
          "type": "address"
        }
      ],
      "name": "transferOwnership",
      "outputs": [],
      "payable": false,
      "stateMutability": "nonpayable",
      "type": "function"
    },
    {
      "constant": false,
      "inputs": [],
      "name": "kill",
      "outputs": [],
      "payable": false,
      "stateMutability": "nonpayable",
      "type": "function"
    },
    {
      "constant": false,
      "inputs": [
        {
          "internalType": "address",
          "name": "_growerID",
          "type": "address"
        },
        {
          "internalType": "string",
          "name": "_originFarmName",
          "type": "string"
        },
        {
          "internalType": "string",
          "name": "_originFarmInformation",
          "type": "string"
        },
        {
          "internalType": "string",
          "name": "_originFarmLatitude",
          "type": "string"
        },
        {
          "internalType": "string",
          "name": "_originFarmLongitude",
          "type": "string"
        }
      ],
      "name": "addGrowerInfo",
      "outputs": [],
      "payable": false,
      "stateMutability": "nonpayable",
      "type": "function"
    },
    {
      "constant": false,
      "inputs": [
        {
          "internalType": "uint256",
          "name": "_upc",
          "type": "uint256"
        },
        {
          "internalType": "uint256",
          "name": "_baleId",
          "type": "uint256"
        },
        {
          "internalType": "address payable",
          "name": "_originGrowerID",
          "type": "address"
        },
        {
          "internalType": "string",
          "name": "_productNotes",
          "type": "string"
        }
      ],
      "name": "harvestWeed",
      "outputs": [
        {
          "internalType": "uint256",
          "name": "state",
          "type": "uint256"
        },
        {
          "internalType": "string",
          "name": "stateStr",
          "type": "string"
        },
        {
          "internalType": "string",
          "name": "strainStr",
          "type": "string"
        }
      ],
      "payable": false,
      "stateMutability": "nonpayable",
      "type": "function"
    },
    {
      "constant": false,
      "inputs": [
        {
          "internalType": "uint256",
          "name": "_upc",
          "type": "uint256"
        },
        {
          "internalType": "uint256",
          "name": "_baleId",
          "type": "uint256"
        }
      ],
      "name": "processWeed",
      "outputs": [
        {
          "internalType": "uint256",
          "name": "state",
          "type": "uint256"
        },
        {
          "internalType": "string",
          "name": "stateStr",
          "type": "string"
        }
      ],
      "payable": false,
      "stateMutability": "nonpayable",
      "type": "function"
    },
    {
      "constant": false,
      "inputs": [
        {
          "internalType": "uint256",
          "name": "_upc",
          "type": "uint256"
        },
        {
          "internalType": "uint256",
          "name": "_baleId",
          "type": "uint256"
        },
        {
          "internalType": "address payable",
          "name": "testerAddr",
          "type": "address"
        }
      ],
      "name": "sampleWeed",
      "outputs": [
        {
          "internalType": "uint256",
          "name": "state",
          "type": "uint256"
        },
        {
          "internalType": "string",
          "name": "stateStr",
          "type": "string"
        },
        {
          "internalType": "uint256",
          "name": "newSampleId",
          "type": "uint256"
        }
      ],
      "payable": false,
      "stateMutability": "nonpayable",
      "type": "function"
    },
    {
      "constant": false,
      "inputs": [
        {
          "internalType": "uint256",
          "name": "_upc",
          "type": "uint256"
        },
        {
          "internalType": "uint256",
          "name": "_baleId",
          "type": "uint256"
        }
      ],
      "name": "requestSample",
      "outputs": [
        {
          "internalType": "uint256",
          "name": "state",
          "type": "uint256"
        },
        {
          "internalType": "string",
          "name": "stateStr",
          "type": "string"
        }
      ],
      "payable": false,
      "stateMutability": "nonpayable",
      "type": "function"
    },
    {
      "constant": false,
      "inputs": [
        {
          "internalType": "uint256",
          "name": "_upc",
          "type": "uint256"
        },
        {
          "internalType": "uint256",
          "name": "_baleId",
          "type": "uint256"
        },
        {
          "internalType": "uint256",
          "name": "_sampleId",
          "type": "uint256"
        }
      ],
      "name": "sendSampleToTester",
      "outputs": [
        {
          "internalType": "uint256",
          "name": "state",
          "type": "uint256"
        },
        {
          "internalType": "string",
          "name": "stateStr",
          "type": "string"
        }
      ],
      "payable": false,
      "stateMutability": "nonpayable",
      "type": "function"
    },
    {
      "constant": false,
      "inputs": [
        {
          "internalType": "uint256",
          "name": "_upc",
          "type": "uint256"
        },
        {
          "internalType": "uint256",
          "name": "_baleId",
          "type": "uint256"
        },
        {
          "internalType": "uint256",
          "name": "_sampleId",
          "type": "uint256"
        }
      ],
      "name": "setReceivedByTester",
      "outputs": [
        {
          "internalType": "uint256",
          "name": "state",
          "type": "uint256"
        },
        {
          "internalType": "string",
          "name": "stateStr",
          "type": "string"
        }
      ],
      "payable": false,
      "stateMutability": "nonpayable",
      "type": "function"
    },
    {
      "constant": false,
      "inputs": [
        {
          "internalType": "uint256",
          "name": "_upc",
          "type": "uint256"
        },
        {
          "internalType": "uint256",
          "name": "_baleId",
          "type": "uint256"
        },
        {
          "internalType": "uint256",
          "name": "_sampleId",
          "type": "uint256"
        }
      ],
      "name": "testSample",
      "outputs": [
        {
          "internalType": "uint256",
          "name": "state",
          "type": "uint256"
        },
        {
          "internalType": "string",
          "name": "stateStr",
          "type": "string"
        }
      ],
      "payable": false,
      "stateMutability": "nonpayable",
      "type": "function"
    },
    {
      "constant": false,
      "inputs": [
        {
          "internalType": "uint256",
          "name": "_upc",
          "type": "uint256"
        },
        {
          "internalType": "uint256",
          "name": "_baleId",
          "type": "uint256"
        },
        {
          "internalType": "uint256",
          "name": "_sampleId",
          "type": "uint256"
        }
      ],
      "name": "approveSample",
      "outputs": [
        {
          "internalType": "uint256",
          "name": "state",
          "type": "uint256"
        },
        {
          "internalType": "string",
          "name": "stateStr",
          "type": "string"
        },
        {
          "internalType": "uint256",
          "name": "thcPct",
          "type": "uint256"
        },
        {
          "internalType": "uint256",
          "name": "cbdPct",
          "type": "uint256"
        }
      ],
      "payable": false,
      "stateMutability": "nonpayable",
      "type": "function"
    },
    {
      "constant": false,
      "inputs": [
        {
          "internalType": "uint256",
          "name": "_upc",
          "type": "uint256"
        },
        {
          "internalType": "uint256",
          "name": "_baleId",
          "type": "uint256"
        }
      ],
      "name": "productize",
      "outputs": [
        {
          "internalType": "uint256",
          "name": "state",
          "type": "uint256"
        },
        {
          "internalType": "string",
          "name": "stateStr",
          "type": "string"
        },
        {
          "internalType": "uint256",
          "name": "numRetailProducts",
          "type": "uint256"
        }
      ],
      "payable": false,
      "stateMutability": "nonpayable",
      "type": "function"
    },
    {
      "constant": false,
      "inputs": [
        {
          "internalType": "uint256",
          "name": "_upc",
          "type": "uint256"
        },
        {
          "internalType": "uint256",
          "name": "_baleId",
          "type": "uint256"
        },
        {
          "internalType": "uint256",
          "name": "_price",
          "type": "uint256"
        }
      ],
      "name": "setForSaleByGrower",
      "outputs": [
        {
          "internalType": "uint256",
          "name": "state",
          "type": "uint256"
        },
        {
          "internalType": "string",
          "name": "stateStr",
          "type": "string"
        },
        {
          "internalType": "uint256",
          "name": "growerPrice",
          "type": "uint256"
        }
      ],
      "payable": false,
      "stateMutability": "nonpayable",
      "type": "function"
    },
    {
      "constant": false,
      "inputs": [
        {
          "internalType": "uint256",
          "name": "_upc",
          "type": "uint256"
        },
        {
          "internalType": "uint256",
          "name": "_baleId",
          "type": "uint256"
        }
      ],
      "name": "buyBaleFromGrower",
      "outputs": [
        {
          "internalType": "uint256",
          "name": "state",
          "type": "uint256"
        },
        {
          "internalType": "string",
          "name": "stateStr",
          "type": "string"
        }
      ],
      "payable": true,
      "stateMutability": "payable",
      "type": "function"
    },
    {
      "constant": false,
      "inputs": [
        {
          "internalType": "uint256",
          "name": "_upc",
          "type": "uint256"
        },
        {
          "internalType": "uint256",
          "name": "_baleId",
          "type": "uint256"
        }
      ],
      "name": "shipToDistributor",
      "outputs": [
        {
          "internalType": "uint256",
          "name": "state",
          "type": "uint256"
        },
        {
          "internalType": "string",
          "name": "stateStr",
          "type": "string"
        }
      ],
      "payable": false,
      "stateMutability": "nonpayable",
      "type": "function"
    },
    {
      "constant": false,
      "inputs": [
        {
          "internalType": "uint256",
          "name": "_upc",
          "type": "uint256"
        },
        {
          "internalType": "uint256",
          "name": "_baleId",
          "type": "uint256"
        }
      ],
      "name": "setReceivedByDistributor",
      "outputs": [
        {
          "internalType": "uint256",
          "name": "state",
          "type": "uint256"
        },
        {
          "internalType": "string",
          "name": "stateStr",
          "type": "string"
        }
      ],
      "payable": false,
      "stateMutability": "nonpayable",
      "type": "function"
    },
    {
      "constant": false,
      "inputs": [
        {
          "internalType": "uint256",
          "name": "_upc",
          "type": "uint256"
        },
        {
          "internalType": "uint256",
          "name": "_baleId",
          "type": "uint256"
        },
        {
          "internalType": "uint256",
          "name": "_distributorPrice",
          "type": "uint256"
        }
      ],
      "name": "setForSaleByDistributor",
      "outputs": [
        {
          "internalType": "uint256",
          "name": "state",
          "type": "uint256"
        },
        {
          "internalType": "string",
          "name": "stateStr",
          "type": "string"
        },
        {
          "internalType": "uint256",
          "name": "distributorPrice",
          "type": "uint256"
        }
      ],
      "payable": false,
      "stateMutability": "nonpayable",
      "type": "function"
    },
    {
      "constant": false,
      "inputs": [
        {
          "internalType": "uint256",
          "name": "_upc",
          "type": "uint256"
        },
        {
          "internalType": "uint256",
          "name": "_baleId",
          "type": "uint256"
        }
      ],
      "name": "buyBaleFromDistributor",
      "outputs": [
        {
          "internalType": "uint256",
          "name": "state",
          "type": "uint256"
        },
        {
          "internalType": "string",
          "name": "stateStr",
          "type": "string"
        }
      ],
      "payable": true,
      "stateMutability": "payable",
      "type": "function"
    },
    {
      "constant": false,
      "inputs": [
        {
          "internalType": "uint256",
          "name": "_upc",
          "type": "uint256"
        },
        {
          "internalType": "uint256",
          "name": "_baleId",
          "type": "uint256"
        }
      ],
      "name": "shipToRetailer",
      "outputs": [
        {
          "internalType": "uint256",
          "name": "state",
          "type": "uint256"
        },
        {
          "internalType": "string",
          "name": "stateStr",
          "type": "string"
        }
      ],
      "payable": false,
      "stateMutability": "nonpayable",
      "type": "function"
    },
    {
      "constant": false,
      "inputs": [
        {
          "internalType": "uint256",
          "name": "_upc",
          "type": "uint256"
        },
        {
          "internalType": "uint256",
          "name": "_baleId",
          "type": "uint256"
        }
      ],
      "name": "setReceivedByRetailer",
      "outputs": [
        {
          "internalType": "uint256",
          "name": "state",
          "type": "uint256"
        },
        {
          "internalType": "string",
          "name": "stateStr",
          "type": "string"
        }
      ],
      "payable": false,
      "stateMutability": "nonpayable",
      "type": "function"
    },
    {
      "constant": false,
      "inputs": [
        {
          "internalType": "uint256",
          "name": "_upc",
          "type": "uint256"
        },
        {
          "internalType": "uint256",
          "name": "_baleId",
          "type": "uint256"
        },
        {
          "internalType": "uint256",
          "name": "_retailPrice",
          "type": "uint256"
        }
      ],
      "name": "setForSaleByRetailer",
      "outputs": [
        {
          "internalType": "uint256",
          "name": "state",
          "type": "uint256"
        },
        {
          "internalType": "string",
          "name": "stateStr",
          "type": "string"
        },
        {
          "internalType": "uint256",
          "name": "retailPrice",
          "type": "uint256"
        }
      ],
      "payable": false,
      "stateMutability": "nonpayable",
      "type": "function"
    },
    {
      "constant": false,
      "inputs": [
        {
          "internalType": "uint256",
          "name": "_upc",
          "type": "uint256"
        },
        {
          "internalType": "uint256",
          "name": "_baleId",
          "type": "uint256"
        },
        {
          "internalType": "uint256",
          "name": "_retailId",
          "type": "uint256"
        }
      ],
      "name": "purchaseItem",
      "outputs": [
        {
          "internalType": "uint256",
          "name": "state",
          "type": "uint256"
        },
        {
          "internalType": "string",
          "name": "stateStr",
          "type": "string"
        }
      ],
      "payable": true,
      "stateMutability": "payable",
      "type": "function"
    }
  ],
  "bytecode": "0x6080604081905260008054600160a060020a0319163317808255600160a060020a0316917f5c486528ec3e3f0ea91181cff8116f02bfa350e03b8b6f12e00765adbb5af85c908290a36200005c33640100000000620000ca810204565b62000070336401000000006200011c810204565b62000084336401000000006200016e810204565b6200009833640100000000620001c0810204565b620000ac3364010000000062000212810204565b6001600655620000c464010000000062000264810204565b62000bea565b620000e5600182640100000000620039f462000ab682021704565b604051600160a060020a038216907f423fd8158a2c5772d65f93f5aa158245f414b4da880b0d6d2a3361a3915ad3ae90600090a250565b62000137600282640100000000620039f462000ab682021704565b604051600160a060020a038216907fe4d25ff5a46e97955a9f6b0941a56b0865a723be7acfaae1f711d0c6833f6fab90600090a250565b62000189600382640100000000620039f462000ab682021704565b604051600160a060020a038216907fddbf200aa634dc3fb81cfd68583dd1040d1c751d335e1d86b631bde3e977fea890600090a250565b620001db600482640100000000620039f462000ab682021704565b604051600160a060020a038216907f71ae26cad02663e3d92efd6ec56031a80d74a20c0ab4183faa8bf262261c9baa90600090a250565b6200022d600582640100000000620039f462000ab682021704565b604051600160a060020a038216907f28b26e7a3d20aedbc5f8f2ebf7da671c0491723a2b78f47a097b0e46dee0714290600090a250565b60408051808201909152600981527f4861727665737465640000000000000000000000000000000000000000000000602080830191825260008052601090529051620002d2917f6e0956cda88cad152e89927e53611735b61a5c762d1428573c6931b0a5efcb019162000b45565b5060408051808201909152600981527f50726f63657373656400000000000000000000000000000000000000000000006020808301918252600160005260109052905162000342917f8c6065603763fec3f5742441d3833f3f43b982453612d76adb39a885e3006b5f9162000b45565b5060408051808201909152600781527f53616d706c65640000000000000000000000000000000000000000000000000060208083019182526002600052601090529051620003b2917f853b2fefe141400fef543280f93d98bd49996069f632d0d20236afeeed8e46a29162000b45565b506040805180820190915260108082527f53616d706c6520526571756573746564000000000000000000000000000000006020808401918252600360005291909152905162000423917fb3edd0d534d647cffdae9f1294f11ad21f3fcf2814bea44c92bbb8d384a57d9e9162000b45565b5060408051808201909152600e81527f53656e7420546f205465737465720000000000000000000000000000000000006020808301918252600460005260109052905162000493917f1588ac671d87f82adc0e6ae8ab009c0de98f92a20243897597e566bc59b9c1269162000b45565b5060408051808201909152601281527f52656365697665642042792054657374657200000000000000000000000000006020808301918252600560005260109052905162000503917f61a7346ab5ebdac457db2a901eaf1b805239b6049a1b2f34bab85e2e274f39cb9162000b45565b5060408051808201909152600a81527f496e2054657374696e67000000000000000000000000000000000000000000006020808301918252600660005260109052905162000573917f20edfb71820f6f00f6a84ccfefb91587cd9f849f8349b0a3182a4795899d9cd99162000b45565b5060408051808201909152600881527f417070726f76656400000000000000000000000000000000000000000000000060208083019182526007600052601090529051620005e3917f4ef6145e44e4298293af15ae5f84f922a836b1d6db608fd5008f32a528b312a99162000b45565b5060408051808201909152600b81527f50726f64756374697a65640000000000000000000000000000000000000000006020808301918252600860005260109052905162000653917f5f04e77c60ed37290f5789e2e9c5d396103f3c4b14614065cbb4c8362609d5a59162000b45565b5060408051808201909152601281527f466f722053616c652042792047726f776572000000000000000000000000000060208083019182526009600052601090529051620006c3917fa8197f9f3066d467dba941614f445cf878e0beb059ed920f6258667ed2470eb89162000b45565b5060408051808201909152600e81527f536f6c642042792047726f7765720000000000000000000000000000000000006020808301918252600a60005260109052905162000733917fbbe6df1631c6a5c37158096bc15825d83d22eaca9ac1e829be6dfcdebed1d2d79162000b45565b5060408051808201909152601681527f5368697070656420546f204469737472696275746f72000000000000000000006020808301918252600b600052601090529051620007a3917f222281f8a778a50c678b18290b6f1f76b73341460456cd404319acd135fca4779162000b45565b5060408051808201909152601781527f5265636569766564204279204469737472696275746f720000000000000000006020808301918252600c60005260109052905162000813917f1c47f412c035acfb11780222aae71bf1bbf164d6655f4eb426a4fdb92a17a3239162000b45565b5060408051808201909152601781527f466f722053616c65204279204469737472696275746f720000000000000000006020808301918252600d60005260109052905162000883917fdfb340902d3967fa50e8165d4f7a13c9cb160eea8fb21544939c9a839ac4b6c49162000b45565b5060408051808201909152601381527f536f6c64204279204469737472696275746f72000000000000000000000000006020808301918252600e600052601090529051620008f3917fd331405802b48c62503c15f58c7a0f7d4e115b3f84eaa7ece1215aeb38f6b4bf9162000b45565b5060408051808201909152601381527f5368697070656420546f2052657461696c6572000000000000000000000000006020808301918252600f60005260109052905162000963917fad6509bb0b6dc44cf2f1c6595da7ff5ec660b594001258d15cd32de4206f0af09162000b45565b5060408051808201909152601481527f52656365697665642042792052657461696c657200000000000000000000000060208083019182526010600081905290529051620009d3917f70245aa8eee00889cc059fdc11a53867c856b61f1cf8bc3ee4f4442d6b5c3c379162000b45565b5060408051808201909152601481527f466f722053616c652042792052657461696c65720000000000000000000000006020808301918252601160005260109052905162000a43917f28f973f655c78d879d00767376b860c7f1ff781d69e5cd4aa2f5a99e2232013c9162000b45565b5060408051808201909152601581527f50757263686173656420427920436f6e73756d657200000000000000000000006020808301918252601260005260109052905162000ab3917fe397cf9706f522dafff518f3ae63b4cdcabf8a93293fcc829843d749f8151bb09162000b45565b50565b600160a060020a03811662000aca57600080fd5b62000adf828264010000000062000b0f810204565b1562000aea57600080fd5b600160a060020a0316600090815260209190915260409020805460ff19166001179055565b6000600160a060020a03821662000b2557600080fd5b50600160a060020a03166000908152602091909152604090205460ff1690565b828054600181600116156101000203166002900490600052602060002090601f016020900481019282601f1062000b8857805160ff191683800117855562000bb8565b8280016001018555821562000bb8579182015b8281111562000bb857825182559160200191906001019062000b9b565b5062000bc692915062000bca565b5090565b62000be791905b8082111562000bc6576000815560010162000bd1565b90565b613bb28062000bfa6000396000f3fe6080604052600436106102d8576000357c0100000000000000000000000000000000000000000000000000000000900480638ec4f5051161018b578063c4d10d74116100e8578063e797313f1161009c578063f11f47c811610081578063f11f47c814610e48578063f2fde38b14610e7e578063f54470cc14610eb1576102d8565b8063e797313f14610de2578063efcf1f4314610e12576102d8565b8063ccefa5dc116100cd578063ccefa5dc14610cf2578063d6f3791914610d28578063e38488a114610dac576102d8565b8063c4d10d7414610c9c578063c95b0e9f14610ccf576102d8565b8063b567e2c21161013f578063b8b06c8611610124578063b8b06c8614610bf7578063b93983e014610c2a578063bd630dc714610c69576102d8565b8063b567e2c21461098a578063b726aa141461099f576102d8565b80638f32d59b116101705780638f32d59b146109305780639bdc080114610945578063a888a6841461095a576102d8565b80638ec4f505146108ca5780638f0c86fa146108fd576102d8565b80635f84a3b811610239578063834ff739116101ed57806388896c41116101d257806388896c41146108545780638c4246f8146108695780638da5cb5b14610899576102d8565b8063834ff739146107f1578063857ce3a114610824576102d8565b806366020ba51161021e57806366020ba514610780578063715018a6146107a95780637250e224146107be576102d8565b80635f84a3b814610720578063639cca0214610750576102d8565b8063408d71af116102905780634685321011610275578063468532101461069157806347810fe3146106a65780635da09b88146106d9576102d8565b8063408d71af146104c857806341c0e1b51461067c576102d8565b806316479b85116102c157806316479b85146103ce57806321c4abd0146103e35780632c96e0cd14610492576102d8565b8063112940f9146102dd57806315aeb9bb14610312575b600080fd5b3480156102e957600080fd5b506103106004803603602081101561030057600080fd5b5035600160a060020a0316610ed4565b005b34801561031e57600080fd5b506103486004803603606081101561033557600080fd5b5080359060208101359060400135610ef2565b6040518084815260200180602001838152602001828103825284818151815260200191508051906020019080838360005b83811015610391578181015183820152602001610379565b50505050905090810190601f1680156103be5780820380516001836020036101000a031916815260200191505b5094505050505060405180910390f35b3480156103da57600080fd5b506103106110c3565b3480156103ef57600080fd5b506104136004803603604081101561040657600080fd5b50803590602001356110ce565b6040518083815260200180602001828103825283818151815260200191508051906020019080838360005b8381101561045657818101518382015260200161043e565b50505050905090810190601f1680156104835780820380516001836020036101000a031916815260200191505b50935050505060405180910390f35b34801561049e57600080fd5b50610413600480360360608110156104b557600080fd5b50803590602081013590604001356111ca565b3480156104d457600080fd5b50610597600480360360808110156104eb57600080fd5b813591602081013591600160a060020a03604083013516919081019060808101606082013564010000000081111561052257600080fd5b82018360208201111561053457600080fd5b8035906020019184600183028401116401000000008311171561055657600080fd5b91908080601f01602080910402602001604051908101604052809392919081815260200183838082843760009201919091525092955061132f945050505050565b604051808481526020018060200180602001838103835285818151815260200191508051906020019080838360005b838110156105de5781810151838201526020016105c6565b50505050905090810190601f16801561060b5780820380516001836020036101000a031916815260200191505b50838103825284518152845160209182019186019080838360005b8381101561063e578181015183820152602001610626565b50505050905090810190601f16801561066b5780820380516001836020036101000a031916815260200191505b509550505050505060405180910390f35b34801561068857600080fd5b50610310611700565b34801561069d57600080fd5b50610310611724565b3480156106b257600080fd5b50610310600480360360208110156106c957600080fd5b5035600160a060020a031661172d565b3480156106e557600080fd5b5061070c600480360360208110156106fc57600080fd5b5035600160a060020a0316611748565b604080519115158252519081900360200190f35b34801561072c57600080fd5b506104136004803603604081101561074357600080fd5b5080359060200135611763565b34801561075c57600080fd5b506104136004803603604081101561077357600080fd5b50803590602001356118d5565b6104136004803603606081101561079657600080fd5b50803590602081013590604001356119c9565b3480156107b557600080fd5b50610310611b4e565b3480156107ca57600080fd5b50610310600480360360208110156107e157600080fd5b5035600160a060020a0316611bb6565b3480156107fd57600080fd5b5061070c6004803603602081101561081457600080fd5b5035600160a060020a0316611bd1565b34801561083057600080fd5b506104136004803603604081101561084757600080fd5b5080359060200135611be4565b34801561086057600080fd5b50610310611df2565b34801561087557600080fd5b506103486004803603604081101561088c57600080fd5b5080359060200135611dfb565b3480156108a557600080fd5b506108ae6121f6565b60408051600160a060020a039092168252519081900360200190f35b3480156108d657600080fd5b50610310600480360360208110156108ed57600080fd5b5035600160a060020a0316612206565b34801561090957600080fd5b5061070c6004803603602081101561092057600080fd5b5035600160a060020a0316612221565b34801561093c57600080fd5b5061070c612234565b34801561095157600080fd5b50610310612245565b34801561096657600080fd5b506104136004803603604081101561097d57600080fd5b508035906020013561224e565b34801561099657600080fd5b50610310612342565b3480156109ab57600080fd5b50610310600480360360a08110156109c257600080fd5b600160a060020a0382351691908101906040810160208201356401000000008111156109ed57600080fd5b8201836020820111156109ff57600080fd5b80359060200191846001830284011164010000000083111715610a2157600080fd5b91908080601f0160208091040260200160405190810160405280939291908181526020018383808284376000920191909152509295949360208101935035915050640100000000811115610a7457600080fd5b820183602082011115610a8657600080fd5b80359060200191846001830284011164010000000083111715610aa857600080fd5b91908080601f0160208091040260200160405190810160405280939291908181526020018383808284376000920191909152509295949360208101935035915050640100000000811115610afb57600080fd5b820183602082011115610b0d57600080fd5b80359060200191846001830284011164010000000083111715610b2f57600080fd5b91908080601f0160208091040260200160405190810160405280939291908181526020018383808284376000920191909152509295949360208101935035915050640100000000811115610b8257600080fd5b820183602082011115610b9457600080fd5b80359060200191846001830284011164010000000083111715610bb657600080fd5b91908080601f01602080910402602001604051908101604052809392919081815260200183838082843760009201919091525092955061234b945050505050565b348015610c0357600080fd5b5061031060048036036020811015610c1a57600080fd5b5035600160a060020a0316612410565b348015610c3657600080fd5b5061034860048036036060811015610c4d57600080fd5b5080359060208101359060400135600160a060020a031661242b565b348015610c7557600080fd5b5061070c60048036036020811015610c8c57600080fd5b5035600160a060020a03166127b7565b348015610ca857600080fd5b5061070c60048036036020811015610cbf57600080fd5b5035600160a060020a03166127ca565b61041360048036036040811015610ce557600080fd5b50803590602001356127dd565b348015610cfe57600080fd5b5061034860048036036060811015610d1557600080fd5b5080359060208101359060400135612a07565b348015610d3457600080fd5b50610d5e60048036036060811015610d4b57600080fd5b5080359060208101359060400135612b0d565b6040518085815260200180602001848152602001838152602001828103825285818151815260200191508051906020019080838360008381101561063e578181015183820152602001610626565b348015610db857600080fd5b5061034860048036036060811015610dcf57600080fd5b5080359060208101359060400135612c93565b348015610dee57600080fd5b5061041360048036036040811015610e0557600080fd5b5080359060200135612d99565b348015610e1e57600080fd5b5061041360048036036060811015610e3557600080fd5b5080359060208101359060400135612e8d565b348015610e5457600080fd5b5061041360048036036060811015610e6b57600080fd5b5080359060208101359060400135612fdf565b348015610e8a57600080fd5b5061031060048036036020811015610ea157600080fd5b5035600160a060020a031661313a565b61041360048036036040811015610ec757600080fd5b5080359060200135613154565b610edd33611bd1565b610ee657600080fd5b610eef81613311565b50565b600060606000610f0133611748565b610f0a57600080fd5b8585601060008381526008602090815260408083208584529091529020600a015460ff166012811115610f3957fe5b14610f4357600080fd5b60008881526008602090815260408083208a8452909152902060100154600160a060020a0316338114610f7557600080fd5b60008981526008602090815260408083208b8452909152812060090154889550815b8181101561107b5760008c8152600c602090815260408083208e84529091529020805482908110610fc457fe5b60009182526020808320600792909202909101600301548e8352600b825260408084208f85528352808420828552909252912060048101899055600501805491945060119174ff0000000000000000000000000000000000000000191660a060020a830217905550604080518d8152602081018d90528082018590526060810189905290517f96c2922ac2a41db68a4cfbd8ce03d4a43e60ff80155848052620169ea194f01d9181900360800190a1600101610f97565b5060008b81526008602090815260408083208d84529091529020600a01805460ff191660119081179091556110af90613359565b965060119750505050505093509350939050565b6110cc3361340c565b565b600060606110db33612221565b6110e457600080fd5b8383600b60008381526008602090815260408083208584529091529020600a015460ff16601281111561111357fe5b1461111d57600080fd5b60008681526008602090815260408083208884529091529020600f0154600160a060020a031633811461114f57600080fd5b6000878152600860209081526040808320898452825291829020600a01805460ff1916600c179055815189815290810188905281517fc30acdcb1201c48f56e1ddc7102d53bb493d7f4d91ddb3645dc1747633eb4a91929181900390910190a16111b9600c613359565b9350600c5b94505050509250929050565b600060606111d7336127b7565b6111e057600080fd5b84848460056000848152600960209081526040808320868452825280832085845290915290206003015460a060020a900460ff16601281111561121f57fe5b1461122957600080fd5b60008881526008602090815260408083208a84529091529020600e0154600160a060020a031633811461125b57600080fd5b60008981526008602090815260408083208b84528252808320600a018054600660ff199091161790558b8352600982528083208b845282528083208a8452825291829020600301805474ff000000000000000000000000000000000000000019167406000000000000000000000000000000000000000017905581518b81529081018a905280820189905290517f2795e4936ef15a2dd89c852fd4c442dee9e33f97996c154c9c99b0fe8133d5f69181900360600190a161131c6006613359565b945060065b955050505050935093915050565b600060608061133d336127ca565b61134657600080fd5b6000878152600860209081526040808320898452909152902054879087901561136e57600080fd5b60006113798a613454565b90506113848161349a565b935061138e613a88565b6040518060c001604052808a600160a060020a031681526020018a600160a060020a031681526020018a600160a060020a031681526020016000600160a060020a031681526020016000600160a060020a031681526020016000600160a060020a0316815250905060405180610180016040528060065481526020018c81526020018b815260200186815260200160008152602001600081526020018981526020016000815260200160008152602001600081526020016000601281111561145257fe5b8152602090810183905260008d81526008825260408082208e8352835290819020835181558383015160018201559083015160028201556060830151805191926114a492600385019290910190613abd565b506080820151600482015560a0820151600582015560c082015180516114d4916006840191602090910190613abd565b5060e0820151600782015561010082015160088201556101208201516009820155610140820151600a8201805460ff1916600183601281111561151357fe5b021790555061016091909101518051600b8301805473ffffffffffffffffffffffffffffffffffffffff19908116600160a060020a03938416179091556020830151600c8501805483169184169190911790556040830151600d8501805483169184169190911790556060830151600e8501805483169184169190911790556080830151600f85018054831691841691909117905560a0909201516010909301805490921692169190911790556006805460010190557f87e455d21f3a21acd04eb16ba6df36cb83a22a783d909439f1a79cb350257b1b8b8b60008989604051808681526020018581526020018481526020018060200180602001838103835285818151815260200191508051906020019080838360005b8381101561164357818101518382015260200161162b565b50505050905090810190601f1680156116705780820380516001836020036101000a031916815260200191505b50838103825284518152845160209182019186019080838360005b838110156116a357818101518382015260200161168b565b50505050905090810190601f1680156116d05780820380516001836020036101000a031916815260200191505b5097505050505050505060405180910390a16116ec6000613359565b955060009650505050509450945094915050565b611708612234565b61171157600080fd5b6117196121f6565b600160a060020a0316ff5b6110cc336135c0565b611736336127b7565b61173f57600080fd5b610eef81613608565b600061175b60048363ffffffff61365016565b90505b919050565b60006060611770336127ca565b61177957600080fd5b83836000808381526008602090815260408083208584529091529020600a015460ff1660128111156117a757fe5b146117b157600080fd5b60008681526008602090815260408083208884529091529020600c0154600160a060020a03163381146117e357600080fd5b60008781526008602090815260408083208984529091529020600a0180546001919060ff1916828002179055507f727c9c839d964fd8094590eb342992c0979c75970020d651077ad8a138744cd287876001876040518085815260200184815260200183815260200180602001828103825283818151815260200191508051906020019080838360005b8381101561188557818101518382015260200161186d565b50505050905090810190601f1680156118b25780820380516001836020036101000a031916815260200191505b509550505050505060405180910390a16118cc6001613359565b935060016111be565b600060606118e233611748565b6118eb57600080fd5b8383600f60008381526008602090815260408083208584529091529020600a015460ff16601281111561191a57fe5b1461192457600080fd5b6000868152600860209081526040808320888452909152902060100154600160a060020a031633811461195657600080fd5b6000878152600860209081526040808320898452825291829020600a01805460ff19166010179055815189815290810188905281517f3f73cc9d17e448f506ccd0922687c3d8a7b32df582b0aa033b25044a1649d95d929181900390910190a16119c06010613359565b935060106111be565b600060606119d633611bd1565b6119df57600080fd5b6119ea858585613685565b6000858152600b602090815260408083208784528252808320868452909152902060040154611a18906136d0565b611a238585856136dd565b6000858152600b6020908152604080832087845282528083208684528083528184206005810180546006830180543373ffffffffffffffffffffffffffffffffffffffff1991821681179092559091161774ff000000000000000000000000000000000000000019167412000000000000000000000000000000000000000017905589855260088452828520898652845282852060100154888652919093526004909201549051600160a060020a039092169281156108fc029290818181858888f19350505050158015611af657600080fd5b50604080518681526020810186905280820185905290517fe40771d8dec1e35943a824aec96932e3b917f18b945260371ac6a70126f9fa829181900360600190a1611b416011613359565b6011969095509350505050565b611b56612234565b611b5f57600080fd5b60008054604051600160a060020a03909116907f5c486528ec3e3f0ea91181cff8116f02bfa350e03b8b6f12e00765adbb5af85c908390a36000805473ffffffffffffffffffffffffffffffffffffffff19169055565b611bbf33612221565b611bc857600080fd5b610eef81613747565b600061175b60058363ffffffff61365016565b60006060611bf1336127b7565b611bfa57600080fd5b8383600260008381526008602090815260408083208584529091529020600a015460ff166012811115611c2957fe5b14611c3357600080fd5b60008681526008602090815260408083208884529091529020600e0154600160a060020a0316338114611c6557600080fd5b60008781526008602090815260408083208984528252808320600e8101805473ffffffffffffffffffffffffffffffffffffffff191633179055600a908101805460ff191660031790558a84528252808320898452909152812080548290611cc957fe5b6000918252602080832060026005939093020191909101548a83526009825260408084208b8552835280842082855283528084206003908101805474ff00000000000000000000000000000000000000001916740300000000000000000000000000000000000000001790558c8552600a84528185208c865290935283208054919450919290611d5557fe5b60009182526020909120600360059092020101805474ff0000000000000000000000000000000000000000191660a060020a836012811115611d9357fe5b0217905550604080518981526020810189905280820183905290517fd91d0e9cc51b8001466a983f23e06131aa49508bab5eaac6f9b4de5a26fa4dd49181900360600190a1611de26003613359565b6003999098509650505050505050565b6110cc3361378f565b600060606000611e0a336127ca565b611e1357600080fd5b8484600760008381526008602090815260408083208584529091529020600a015460ff166012811115611e4257fe5b14611e4c57600080fd5b60008781526008602090815260408083208984529091529020600c0154600160a060020a0316338114611e7e57600080fd5b60015b600a811161217057604051806101000160405280600860008c815260200190815260200160002060008b81526020019081526020016000206000015481526020018a815260200189815260200182815260200160008152602001600860008c815260200190815260200160002060008b8152602001908152602001600020600b0160000160009054906101000a9004600160a060020a0316600160a060020a0316815260200160086012811115611f3457fe5b8152600060209182018190528b8152600b825260408082208c83528352808220858352835290819020835181559183015160018301558201516002820155606082015160038201556080820151600482015560a082015160058201805473ffffffffffffffffffffffffffffffffffffffff1916600160a060020a039092169190911780825560c0840151919074ff0000000000000000000000000000000000000000191660a060020a836012811115611fea57fe5b021790555060e0919091015160069091018054600160a060020a0392831673ffffffffffffffffffffffffffffffffffffffff199182161790915560008b8152600c602090815260408083208d845282528083208e8452600b83528184208e855283528184208785528352908320815460018181018085559386529390942081546007909502019384558083015492840192909255600280830154908401556003808301549084015560048083015490840155600580830180549185018054909616919096161780855594549094919360ff60a060020a928390041692909174ff000000000000000000000000000000000000000019909116908360128111156120f057fe5b02179055506006918201549101805473ffffffffffffffffffffffffffffffffffffffff1916600160a060020a0390921691909117905550604080518a8152602081018a905280820183905290517fbff3e7b624651838b1696c7312b5551dd7a8f4cf449943e026c4104c7b8e1c099181900360600190a1600101611e81565b5060008881526008602081815260408084208b8552825292839020600a60098201819055908101805460ff191690931790925582518b81529081018a905282519196507fc5a18b275433db1378bc7903935c605523f86c5c4197599ce2c7e448cfd8013992908290030190a16121e66008613359565b9450600895505050509250925092565b600054600160a060020a03165b90565b61220f33611748565b61221857600080fd5b610eef816137d7565b600061175b60038363ffffffff61365016565b600054600160a060020a0316331490565b6110cc3361381f565b6000606061225b33612221565b61226457600080fd5b8383600e60008381526008602090815260408083208584529091529020600a015460ff16601281111561229357fe5b1461229d57600080fd5b60008681526008602090815260408083208884529091529020600f0154600160a060020a03163381146122cf57600080fd5b6000878152600860209081526040808320898452825291829020600a01805460ff1916600f179055815189815290810188905281517f13faaff0d18f6b864dd4234cae38b3b881af04aaf6dab40a95864edc5f453a7d929181900390910190a1612339600f613359565b9350600f6111be565b6110cc33613867565b612354336127ca565b61235d57600080fd5b612365613b3b565b5060408051608081018252858152602080820186905281830185905260608201849052600160a060020a0388166000908152600782529290922081518051929384936123b49284920190613abd565b5060208281015180516123cd9260018501920190613abd565b50604082015180516123e9916002840191602090910190613abd565b5060608201518051612405916003840191602090910190613abd565b505050505050505050565b612419336127ca565b61242257600080fd5b610eef816138af565b60006060600061243a336127ca565b61244357600080fd5b8585600160008381526008602090815260408083208584529091529020600a015460ff16601281111561247257fe5b1461247c57600080fd5b60008881526008602090815260408083208a84529091529020600c0154600160a060020a03163381146124ae57600080fd5b60008981526008602090815260408083208b84529091529020600e8101805473ffffffffffffffffffffffffffffffffffffffff1916600160a060020a038a16179055600a0180546002919060ff191660018302179055506040805160c0810182528a815260208082018b9052600182840181905260008d8152600883528481208d8252909252929020600b0154600160a060020a031660608201529094506080810160028152600060209182018190528b81526009825260408082208c83528352808220888352835290819020835181559183015160018301558201516002820155606082015160038201805473ffffffffffffffffffffffffffffffffffffffff1916600160a060020a03909216919091178082556080840151919074ff0000000000000000000000000000000000000000191660a060020a8360128111156125f557fe5b021790555060a0919091015160049091018054600160a060020a0392831673ffffffffffffffffffffffffffffffffffffffff199182161790915560008b8152600a602090815260408083208d845282528083208e8452600983528184208e855283528184208a8552835290832081546001818101808555938652939094208154600590950201938455808301549284019290925560028083015490840155600380830180549185018054909616919096161780855594549094919360ff60a060020a928390041692909174ff000000000000000000000000000000000000000019909116908360128111156126e757fe5b02179055506004918201549101805473ffffffffffffffffffffffffffffffffffffffff1916600160a060020a0390921691909117905550604080518a8152602081018a905281517fc3c4dcce954f73871bbb65ebe500431eb869d83933d7ac17adaf4151f6f188b7929181900390910190a1604080518a8152602081018a905280820186905290517f971f98e90f3ef3af50f067ec51f75e2848e8e6bed20918e2d882bc32d67652059181900360600190a16127a46002613359565b945060025b955050505093509350939050565b600061175b60028363ffffffff61365016565b600061175b60018363ffffffff61365016565b600060606127ea33611748565b6127f357600080fd5b8383600d60008381526008602090815260408083208584529091529020600a015460ff16601281111561282257fe5b1461282c57600080fd5b600086815260086020818152604080842089855290915290912001543481111561285557600080fd5b60008781526008602081815260408084208a855290915280832091820154600f9092015490518a938a93923484900392600160a060020a03909116916108fc841502918491818181858888f193505050501580156128b257600080fd5b5060008b81526008602090815260408083208d84529091529020600b810180543373ffffffffffffffffffffffffffffffffffffffff1991821681179092556010830180549091169091179055600a018054600e919060ff19166001830217905550600860008c815260200190815260200160002060008b8152602001908152602001600020600b0160040160009054906101000a9004600160a060020a0316600160a060020a03166108fc600860008e815260200190815260200160002060008d8152602001908152602001600020600801549081150290604051600060405180830381858888f193505050501580156129ac57600080fd5b50604080518c8152602081018c905281517f56de697aab297c2e736901bb52a53a598515366b07f3e2af06f718098437ab51929181900390910190a16129f2600e613359565b9750600e5b9850505050505050509250929050565b600060606000612a16336127ca565b612a1f57600080fd5b8585600860008381526008602090815260408083208584529091529020600a015460ff166012811115612a4e57fe5b14612a5857600080fd5b60008881526008602090815260408083208a84529091529020600c0154600160a060020a0316338114612a8a57600080fd5b60008981526008602090815260408083208b8452825291829020600a8101805460ff1916600917905560070189905581518b81529081018a905280820189905290518895507f631b3a0d92b5d1da5a90f9d995b6a7f069a07dac98ae09d22bde9ffb29c67337916060908290030190a1612b046009613359565b945060096127a9565b60006060600080612b1d336127b7565b612b2657600080fd5b86868660066000848152600960209081526040808320868452825280832085845290915290206003015460a060020a900460ff166012811115612b6557fe5b14612b6f57600080fd5b60008a81526008602090815260408083208c84529091529020600e0154600160a060020a0316338114612ba157600080fd5b612baa8b6138f7565b60008d81526009602090815260408083208f845282528083208e84528252808320600301805474ff00000000000000000000000000000000000000001916740700000000000000000000000000000000000000001790558f8352600882528083208f84528252918290206004810185905560058101849055600a018054600760ff1990911617905581518f81529081018e90528082018d905290519298509096507f36ea04725f8aa40ee603224671681b753f9cba3cb5f67c5a0e24a3b39900c065919081900360600190a1612c806007613359565b9650600797505050505093509350935093565b600060606000612ca233612221565b612cab57600080fd5b8585600c60008381526008602090815260408083208584529091529020600a015460ff166012811115612cda57fe5b14612ce457600080fd5b60008881526008602090815260408083208a84529091529020600f0154600160a060020a0316338114612d1657600080fd5b60008981526008602081815260408084208c8552825292839020600a8101805460ff1916600d17905590910189905581518b81529081018a905280820189905290518895507fe655dcb98558e62b1c786b682011faefa66269ed534cdcc70cb9260b7ed76ae9916060908290030190a1612d90600d613359565b9450600d6127a9565b60006060612da6336127ca565b612daf57600080fd5b8383600a60008381526008602090815260408083208584529091529020600a015460ff166012811115612dde57fe5b14612de857600080fd5b60008681526008602090815260408083208884529091529020600c0154600160a060020a0316338114612e1a57600080fd5b6000878152600860209081526040808320898452825291829020600a01805460ff1916600b179055815189815290810188905281517fc818f5a4561bbaa82ebb7db7a6e7fffac09ea3b11d30264aaa0882f07bf84ecb929181900390910190a1612e84600b613359565b9350600b6111be565b60006060612e9a336127ca565b612ea357600080fd5b8484600360008381526008602090815260408083208584529091529020600a015460ff166012811115612ed257fe5b14612edc57600080fd5b60008781526008602090815260408083208984529091529020600c0154600160a060020a0316338114612f0e57600080fd5b60008881526008602090815260408083208a84528252808320600a018054600460ff199091161790558a8352600982528083208a84528252808320898452825291829020600301805474ff000000000000000000000000000000000000000019167404000000000000000000000000000000000000000017905581518a815290810189905280820188905290517f30e1e730c5720358f2d1e80b1a36b50ff0cf80a20e537b50a091093d8b3526ee9181900360600190a1612fcf6004613359565b6004999098509650505050505050565b60006060612fec336127b7565b612ff557600080fd5b84848460046000848152600960209081526040808320868452825280832085845290915290206003015460a060020a900460ff16601281111561303457fe5b1461303e57600080fd5b60008881526008602090815260408083208a84529091529020600e0154600160a060020a031633811461307057600080fd5b60008981526008602090815260408083208b84528252808320600a018054600560ff199091161790558b8352600982528083208b845282528083208a8452825291829020600301805474ff000000000000000000000000000000000000000019167405000000000000000000000000000000000000000017905581518b81529081018a905280820189905290517f059b5fa12820d369a51cdb86ae5faa89f822ea1fbac7b70b2bd0ccc805ce67529181900360600190a16131316005613359565b94506005611321565b613142612234565b61314b57600080fd5b610eef81613979565b6000606061316133612221565b61316a57600080fd5b8383600960008381526008602090815260408083208584529091529020600a015460ff16601281111561319957fe5b146131a357600080fd5b6000868152600860209081526040808320888452909152902060070154348111156131cd57600080fd5b60008781526008602090815260408083208984529091528082206007810154600f9091015491518a938a933484900392600160a060020a03909116916108fc841502918491818181858888f1935050505015801561322a57600080fd5b5060008b81526008602090815260408083208d8452909152808220600b810180543373ffffffffffffffffffffffffffffffffffffffff199182168117909255600f830180549091169091179055600a808201805460ff19169091179055600c8101546007909101549151600160a060020a03909116926108fc831502929190818181858888f193505050501580156132c257600080fd5b50604080518c8152602081018c905281517f8b4554e9bb7948273660bceca2cdc74ceec0e26bcf21ee73e62db5d5bc99466f929181900390910190a1613308600a613359565b9750600a6129f7565b61332260058263ffffffff6139f416565b604051600160a060020a038216907f28b26e7a3d20aedbc5f8f2ebf7da671c0491723a2b78f47a097b0e46dee0714290600090a250565b60606010600083601281111561336b57fe5b815260208082019290925260409081016000208054825160026001831615610100026000190190921691909104601f8101859004850282018501909352828152929091908301828280156134005780601f106133d557610100808354040283529160200191613400565b820191906000526020600020905b8154815290600101906020018083116133e357829003601f168201915b50505050509050919050565b61341d60048263ffffffff613a4016565b604051600160a060020a038216907fdb7176e79cffef81cb01767dd0447a0b24bb72ca9778d4b245581086b2a7e6db90600090a250565b6000600a82066002811161346c57600091505061175e565b6005811161347e57600191505061175e565b6007811161349057600291505061175e565b600391505061175e565b606060008260038111156134aa57fe5b14156134ea575060408051808201909152601c81527f54726970707920507572706c6520427562626c6567756d2048617a6500000000602082015261175e565b60018260038111156134f857fe5b1415613538575060408051808201909152601081527f56756c63616e204d696e64204d656c7400000000000000000000000000000000602082015261175e565b600282600381111561354657fe5b1415613586575060408051808201909152601881527f43617461746f6e696320436f7563686c6f636b204b7573680000000000000000602082015261175e565b5060408051808201909152600c81527f536e6f6f7a7920576f6f7a790000000000000000000000000000000000000000602082015261175e565b6135d160018263ffffffff613a4016565b604051600160a060020a038216907f686dbfa27271f8cf2fe2e5eaeaf43f15d839d20c7e162ca3aee8362b6c6a861b90600090a250565b61361960028263ffffffff6139f416565b604051600160a060020a038216907fe4d25ff5a46e97955a9f6b0941a56b0865a723be7acfaae1f711d0c6833f6fab90600090a250565b6000600160a060020a03821661366557600080fd5b50600160a060020a03166000908152602091909152604090205460ff1690565b60116000848152600b60209081526040808320868452825280832085845290915290206005015460a060020a900460ff1660128111156136c157fe5b146136cb57600080fd5b505050565b80341015610eef57600080fd5b6000838152600b6020908152604080832085845282528083208484529091528082206004810154600690910154915190923484900392600160a060020a0316916108fc84150291849190818181858888f1935050505015801561373f57600080fd5b505050505050565b61375860038263ffffffff6139f416565b604051600160a060020a038216907fddbf200aa634dc3fb81cfd68583dd1040d1c751d335e1d86b631bde3e977fea890600090a250565b6137a060058263ffffffff613a4016565b604051600160a060020a038216907fe3f5ed5f263f1f01764a96edfc7d025f511ec5f7d180e8816908b78bcf74f09890600090a250565b6137e860048263ffffffff6139f416565b604051600160a060020a038216907f71ae26cad02663e3d92efd6ec56031a80d74a20c0ab4183faa8bf262261c9baa90600090a250565b61383060038263ffffffff613a4016565b604051600160a060020a038216907f126174f6cf49c81cdb4a9214c6b8f037bef55b4ec31e4fc776cea2a1c8a88d5990600090a250565b61387860028263ffffffff613a4016565b604051600160a060020a038216907fe8ce47043de08fd3fc122d8d670b283ff74ad523739a032edea680aaee9ae42d90600090a250565b6138c060018263ffffffff6139f416565b604051600160a060020a038216907f423fd8158a2c5772d65f93f5aa158245f414b4da880b0d6d2a3361a3915ad3ae90600090a250565b600080600061390584613454565b9050600081600381111561391557fe5b141561392857601e925060019150613973565b600181600381111561393657fe5b1415613949576019925060029150613973565b600281600381111561395757fe5b141561396a576014925060039150613973565b60059250601491505b50915091565b600160a060020a03811661398c57600080fd5b60008054604051600160a060020a03808516939216917f5c486528ec3e3f0ea91181cff8116f02bfa350e03b8b6f12e00765adbb5af85c91a36000805473ffffffffffffffffffffffffffffffffffffffff1916600160a060020a0392909216919091179055565b600160a060020a038116613a0757600080fd5b613a118282613650565b15613a1b57600080fd5b600160a060020a0316600090815260209190915260409020805460ff19166001179055565b600160a060020a038116613a5357600080fd5b613a5d8282613650565b613a6657600080fd5b600160a060020a0316600090815260209190915260409020805460ff19169055565b6040805160c081018252600080825260208201819052918101829052606081018290526080810182905260a081019190915290565b828054600181600116156101000203166002900490600052602060002090601f016020900481019282601f10613afe57805160ff1916838001178555613b2b565b82800160010185558215613b2b579182015b82811115613b2b578251825591602001919060010190613b10565b50613b37929150613b63565b5090565b6040518060800160405280606081526020016060815260200160608152602001606081525090565b61220391905b80821115613b375760008155600101613b6956fea265627a7a72315820b74c69a9df376559ccad8a6441d941cc83e46594bd3de371a26749878304a12064736f6c63430005100032",
  "source": "pragma solidity ^0.5.16;\n\nimport '../core/Ownable.sol';\nimport '../accesscontrol/GrowerRole.sol';\nimport '../accesscontrol/TesterRole.sol';\nimport '../accesscontrol/DistributorRole.sol';\nimport '../accesscontrol/RetailerRole.sol';\nimport '../accesscontrol/ConsumerRole.sol';\n\ncontract SupplyChainBase is Ownable, GrowerRole, TesterRole, DistributorRole, RetailerRole, ConsumerRole {\n  //\n  // define structs for items of interest\n  // We assume our cannabis is grown in bulk in one of 4 varieties/strains:\n  // 1. Trippy Purple Bubblegum Haze (a sativa)\n  // 2. Vulcan Mind Melt (a hybrid)\n  // 3. Catatonic Couchlock Kush (an indica)\n  // 4. Snoozy Woozy (a high CBD, lower THC strain)\n  // We can assign each strain a UPC which differentiates it from other strains.\n  // We assume a very simple mapping between UPC and Strain: the UPC is always a positive integer and \n  // the ending digit indicates the Strain as follows:\n  //  - UPC ending in 0,1,2 = Trippy Purple Bubblegum Haze\n  //  - UPC ending in 3,4,5 = Vulcan Mind Melt\n  //  - UPC ending in 6,7 = Catatonic Couchlock Kush\n  //  - UPC ending in 8,9 = Snoozy Woozy\n  // So from the UPC we can always find the Strain, and in the UI we specifiy the Strain by choosing the UPC. \n  //    \n  // Like coffee, cannabis is a bulk item that gets segmented into retail-sized units later in the process.\n  // So, an Item in cannabis (or coffee) must also indicate the size we are talking about. Furthermore,\n  // a single bulk quantity (bale) of cannabis will be processed into a large number of individually sized\n  // retail packages, so there will be N retail-sized packages for each bale. None of this logic was properly\n  // considered by Udacity in their starter code, so it is added here.\n  // \n  // How I Handle IDs:\n  // - Each strain is associated with one or more UPC's. The last digit of the UPC indicates the strain.\n  // - The UPC for a given strain refers to some undetermined bulk quantity of canabis. In order for\n  //   the cannabis to be any sort of \"item\", it must be segmented first into some number of (say) 10 kg \"bales\".\n  // - Each bale from the above bulk cannabis will be uniquely identified by the UPC and a bale ID (a uint).\n  //   It is perfectly possible and acceptable for two bales with different UPCs to have the same value for bale ID,\n  //   ie the bale ID is unique only to the UPC. Again, it is the combination of UPC and bale ID that uniquely identifies the bale.\n  // - A sample is just a small quantity from a given bale that is sent for testing. Each sample has its own\n  //   sample ID that is unique only to the bale. In our simplified chain, we will only ever have a single sample from a given\n  //   bale.\n  // - When the bale is processed, it creates some number of retail-sized items. In real life, a bale\n  //   would create a large number (thousands) of retail-sized (say 3 gram) retail packages. For simplicity\n  //   in this project, I reduce that number drastically to 10. In other words, when the cannabis is processed\n  //   it gets converted from a single bale into 10 retail sized (3 gram) retail products. \n  // - Each retail (3 gram) jar of canabis has its own item ID that is unique only to that bale. The combination of\n  //   item ID, bale ID, and UPC uniquely determines the retail item (the liitle 3 gram jar of weed you buy at the dispensary).\n  //\n  // \n\n  // Define a variable called 'autosku' which is how we automatically generate SKU.\n  // In real life, various parties would create their own values, but to keep it simple we just auto-generate this\n  uint  autosku;\n\n  enum Strain {\n      TrippyPurpleBubblegumHaze,  // 0\n      VulcanMindMelt,             // 1\n      CatatonicCouchlockKush,     // 2\n      SnoozyWoozy                 // 3\n  }\n\n  //\n  // The cannabis starts out as a bale-sized chunk of plants. It gets processed into a an actual bale (say a 10kg sized chunk).\n  // Next it  gets sampled, tested, and eventually packed.\n  // When it is packed, it basically ceases to exist as a bale, instead it is now in the form of a large number of retail sized packages\n  // In this simplified supply chain, each bale creates exactly 10 retail packages (the number in real life will be much larger).\n  //\n  enum State {\n    Harvested,              // 0   Bale-sized cannabis is now in the form of a bunch of harvested plants\n    Processed,              // 1   Plants processed to extract the flower and remove unusable matter, formed into a bale\n    Sampled,                // 2   Bale is sampled for testing. Sample is created with state Sampled\n    SampleRequested,        // 3   Tester has requested the sample for testing.  \n    SentToTester,           // 4   Bale is sampled and the sample is sent to the tester to check quality, THC and CBD content etc\n    ReceivedByTester,       // 5   Sample received by tester\n    InTesting,              // 6   Sample in testing\n    Approved,               // 7   Sample approved, approval sent back to grower/farmer \n    Productized,            // 8   Bale of cannabis productized/converted to retail packages. Each new retail package has state Productized\n    ForSaleByGrower,        // 9   Bale and its retail packages are now for sale to distributor. \n    SoldByGrower,           // 10  Sold to distributor. The owner of the bale and its retail packages is now the Distributor\n    ShippedToDistributor,   // 11  Shipped to retailer/dispensary\n    ReceivedByDistributor,  // 12  Received by retailer/dispensary. \n    ForSaleByDistributor,   // 13  Bales and retail items now for sale to retailer\n    SoldByDistributor,      // 14  Bales and retail items now sold to retailer. Owner is now the retailer\n    ShippedToRetailer,      // 15  Shipped to retailer/dispensary\n    ReceivedByRetailer,     // 16  Received by retailer/dispensary. \n    ForSaleByRetailer,      // 17  Retailer/dispensary puts individual package onto its shelves for sale\n    PurchasedByConsumer     // 18  Consumer buys a retail package\n  }\n\n  struct FarmInfo {\n      string  originFarmName; // Grower Name\n      string  originFarmInformation;  // Grower Information\n      string  originFarmLatitude; // Grow Latitude\n      string  originFarmLongitude;  // Grow Longitude\n  }\n\n  struct BaleAddresses {\n    address payable ownerID;  // Metamask-Ethereum address of the current owner as the product moves through various stages\n    address payable originGrowerID; // Metamask-Ethereum address of the Grower/Farmer\n    address payable growerID;  // Metamask-Ethereum address of the Grower\n    address payable testerID;  // Metamask-Ethereum address of the Tester\n    address payable distributorID;  // Metamask-Ethereum address of the Distributor\n    address payable retailerID; // Metamask-Ethereum address of the Retailer\n\n  }\n  //  \n  // Define a struct 'BaleItem'\n  //  \n  struct BaleItem {\n    uint    sku;      // Stock Keeping Unit (SKU), generated automatically\n    uint    upc;      // Universal Product Code (UPC), generated by the Farmer, goes on the package, can be verified by the Consumer\n    uint    baleId;   // ID unique to bale, set by grower\n    string  strainName;\n    uint    thcPct;\n    uint    cbdPct;\n    string  productNotes; // Product Notes\n    uint    growerPrice; // Price charged by grower for distributor to buy bale\n    uint    distributorPrice; // Price charged by distributor to retailer to buy bale \n    uint    numRetailProducts; // Number of retail products created for this bale (eg 10)\n    State   itemState;  // Product State as represented in the enum above\n    BaleAddresses baleAddresses;\n  }\n\n  //  \n  // Define a struct 'SampleItem'. We only store testerID in addresses because the other addresses we can get from the bale.\n  //  \n  struct SampleItem {\n    uint    upc;      // Universal Product Code (UPC), generated by the Grower/Farmer, goes on the package, can be verified by the Consumer\n    uint    baleId;   // ID unique to bale, set by grower\n    uint    sampleId; // ID unique to this sample for the given bale\n    address payable ownerID;  // Metamask-Ethereum address of the current owner as the product moves through various stages\n    State   itemState;  // Product State as represented in the enum above\n    address payable testerID;  // Metamask-Ethereum address of the Tester\n  }\n\n  //  \n  // Define a struct 'RetailItem'. We only store consumerID in addresses because the other addresses we can get from the bale.\n  //  \n  struct RetailItem {\n    uint    sku;      // Stock Keeping Unit (SKU), generated automatically\n    uint    upc;      // Universal Product Code (UPC), generated by the Farmer, goes on the package, can be verified by the Consumer\n    uint    baleId;   // ID unique to bale, set by grower\n    uint    retailId; // ID unique to this retail package for the given bale\n    uint    retailPrice; // Product Price for each retail item\n    address payable ownerID;  // Metamask-Ethereum address of the current owner as the product moves through various stages\n    State   itemState;  // Product State as represented in the enum above\n    address payable consumerID; // Metamask-Ethereum address of the Consumer\n  }\n\n  //\n  // mapping for info about growers\n  //\n  mapping (address => FarmInfo) farmsInfo;\n\n  //\n  // mappings for items\n  //\n  // store BaleItem by [upc][baleId]. \n  //\n  mapping (uint => mapping(uint => BaleItem)) bales;\n\n  //\n  // store SampleItem by [upc][baleId][sampleId]\n  //\n  mapping (uint => mapping(uint => mapping(uint => SampleItem))) samples;\n  mapping (uint => mapping(uint => SampleItem[])) samplesForBale;\n\n  //\n  // store RetailItem by [upc][baleId][retailId]\n  //\n  mapping (uint => mapping(uint => mapping(uint => RetailItem))) retailItems;\n  mapping (uint => mapping(uint => RetailItem[])) retailItemsForBale;\n\n  //\n  // Define public mappings 'baleItemsHistory', 'sampleItemsHistory, 'retailItemsHistory'\n  // that map the UPC and Ids to an array of TxHash, \n  // that track the item's journey through the supply chain -- to be sent from DApp.\n  //\n  mapping (uint => mapping(uint => string[])) baleItemsHistory;\n  mapping (uint => mapping(uint => mapping(uint => string[]))) sampleItemsHistory;\n  mapping (uint => mapping(uint => mapping(uint => string[]))) retailItemsHistory;\n \n  mapping (uint => string) statesAsStrings;\n  // \n  // Define 21 events: 19 events with the same 19 state values plus two creation events: SampleCreated and RetailItemCreated\n  // \n  event Harvested(uint upc, uint baleId, uint _state, string _stateStr, string _strainStr);\n  event Processed(uint upc, uint baleId, uint _state, string _stateStr);\n  event Sampled(uint upc, uint baleId);\n  event SampleCreated(uint upc, uint baleId, uint sampleId);\n  event SampleRequested(uint upc, uint baleId, uint sampleId);\n  event SentToTester(uint upc, uint baleId, uint sampleId);\n  event ReceivedByTester(uint upc, uint baleId, uint sampleId);\n  event InTesting(uint upc, uint baleId, uint sampleId);\n  event Approved(uint upc, uint baleId, uint sampleId);\n  event Productized(uint upc, uint baleId);\n  event RetailItemCreated(uint upc, uint baleId, uint retailId);\n  event ForSaleByGrower(uint upc, uint baleId, uint growerPrice);\n  event SoldByGrower(uint upc, uint baleId);\n  event ShippedToDistributor(uint upc, uint baleId);\n  event ReceivedByDistributor(uint upc, uint baleId);\n  event ForSaleByDistributor(uint upc, uint baleId, uint distributorPrice);\n  event SoldByDistributor(uint upc, uint baleId);\n  event ShippedToRetailer(uint upc, uint baleId);\n  event ReceivedByRetailer(uint upc, uint baleId);\n  event ForSaleByRetailer(uint upc, uint baleId, uint retailId, uint retailPrice);\n  event PurchasedByConsumer(uint upc, uint baleId, uint retailId);\n\n  /////////////////////////\n  /////////////////////////\n  // Define modifiers\n  /////////////////////////\n  /////////////////////////\n\n  /////////////////////////////\n  // price checking modifiers\n  /////////////////////////////\n  // Define a modifer that verifies the Caller\n  modifier verifyCaller (address _address) {\n    require(msg.sender == _address); \n    _;\n  }\n\n  // Define a modifer that verifies the distributor for shipping\n  modifier verifyDistributor(uint _upc, uint _baleId, address _address) {\n    require(bales[_upc][_baleId].baleAddresses.distributorID == _address); \n    _;\n  }\n\n  // Define a modifer that verifies the retailer for shipping or consumer purchase\n  modifier verifyRetailer(uint _upc, uint _baleId, address _address) {\n    require(bales[_upc][_baleId].baleAddresses.retailerID == _address); \n    _;\n  }\n\n\n  // Define a modifier that checks if the paid amount is sufficient to cover the price\n  modifier paidEnough(uint _price) { \n    require(msg.value >= _price); \n    _;\n  }\n\n  // Need a function version to get around stack too deep issue                 \n  function paidEnoughFunc(uint _price) internal view {\n    require(msg.value >= _price); \n  }\n\n  \n  // Define a modifier that checks the price and refunds the remaining balance to the buyer (the distributor buys bales from grower)\n  modifier checkGrowerValue(uint _upc, uint baleId) {\n    uint _price = bales[_upc][baleId].growerPrice;\n    uint amountToReturn = msg.value - _price;\n    bales[_upc][baleId].baleAddresses.distributorID.transfer(amountToReturn);\n    _;\n  }\n\n  // Define a modifier that checks the price and refunds the remaining balance to the buyer (the retailer buys bales from distributor)\n  modifier checkDistributorValue(uint _upc, uint baleId) {\n    uint _price = bales[_upc][baleId].distributorPrice;\n    uint amountToReturn = msg.value - _price;\n    bales[_upc][baleId].baleAddresses.distributorID.transfer(amountToReturn);\n    _;\n  }\n\n  // Define a modifier that checks the price and refunds the remaining balance to the buyer (the consumer buys retail items)\n  modifier checkRetailerValue(uint _upc, uint baleId, uint retailId) {\n    uint _price = retailItems[_upc][baleId][retailId].retailPrice;\n    uint amountToReturn = msg.value - _price;\n    retailItems[_upc][baleId][retailId].consumerID.transfer(amountToReturn);\n    _;\n  }\n\n  // Need a function version to get around stack too deep issue                 \n  function checkRetailerValueFunc(uint _upc, uint baleId, uint retailId) internal {\n    uint _price = retailItems[_upc][baleId][retailId].retailPrice;\n    uint amountToReturn = msg.value - _price;\n    retailItems[_upc][baleId][retailId].consumerID.transfer(amountToReturn);\n  }\n\n  /////////////////////////////\n  // state checking modifiers\n  /////////////////////////////\n\n  //\n  // Define a modifier that checks if this bale exists at all yet \n  // In Solidity, accessing a mapping element will always return something (in this case a struct)\n  // but if that element has not been written to (was not created in code) it will have values 0\n  // (in this case all struct elements == 0)\n  //\n  // So, this bale will not exist if the sku is 0\n  //\n  modifier noSuchBale(uint _upc, uint baleId) {\n    require(bales[_upc][baleId].sku == 0);\n    _;\n  }\n\n  // Define a modifier that checks if a bale state is Harvested\n  modifier harvested(uint _upc, uint baleId) {\n    require(bales[_upc][baleId].itemState == State.Harvested);\n    _;\n  }\n\n  // Define a modifier that checks if a bale state is Processed\n  modifier processed(uint _upc, uint baleId) {\n    require(bales[_upc][baleId].itemState == State.Processed);\n    _;\n  }\n  \n  // Define a modifier that checks if a bale state is Sampled\n  modifier sampled(uint _upc, uint baleId) {\n    require(bales[_upc][baleId].itemState == State.Sampled);\n    _;\n  }\n  \n  // Define a modifier that checks if a bale state is SampleRequested\n  modifier sampleRequested(uint _upc, uint baleId) {\n    require(bales[_upc][baleId].itemState == State.SampleRequested);\n    _;\n  }\n  \n  // Define a modifier that checks if the sample state is SentToTester\n  modifier sentToTester(uint _upc, uint baleId, uint sampleId) {\n    require(samples[_upc][baleId][sampleId].itemState == State.SentToTester);\n    _;\n  }\n\n  // Define a modifier that checks if the sample state is ReceivedByTester\n  modifier receivedByTester(uint _upc, uint baleId, uint sampleId) {\n    require(samples[_upc][baleId][sampleId].itemState == State.ReceivedByTester);\n    _;\n  }\n\n  // Define a modifier that checks if the sample state is InTesting  \n  modifier inTesting(uint _upc, uint baleId, uint sampleId) {\n    require(samples[_upc][baleId][sampleId].itemState == State.InTesting);\n    _;\n  }\n\n  // Define a modifier that checks if the bale state is Approved  \n  // Note: As soon as tester approves sample, the state of both the sample and the bale are set to Approved \n  modifier approved(uint _upc, uint baleId) {\n    require(bales[_upc][baleId].itemState == State.Approved);\n    _;\n  }\n\n  // Define a modifier that checks if the bale state is Productized\n  modifier productized(uint _upc, uint baleId) {\n    require(bales[_upc][baleId].itemState == State.Productized);\n    _;\n  }\n\n  // Define a modifier that checks if the bale state is ForSaleByGrower\n  modifier forSaleByGrower(uint _upc, uint baleId) {\n    require(bales[_upc][baleId].itemState == State.ForSaleByGrower);\n    _;\n  }\n\n  // Define a modifier that checks if the bale state is SoldByGrower\n  modifier soldByGrower(uint _upc, uint baleId) {\n    require(bales[_upc][baleId].itemState == State.SoldByGrower);\n    _;\n  }\n\n  // Define a modifier that checks if the bale state is ShippedToDistributor\n  modifier shippedToDistributor(uint _upc, uint baleId) {\n    require(bales[_upc][baleId].itemState == State.ShippedToDistributor);\n    _;\n  }\n\n  // Define a modifier that checks if the bale state is ReceivedByDistributor\n  modifier receivedByDistributor(uint _upc, uint baleId) {\n    require(bales[_upc][baleId].itemState == State.ReceivedByDistributor);\n    _;\n  }\n\n  // Define a modifier that checks if the bale state is ForSaleByDistributor\n  modifier forSaleByDistributor(uint _upc, uint baleId) {\n    require(bales[_upc][baleId].itemState == State.ForSaleByDistributor);\n    _;\n  }\n\n  // Define a modifier that checks if the bale state is SoldByDistributor\n  modifier soldByDistributor(uint _upc, uint baleId) {\n    require(bales[_upc][baleId].itemState == State.SoldByDistributor);\n    _;\n  }\n\n  // Define a modifier that checks if the bale state is ShippedToRetailer\n  modifier shippedToRetailer(uint _upc, uint baleId) {\n    require(bales[_upc][baleId].itemState == State.ShippedToRetailer);\n    _;\n  }\n\n  //\n  // Define a modifier that checks if the bale state is ReceivedByRetailer\n  // This is the final state of the bale\n  //\n  modifier receivedByRetailer(uint _upc, uint baleId) {\n    require(bales[_upc][baleId].itemState == State.ReceivedByRetailer);\n    _;\n  }\n\n  // Define a modifier that checks if the retail item state is ForSaleByRetailer\n  modifier forSaleByRetailer(uint _upc, uint baleId, uint retailId) {\n    require(retailItems[_upc][baleId][retailId].itemState == State.ForSaleByRetailer);\n    _;\n  }\n\n  // Need a function version to get around stack too deep issue                 \n  function forSaleByRetailerFunc(uint _upc, uint baleId, uint retailId) internal view {\n    require(retailItems[_upc][baleId][retailId].itemState == State.ForSaleByRetailer);\n  }\n\n  // Define a modifier that checks if the retail item state is PurchasedByConsumer\n  modifier purchasedByConsumer(uint _upc, uint baleId, uint retailId) {\n    require(retailItems[_upc][baleId][retailId].itemState == State.PurchasedByConsumer);\n    _;\n  }\n\n  //\n  // In the constructor set 'autosku' to 1 and call fillStateDescriptions\n  //\n  constructor() public payable {\n    autosku = 1;\n    fillStateDescriptions(); \n  }\n\n  // Define a function 'kill' if required\n  function kill() onlyOwner public {\n    selfdestruct(owner());\n  }\n\n  /////////////////////////////////////////////\n  // cannabis specific functions\n  /////////////////////////////////////////////\n  function fillStateDescriptions() internal {\n      statesAsStrings[uint(State.Harvested)] = \"Harvested\";\n      statesAsStrings[uint(State.Processed)] = \"Processed\";\n      statesAsStrings[uint(State.Sampled)]   = \"Sampled\";\n      statesAsStrings[uint(State.SampleRequested)]   = \"Sample Requested\";\n      statesAsStrings[uint(State.SentToTester)]   = \"Sent To Tester\";\n      statesAsStrings[uint(State.ReceivedByTester)]   = \"Received By Tester\";\n      statesAsStrings[uint(State.InTesting)]   = \"In Testing\";\n      statesAsStrings[uint(State.Approved)]   = \"Approved\";\n      statesAsStrings[uint(State.Productized)]   = \"Productized\";\n      statesAsStrings[uint(State.ForSaleByGrower)]   = \"For Sale By Grower\";\n      statesAsStrings[uint(State.SoldByGrower)]   = \"Sold By Grower\";\n      statesAsStrings[uint(State.ShippedToDistributor)]   = \"Shipped To Distributor\";\n      statesAsStrings[uint(State.ReceivedByDistributor)]   = \"Received By Distributor\";\n      statesAsStrings[uint(State.ForSaleByDistributor)]   = \"For Sale By Distributor\";\n      statesAsStrings[uint(State.SoldByDistributor)]   = \"Sold By Distributor\";\n      statesAsStrings[uint(State.ShippedToRetailer)]   = \"Shipped To Retailer\";\n      statesAsStrings[uint(State.ReceivedByRetailer)]   = \"Received By Retailer\";\n      statesAsStrings[uint(State.ForSaleByRetailer)]   = \"For Sale By Retailer\";\n      statesAsStrings[uint(State.PurchasedByConsumer)]   = \"Purchased By Consumer\";\n  }\n\n  function getStateString(State state) internal view returns (string memory) {\n      return statesAsStrings[uint(state)];\n  }\n\n  function getStrainFromUPC(uint upc) internal pure returns (Strain) {\n      uint s = upc % 10;\n      if (s <= 2) {\n          return Strain.TrippyPurpleBubblegumHaze;\n      } else if (s <= 5) {\n          return Strain.VulcanMindMelt;\n      } else if (s <= 7) { \n          return Strain.CatatonicCouchlockKush;\n      } else {\n          return Strain.SnoozyWoozy;\n      }\n  }\n\n  function getStrainString(Strain strain) internal pure returns (string memory) {\n      if (strain == Strain.TrippyPurpleBubblegumHaze) {\n          return \"Trippy Purple Bubblegum Haze\";  \n      } else if (strain == Strain.VulcanMindMelt) {\n          return \"Vulcan Mind Melt\";\n      } else if (strain == Strain.CatatonicCouchlockKush) { \n          return \"Catatonic Couchlock Kush\";\n      } else {\n          return \"Snoozy Woozy\";\n      }\n  }\n\n  function setMockTestResultsForStrain(uint upc) internal pure returns ( uint thcPct, uint cbdPct) {\n      Strain strain = getStrainFromUPC(upc);\n      if (strain == Strain.TrippyPurpleBubblegumHaze) {\n          thcPct = 30;\n          cbdPct = 1;\n      } else if (strain == Strain.VulcanMindMelt) { \n          thcPct = 25;\n          cbdPct = 2;\n      } else if (strain == Strain.CatatonicCouchlockKush) { \n          thcPct = 20;\n          cbdPct = 3;\n      } else { \n          // SnoozyWoozy\n          thcPct = 5;\n          cbdPct = 20;\n      }\n  }\n\n  ///////////////////////////////////\n  // action functions\n  ///////////////////////////////////\n\n  // \n  // Define a function 'setGrowerInfo' that sets information aboutthe Farm/Grower \n  // \n  function addGrowerInfo(address _growerID, string memory _originFarmName, string memory _originFarmInformation, \n                       string memory _originFarmLatitude, string  memory _originFarmLongitude) public \n        onlyGrower()\n  {\n    FarmInfo memory farmInfo = FarmInfo({\n      originFarmName: _originFarmName,\n      originFarmInformation: _originFarmInformation,\n      originFarmLatitude: _originFarmLatitude,\n      originFarmLongitude: _originFarmLongitude\n    });\n    farmsInfo[_growerID] = farmInfo;\n  }\n  // \n  // Define a function 'harvestWeed' that allows a grower to mark a bale 'Harvested'\n  // \n  function harvestWeed(uint _upc, uint _baleId, address payable _originGrowerID, string memory _productNotes) public \n        onlyGrower()\n        noSuchBale(_upc,_baleId)\n        returns (uint state, string memory stateStr, string memory strainStr)\n  {\n    Strain strain = getStrainFromUPC(_upc);\n    strainStr = getStrainString(strain);\n    //\n    // Add the new item as part of Harvest\n    //\n    BaleAddresses memory baleAddresses = BaleAddresses({\n      ownerID: _originGrowerID,\n      originGrowerID: _originGrowerID,\n      growerID: _originGrowerID,\n      testerID: address(0),\n      distributorID: address(0),\n      retailerID: address(0)\n    });\n    bales[_upc][_baleId] = BaleItem({\n      sku: autosku,\n      upc: _upc,\n      baleId: _baleId,\n      strainName: strainStr,\n      thcPct: 0,\n      cbdPct: 0,\n      productNotes: _productNotes,\n      growerPrice: 0,\n      distributorPrice: 0,\n      numRetailProducts: 0,\n      itemState: State.Harvested,\n      baleAddresses: baleAddresses\n    });\n\n    // \n    // Increment sku\n    // \n    autosku = autosku + 1;\n\n    // Emit the appropriate event\n    emit Harvested(_upc,_baleId,uint(State.Harvested), stateStr, strainStr);\n\n    stateStr = getStateString(State.Harvested);\n    return (uint(State.Harvested), stateStr, strainStr);\n  }\n\n  //\n  // Define a function 'processtWeed' that allows a grower/farmer to mark an item 'Processed'\n  //\n  function processWeed(uint _upc, uint _baleId) public \n        onlyGrower() \n        harvested(_upc,_baleId) \n        verifyCaller(bales[_upc][_baleId].baleAddresses.originGrowerID)\n        returns (uint state, string memory stateStr)\n  {\n    // Update the appropriate fields\n    bales[_upc][_baleId].itemState = State.Processed;\n    \n    // Emit the appropriate event\n    emit Processed(_upc,_baleId, uint(State.Processed), stateStr);\n\n    stateStr = getStateString(State.Processed);\n    return (uint(State.Processed), stateStr);\n  }\n\n  //\n  // Define a function 'sampleWeed' that creates a sample for testing and allows a grower/farmer to mark bale as 'Sampled'\n  //\n  function sampleWeed(uint _upc, uint _baleId, address payable testerAddr) public \n        onlyGrower() \n        processed(_upc,_baleId) \n        verifyCaller(bales[_upc][_baleId].baleAddresses.originGrowerID)\n        returns (uint state, string memory stateStr, uint newSampleId)\n  {\n    // Update the appropriate fields\n    bales[_upc][_baleId].baleAddresses.testerID =  testerAddr;\n    bales[_upc][_baleId].itemState = State.Sampled;\n    \n    newSampleId = 1;\n    samples[_upc][_baleId][newSampleId] = SampleItem({\n       upc: _upc,\n       baleId: _baleId,\n       sampleId: newSampleId,\n       ownerID: bales[_upc][_baleId].baleAddresses.ownerID,\n       itemState: State.Sampled,\n       testerID: address(0)\n    });\n    samplesForBale[_upc][_baleId].push(samples[_upc][_baleId][newSampleId]);\n\n    // Emit the appropriate event\n    emit Sampled(_upc,_baleId);\n    emit SampleCreated(_upc,_baleId,newSampleId);\n\n    stateStr = getStateString(State.Sampled);\n    return (uint(State.Sampled), stateStr, newSampleId);\n  }\n\n  //\n  // Define a function 'requestSample' that let's the tester request a sample from the bale.\n  // It basically just sets the address for the tester\n  //\n  function requestSample(uint _upc, uint _baleId) public \n        onlyTester() \n        sampled(_upc,_baleId) \n        verifyCaller(bales[_upc][_baleId].baleAddresses.testerID)\n        returns (uint state, string memory stateStr)\n  {\n    // Update the appropriate fields\n    bales[_upc][_baleId].baleAddresses.testerID = msg.sender;\n    bales[_upc][_baleId].itemState = State.SampleRequested;\n    uint sampleId = samplesForBale[_upc][_baleId][0].sampleId;\n    samples[_upc][_baleId][sampleId].itemState = State.SampleRequested;\n    samplesForBale[_upc][_baleId][0].itemState = State.SampleRequested;\n\n    // Emit the appropriate event\n    emit SampleRequested(_upc,_baleId,sampleId);\n\n    stateStr = getStateString(State.SampleRequested);\n    return (uint(State.SampleRequested), stateStr);\n  } \n\n  //\n  // Define a function 'sendSampleToTester' that let's the grower send the sample to the tester.\n  //\n  function sendSampleToTester(uint _upc, uint _baleId, uint _sampleId) public \n        onlyGrower() \n        sampleRequested(_upc,_baleId) \n        verifyCaller(bales[_upc][_baleId].baleAddresses.originGrowerID)\n        returns (uint state, string memory stateStr)\n  {\n    // Update the appropriate fields\n    bales[_upc][_baleId].itemState = State.SentToTester;\n    samples[_upc][_baleId][_sampleId].itemState = State.SentToTester;   \n\n    // Emit the appropriate event\n    emit SentToTester(_upc,_baleId,_sampleId);\n\n    stateStr = getStateString(State.SentToTester);\n    return (uint(State.SentToTester), stateStr);\n  } \n\n  //\n  // Define a function 'receivedByTester' that let's the tester receive the sample.\n  //\n  function setReceivedByTester(uint _upc, uint _baleId, uint _sampleId) public \n        onlyTester() \n        sentToTester(_upc,_baleId,_sampleId) \n        verifyCaller(bales[_upc][_baleId].baleAddresses.testerID)\n        returns (uint state, string memory stateStr)\n  {\n    // Update the appropriate fields\n    bales[_upc][_baleId].itemState = State.ReceivedByTester;\n    samples[_upc][_baleId][_sampleId].itemState = State.ReceivedByTester;   \n\n    // Emit the appropriate event\n    emit ReceivedByTester(_upc,_baleId,_sampleId);\n\n    stateStr = getStateString(State.ReceivedByTester);\n    return (uint(State.ReceivedByTester), stateStr);\n  }\n \n  //\n  // Define a function 'testSample' that let's the tester start testing the sample  \n  //\n  function testSample(uint _upc, uint _baleId, uint _sampleId) public \n        onlyTester() \n        receivedByTester(_upc,_baleId,_sampleId) \n        verifyCaller(bales[_upc][_baleId].baleAddresses.testerID)\n        returns (uint state, string memory stateStr)\n  {\n    // Update the appropriate fields\n    bales[_upc][_baleId].itemState = State.InTesting;    \n    samples[_upc][_baleId][_sampleId].itemState = State.InTesting;          \n\n    // Emit the appropriate event\n    emit InTesting(_upc,_baleId,_sampleId);\n\n    stateStr = getStateString(State.InTesting);\n    return (uint(State.InTesting), stateStr);\n\n  } \n\n  //\n  // Define a function 'approveSample' that let's the tester approve the sample and bale\n  // It also uses (Mock) test results to set THC and CBD content\n  //\n  function approveSample(uint _upc, uint _baleId, uint _sampleId) public \n        onlyTester() \n        inTesting(_upc,_baleId,_sampleId) \n        verifyCaller(bales[_upc][_baleId].baleAddresses.testerID)\n        returns (uint state, string memory stateStr, uint thcPct, uint cbdPct)\n  {\n    (thcPct, cbdPct) = setMockTestResultsForStrain(_upc);\n\n    // Update the appropriate fields\n    samples[_upc][_baleId][_sampleId].itemState = State.Approved;\n    bales[_upc][_baleId].thcPct = thcPct;        \n    bales[_upc][_baleId].cbdPct = cbdPct;        \n    bales[_upc][_baleId].itemState = State.Approved;\n\n    // Emit the appropriate event\n    emit Approved(_upc,_baleId,_sampleId);\n\n    stateStr = getStateString(State.Approved);\n    return (uint(State.Approved), stateStr, thcPct, cbdPct);\n  } \n\n  //\n  // Define a function 'productize' that allows a grower to create retail-sized packages from the bale\n  // and mark an item 'Productized'\n  //\n  function productize(uint _upc, uint _baleId ) public \n        onlyGrower() \n        approved(_upc,_baleId) \n        verifyCaller(bales[_upc][_baleId].baleAddresses.originGrowerID)\n        returns (uint state, string memory stateStr, uint numRetailProducts)\n  {\n    //\n    // create 10 retail sized units (yes in real life we would be creating many more!)\n    //\n    for (uint retailId = 1; retailId <=10; retailId++) {\n        retailItems[_upc][_baleId][retailId] = RetailItem({\n            sku: bales[_upc][_baleId].sku,\n            upc: _upc,\n            baleId: _baleId,\n            retailId: retailId,\n            retailPrice: 0,\n            ownerID: bales[_upc][_baleId].baleAddresses.ownerID,\n            itemState: State.Productized,\n            consumerID: address(0)\n         });\n         retailItemsForBale[_upc][_baleId].push(retailItems[_upc][_baleId][retailId]);\n\n         // Emit the appropriate creation event\n         emit RetailItemCreated(_upc,_baleId,retailId);\n    }\n    // Update the appropriate fields\n    numRetailProducts=10;\n    bales[_upc][_baleId].numRetailProducts = numRetailProducts;\n    bales[_upc][_baleId].itemState = State.Productized;\n  \n    // emit Productized event \n    emit Productized(_upc,_baleId);\n\n    stateStr = getStateString(State.Productized);\n    return (uint(State.Productized), stateStr, numRetailProducts);\n  }\n\n  //\n  // Define a function 'setForSaleByGrower' that allows a grower to mark an item 'ForSaleByGrower'\n  //\n  function setForSaleByGrower(uint _upc, uint _baleId, uint _price) public \n        onlyGrower() \n        productized(_upc,_baleId) \n        verifyCaller(bales[_upc][_baleId].baleAddresses.originGrowerID)\n        returns (uint state, string memory stateStr, uint growerPrice)\n  {\n    // Update the appropriate fields\n    bales[_upc][_baleId].itemState = State.ForSaleByGrower;\n    growerPrice = _price;\n    bales[_upc][_baleId].growerPrice = growerPrice;\n    \n    // Emit the appropriate event\n    emit ForSaleByGrower(_upc,_baleId, growerPrice);\n\n    stateStr = getStateString(State.ForSaleByGrower);\n    return (uint(State.ForSaleByGrower), stateStr, growerPrice);\n  }\n\n  //\n  // Define a function 'buyBaleFromGrower' that allows the distributor to mark an item 'SoldByGrower'\n  // Use the above defined modifiers to check if the item is available for sale, if the buyer has paid enough, \n  // and any excess ether sent is refunded back to the buyer\n  //\n  function buyBaleFromGrower(uint _upc, uint _baleId) public payable\n        onlyDistributor() \n        forSaleByGrower(_upc,_baleId)\n        paidEnough(bales[_upc][_baleId].growerPrice)\n        checkGrowerValue(_upc,_baleId)\n        returns (uint state, string memory stateStr)\n  {\n    // Update the appropriate fields - ownerID, distributorID, itemState\n    bales[_upc][_baleId].baleAddresses.ownerID = msg.sender;\n    bales[_upc][_baleId].baleAddresses.distributorID = msg.sender;\n    bales[_upc][_baleId].itemState = State.SoldByGrower;\n    \n    // Transfer money to grower\n    bales[_upc][_baleId].baleAddresses.originGrowerID.transfer(bales[_upc][_baleId].growerPrice);\n    \n    // emit the appropriate event\n    emit SoldByGrower(_upc,_baleId);\n\n    stateStr = getStateString(State.SoldByGrower);\n    return (uint(State.SoldByGrower), stateStr);\n  }\n\n  //\n  // Define a function 'shipToDistributor' that allows the distributor to mark an item 'Shipped'\n  // Use the above modifers to check if the item is sold\n  //\n  function shipToDistributor(uint _upc, uint _baleId) public \n        onlyGrower()\n        soldByGrower(_upc,_baleId)\n        verifyCaller(bales[_upc][_baleId].baleAddresses.originGrowerID)\n        returns (uint state, string memory stateStr)\n  {\n    // Update the appropriate fields\n    bales[_upc][_baleId].itemState = State.ShippedToDistributor;\n    \n    // Emit the appropriate event\n    emit ShippedToDistributor(_upc,_baleId);\n\n    stateStr = getStateString(State.ShippedToDistributor);\n    return (uint(State.ShippedToDistributor), stateStr);\n  }\n\n  //\n  // Define a function 'receivedByDistributor' that allows the distributor to mark an item 'ReceivedByDistributor'\n  // Use the above modifers to check if the item is shipped\n  //\n  function setReceivedByDistributor(uint _upc, uint _baleId) public \n        onlyDistributor()\n        shippedToDistributor(_upc,_baleId)\n        verifyCaller(bales[_upc][_baleId].baleAddresses.distributorID)\n        returns (uint state, string memory stateStr)\n  {\n    // Update the appropriate fields\n    bales[_upc][_baleId].itemState = State.ReceivedByDistributor;\n    \n    // Emit the appropriate event\n    emit ReceivedByDistributor(_upc,_baleId);\n\n    stateStr = getStateString(State.ReceivedByDistributor);\n    return (uint(State.ReceivedByDistributor), stateStr);\n  }\n\n  //\n  // Define a function 'setForSaleByDistributor' that allows a distributor to mark an item 'ForSaleByDistributor'\n  //\n  function setForSaleByDistributor(uint _upc, uint _baleId, uint _distributorPrice) public \n        onlyDistributor()\n        receivedByDistributor(_upc,_baleId)\n        verifyCaller(bales[_upc][_baleId].baleAddresses.distributorID)\n        returns (uint state, string memory stateStr, uint distributorPrice)\n  {\n    // Update the appropriate fields\n    bales[_upc][_baleId].itemState = State.ForSaleByDistributor;\n    distributorPrice = _distributorPrice;\n    bales[_upc][_baleId].distributorPrice = distributorPrice;\n    \n    // Emit the appropriate event\n    emit ForSaleByDistributor(_upc,_baleId, distributorPrice);\n\n    stateStr = getStateString(State.ForSaleByDistributor);\n    return (uint(State.ForSaleByDistributor), stateStr, distributorPrice);\n  }\n\n  //\n  // Define a function 'buyBaleFromDistributor' that allows the distributor to mark an item 'SoldByDistributor'\n  // Use the above defined modifiers to check if the item is available for sale, if the buyer has paid enough, \n  // and any excess ether sent is refunded back to the buyer\n  //\n  function buyBaleFromDistributor(uint _upc, uint _baleId) public payable\n        onlyRetailer() \n        forSaleByDistributor(_upc,_baleId)\n        paidEnough(bales[_upc][_baleId].distributorPrice)\n        checkDistributorValue(_upc,_baleId)\n        returns (uint state, string memory stateStr)\n  {\n    // Update the appropriate fields - ownerID, retailerID, itemState\n    bales[_upc][_baleId].baleAddresses.ownerID = msg.sender;\n    bales[_upc][_baleId].baleAddresses.retailerID = msg.sender;\n    bales[_upc][_baleId].itemState = State.SoldByDistributor;\n    \n    // Transfer money to distributor\n    bales[_upc][_baleId].baleAddresses.distributorID.transfer(bales[_upc][_baleId].distributorPrice);\n    \n    // emit the appropriate event\n    emit SoldByDistributor(_upc,_baleId);\n\n    stateStr = getStateString(State.SoldByDistributor);\n    return (uint(State.SoldByDistributor), stateStr);\n  }\n\n  //\n  // Define a function 'shipToRetailer' that allows the distributor to mark an item 'ShippedToRetailer'\n  // Use the above modifers to check if the item is sold\n  //\n  function shipToRetailer(uint _upc, uint _baleId) public \n        onlyDistributor()\n        soldByDistributor(_upc,_baleId)\n        verifyCaller(bales[_upc][_baleId].baleAddresses.distributorID)\n        returns (uint state, string memory stateStr)\n  {\n    // Update the appropriate fields\n    bales[_upc][_baleId].itemState = State.ShippedToRetailer;\n    \n    // Emit the appropriate event\n    emit ShippedToRetailer(_upc,_baleId);\n\n    stateStr = getStateString(State.ShippedToRetailer);\n    return (uint(State.ShippedToRetailer), stateStr);\n  }\n\n  //\n  // Define a function 'receivedByRetailer' that allows the retailer to mark an item 'ReceivedByRetailer'\n  // Use the above modifers to check if the item is shipped\n  //\n  function setReceivedByRetailer(uint _upc, uint _baleId) public \n        onlyRetailer()\n        shippedToRetailer(_upc,_baleId)\n        verifyCaller(bales[_upc][_baleId].baleAddresses.retailerID)\n        returns (uint state, string memory stateStr)\n  {\n    // Update the appropriate fields\n    bales[_upc][_baleId].itemState = State.ReceivedByRetailer;\n    \n    // Emit the appropriate event\n    emit ReceivedByRetailer(_upc,_baleId);\n\n    stateStr = getStateString(State.ReceivedByRetailer);\n    return (uint(State.ReceivedByRetailer), stateStr);\n  }\n\n  //\n  // Define a function 'setForSaleByRetailer' that allows a distributor to mark the retail items as 'ForSaleByRetailer'\n  //\n  function setForSaleByRetailer(uint _upc, uint _baleId, uint _retailPrice) public \n        onlyRetailer()\n        receivedByRetailer(_upc,_baleId)\n        verifyCaller(bales[_upc][_baleId].baleAddresses.retailerID)\n        returns (uint state, string memory stateStr, uint retailPrice)\n  {\n    //\n    // set retail price for each item\n    // Apply markup percentage to bale price and divide by number of retail products to get retail price of each retail product\n    //\n    uint retailId;\n    uint n = bales[_upc][_baleId].numRetailProducts;\n    retailPrice = _retailPrice;\n\n    //\n    // Update the appropriate fields on the retail items for this bale\n    //\n    for (uint i = 0; i<n; i++) {\n        retailId = retailItemsForBale[_upc][_baleId][i].retailId;\n        retailItems[_upc][_baleId][retailId].retailPrice = retailPrice;\n        retailItems[_upc][_baleId][retailId].itemState = State.ForSaleByRetailer;\n    \n        // Emit the appropriate event\n        emit ForSaleByRetailer(_upc,_baleId,retailId, retailPrice);\n    }\n\n    bales[_upc][_baleId].itemState = State.ForSaleByRetailer;\n\n    stateStr = getStateString(State.ForSaleByRetailer);\n    return (uint(State.ForSaleByRetailer), stateStr, retailPrice);\n  }\n\n  //\n  // Define a function 'purchaseRetailItem' that allows the consumer to mark an item 'PurchasedByConsumer'\n  // NOTE: We use function versions of modifiers to avoid stack too deep error\n  //\n  function purchaseItem(uint _upc, uint _baleId, uint _retailId) public  payable\n        onlyConsumer()\n        returns (uint state, string memory stateStr)\n  {\n    //\n    // modifier function checks\n    //\n    forSaleByRetailerFunc(_upc,_baleId,_retailId);\n    paidEnoughFunc(retailItems[_upc][_baleId][_retailId].retailPrice);\n    checkRetailerValueFunc(_upc,_baleId,_retailId);\n\n    // Update the appropriate fields - ownerID, retailerID, itemState\n    retailItems[_upc][_baleId][_retailId].ownerID = msg.sender;\n    retailItems[_upc][_baleId][_retailId].consumerID = msg.sender;\n    retailItems[_upc][_baleId][_retailId].itemState = State.PurchasedByConsumer;\n    \n    // Transfer money to retailer\n    bales[_upc][_baleId].baleAddresses.retailerID.transfer(retailItems[_upc][_baleId][_retailId].retailPrice);\n    \n    // emit the appropriate event\n    emit PurchasedByConsumer(_upc,_baleId,_retailId);\n\n    stateStr = getStateString(State.ForSaleByRetailer);\n    return (uint(State.ForSaleByRetailer), stateStr);\n  }\n\n\n//////////\n\n\n}\n",
  "sourcePath": "/Users/marcilgen/work/blockchain/UdacityNanodegree/project3/cannabis-supply-chain/app/contracts/base/SupplyChainBase.sol",
  "compiler": {
    "name": "solc",
    "version": "0.5.16+commit.9c3226ce.Emscripten.clang"
  },
  "schemaVersion": "3.4.2",
  "updatedAt": "2021-08-10T19:08:27.070Z",
  "networkType": "ethereum",
  "devdoc": {
    "methods": {}
  },
  "userdoc": {
    "methods": {
      "addGrowerInfo(address,string,string,string,string)": {
        "notice": "////////////////////////////////"
      },
      "isOwner()": {
        "notice": "Check if the calling address is the owner of the contract"
      },
      "owner()": {
        "notice": "Look up the address of the owner"
      },
      "renounceOwnership()": {
        "notice": "Define a function to renounce ownerhip"
      },
      "transferOwnership(address)": {
        "notice": "Define a public function to transfer ownership"
      }
    }
  }
}