{
  "contractName": "SupplyChain",
  "abi": [
    {
      "anonymous": false,
      "inputs": [
        {
          "indexed": false,
          "internalType": "uint256",
          "name": "upc",
          "type": "uint256"
        },
        {
          "indexed": false,
          "internalType": "uint256",
          "name": "baleId",
          "type": "uint256"
        },
        {
          "indexed": false,
          "internalType": "uint256",
          "name": "sampleId",
          "type": "uint256"
        }
      ],
      "name": "Approved",
      "type": "event"
    },
    {
      "anonymous": false,
      "inputs": [
        {
          "indexed": true,
          "internalType": "address",
          "name": "account",
          "type": "address"
        }
      ],
      "name": "ConsumerAdded",
      "type": "event"
    },
    {
      "anonymous": false,
      "inputs": [
        {
          "indexed": true,
          "internalType": "address",
          "name": "account",
          "type": "address"
        }
      ],
      "name": "ConsumerRemoved",
      "type": "event"
    },
    {
      "anonymous": false,
      "inputs": [
        {
          "indexed": true,
          "internalType": "address",
          "name": "account",
          "type": "address"
        }
      ],
      "name": "DistributorAdded",
      "type": "event"
    },
    {
      "anonymous": false,
      "inputs": [
        {
          "indexed": true,
          "internalType": "address",
          "name": "account",
          "type": "address"
        }
      ],
      "name": "DistributorRemoved",
      "type": "event"
    },
    {
      "anonymous": false,
      "inputs": [
        {
          "indexed": false,
          "internalType": "uint256",
          "name": "upc",
          "type": "uint256"
        },
        {
          "indexed": false,
          "internalType": "uint256",
          "name": "baleId",
          "type": "uint256"
        },
        {
          "indexed": false,
          "internalType": "uint256",
          "name": "distributorPrice",
          "type": "uint256"
        }
      ],
      "name": "ForSaleByDistributor",
      "type": "event"
    },
    {
      "anonymous": false,
      "inputs": [
        {
          "indexed": false,
          "internalType": "uint256",
          "name": "upc",
          "type": "uint256"
        },
        {
          "indexed": false,
          "internalType": "uint256",
          "name": "baleId",
          "type": "uint256"
        },
        {
          "indexed": false,
          "internalType": "uint256",
          "name": "growerPrice",
          "type": "uint256"
        }
      ],
      "name": "ForSaleByGrower",
      "type": "event"
    },
    {
      "anonymous": false,
      "inputs": [
        {
          "indexed": false,
          "internalType": "uint256",
          "name": "upc",
          "type": "uint256"
        },
        {
          "indexed": false,
          "internalType": "uint256",
          "name": "baleId",
          "type": "uint256"
        },
        {
          "indexed": false,
          "internalType": "uint256",
          "name": "retailId",
          "type": "uint256"
        },
        {
          "indexed": false,
          "internalType": "uint256",
          "name": "retailPrice",
          "type": "uint256"
        }
      ],
      "name": "ForSaleByRetailer",
      "type": "event"
    },
    {
      "anonymous": false,
      "inputs": [
        {
          "indexed": true,
          "internalType": "address",
          "name": "account",
          "type": "address"
        }
      ],
      "name": "GrowerAdded",
      "type": "event"
    },
    {
      "anonymous": false,
      "inputs": [
        {
          "indexed": true,
          "internalType": "address",
          "name": "account",
          "type": "address"
        }
      ],
      "name": "GrowerRemoved",
      "type": "event"
    },
    {
      "anonymous": false,
      "inputs": [
        {
          "indexed": false,
          "internalType": "uint256",
          "name": "upc",
          "type": "uint256"
        },
        {
          "indexed": false,
          "internalType": "uint256",
          "name": "baleId",
          "type": "uint256"
        },
        {
          "indexed": false,
          "internalType": "uint256",
          "name": "_state",
          "type": "uint256"
        },
        {
          "indexed": false,
          "internalType": "string",
          "name": "_stateStr",
          "type": "string"
        },
        {
          "indexed": false,
          "internalType": "string",
          "name": "_strainStr",
          "type": "string"
        }
      ],
      "name": "Harvested",
      "type": "event"
    },
    {
      "anonymous": false,
      "inputs": [
        {
          "indexed": false,
          "internalType": "uint256",
          "name": "upc",
          "type": "uint256"
        },
        {
          "indexed": false,
          "internalType": "uint256",
          "name": "baleId",
          "type": "uint256"
        },
        {
          "indexed": false,
          "internalType": "uint256",
          "name": "sampleId",
          "type": "uint256"
        }
      ],
      "name": "InTesting",
      "type": "event"
    },
    {
      "anonymous": false,
      "inputs": [
        {
          "indexed": false,
          "internalType": "uint256",
          "name": "upc",
          "type": "uint256"
        },
        {
          "indexed": false,
          "internalType": "uint256",
          "name": "baleId",
          "type": "uint256"
        },
        {
          "indexed": false,
          "internalType": "uint256",
          "name": "_state",
          "type": "uint256"
        },
        {
          "indexed": false,
          "internalType": "string",
          "name": "_stateStr",
          "type": "string"
        }
      ],
      "name": "Processed",
      "type": "event"
    },
    {
      "anonymous": false,
      "inputs": [
        {
          "indexed": false,
          "internalType": "uint256",
          "name": "upc",
          "type": "uint256"
        },
        {
          "indexed": false,
          "internalType": "uint256",
          "name": "baleId",
          "type": "uint256"
        }
      ],
      "name": "Productized",
      "type": "event"
    },
    {
      "anonymous": false,
      "inputs": [
        {
          "indexed": false,
          "internalType": "uint256",
          "name": "upc",
          "type": "uint256"
        },
        {
          "indexed": false,
          "internalType": "uint256",
          "name": "baleId",
          "type": "uint256"
        },
        {
          "indexed": false,
          "internalType": "uint256",
          "name": "retailId",
          "type": "uint256"
        }
      ],
      "name": "PurchasedByConsumer",
      "type": "event"
    },
    {
      "anonymous": false,
      "inputs": [
        {
          "indexed": false,
          "internalType": "uint256",
          "name": "upc",
          "type": "uint256"
        },
        {
          "indexed": false,
          "internalType": "uint256",
          "name": "baleId",
          "type": "uint256"
        }
      ],
      "name": "ReceivedByDistributor",
      "type": "event"
    },
    {
      "anonymous": false,
      "inputs": [
        {
          "indexed": false,
          "internalType": "uint256",
          "name": "upc",
          "type": "uint256"
        },
        {
          "indexed": false,
          "internalType": "uint256",
          "name": "baleId",
          "type": "uint256"
        }
      ],
      "name": "ReceivedByRetailer",
      "type": "event"
    },
    {
      "anonymous": false,
      "inputs": [
        {
          "indexed": false,
          "internalType": "uint256",
          "name": "upc",
          "type": "uint256"
        },
        {
          "indexed": false,
          "internalType": "uint256",
          "name": "baleId",
          "type": "uint256"
        },
        {
          "indexed": false,
          "internalType": "uint256",
          "name": "sampleId",
          "type": "uint256"
        }
      ],
      "name": "ReceivedByTester",
      "type": "event"
    },
    {
      "anonymous": false,
      "inputs": [
        {
          "indexed": false,
          "internalType": "uint256",
          "name": "upc",
          "type": "uint256"
        },
        {
          "indexed": false,
          "internalType": "uint256",
          "name": "baleId",
          "type": "uint256"
        },
        {
          "indexed": false,
          "internalType": "uint256",
          "name": "retailId",
          "type": "uint256"
        }
      ],
      "name": "RetailItemCreated",
      "type": "event"
    },
    {
      "anonymous": false,
      "inputs": [
        {
          "indexed": true,
          "internalType": "address",
          "name": "account",
          "type": "address"
        }
      ],
      "name": "RetailerAdded",
      "type": "event"
    },
    {
      "anonymous": false,
      "inputs": [
        {
          "indexed": true,
          "internalType": "address",
          "name": "account",
          "type": "address"
        }
      ],
      "name": "RetailerRemoved",
      "type": "event"
    },
    {
      "anonymous": false,
      "inputs": [
        {
          "indexed": false,
          "internalType": "uint256",
          "name": "upc",
          "type": "uint256"
        },
        {
          "indexed": false,
          "internalType": "uint256",
          "name": "baleId",
          "type": "uint256"
        },
        {
          "indexed": false,
          "internalType": "uint256",
          "name": "sampleId",
          "type": "uint256"
        }
      ],
      "name": "SampleCreated",
      "type": "event"
    },
    {
      "anonymous": false,
      "inputs": [
        {
          "indexed": false,
          "internalType": "uint256",
          "name": "upc",
          "type": "uint256"
        },
        {
          "indexed": false,
          "internalType": "uint256",
          "name": "baleId",
          "type": "uint256"
        },
        {
          "indexed": false,
          "internalType": "uint256",
          "name": "sampleId",
          "type": "uint256"
        }
      ],
      "name": "SampleRequested",
      "type": "event"
    },
    {
      "anonymous": false,
      "inputs": [
        {
          "indexed": false,
          "internalType": "uint256",
          "name": "upc",
          "type": "uint256"
        },
        {
          "indexed": false,
          "internalType": "uint256",
          "name": "baleId",
          "type": "uint256"
        }
      ],
      "name": "Sampled",
      "type": "event"
    },
    {
      "anonymous": false,
      "inputs": [
        {
          "indexed": false,
          "internalType": "uint256",
          "name": "upc",
          "type": "uint256"
        },
        {
          "indexed": false,
          "internalType": "uint256",
          "name": "baleId",
          "type": "uint256"
        },
        {
          "indexed": false,
          "internalType": "uint256",
          "name": "sampleId",
          "type": "uint256"
        }
      ],
      "name": "SentToTester",
      "type": "event"
    },
    {
      "anonymous": false,
      "inputs": [
        {
          "indexed": false,
          "internalType": "uint256",
          "name": "upc",
          "type": "uint256"
        },
        {
          "indexed": false,
          "internalType": "uint256",
          "name": "baleId",
          "type": "uint256"
        }
      ],
      "name": "ShippedToDistributor",
      "type": "event"
    },
    {
      "anonymous": false,
      "inputs": [
        {
          "indexed": false,
          "internalType": "uint256",
          "name": "upc",
          "type": "uint256"
        },
        {
          "indexed": false,
          "internalType": "uint256",
          "name": "baleId",
          "type": "uint256"
        }
      ],
      "name": "ShippedToRetailer",
      "type": "event"
    },
    {
      "anonymous": false,
      "inputs": [
        {
          "indexed": false,
          "internalType": "uint256",
          "name": "upc",
          "type": "uint256"
        },
        {
          "indexed": false,
          "internalType": "uint256",
          "name": "baleId",
          "type": "uint256"
        }
      ],
      "name": "SoldByDistributor",
      "type": "event"
    },
    {
      "anonymous": false,
      "inputs": [
        {
          "indexed": false,
          "internalType": "uint256",
          "name": "upc",
          "type": "uint256"
        },
        {
          "indexed": false,
          "internalType": "uint256",
          "name": "baleId",
          "type": "uint256"
        }
      ],
      "name": "SoldByGrower",
      "type": "event"
    },
    {
      "anonymous": false,
      "inputs": [
        {
          "indexed": true,
          "internalType": "address",
          "name": "account",
          "type": "address"
        }
      ],
      "name": "TesterAdded",
      "type": "event"
    },
    {
      "anonymous": false,
      "inputs": [
        {
          "indexed": true,
          "internalType": "address",
          "name": "account",
          "type": "address"
        }
      ],
      "name": "TesterRemoved",
      "type": "event"
    },
    {
      "anonymous": false,
      "inputs": [
        {
          "indexed": true,
          "internalType": "address payable",
          "name": "oldOwner",
          "type": "address"
        },
        {
          "indexed": true,
          "internalType": "address payable",
          "name": "newOwner",
          "type": "address"
        }
      ],
      "name": "TransferOwnership",
      "type": "event"
    },
    {
      "constant": false,
      "inputs": [
        {
          "internalType": "address",
          "name": "account",
          "type": "address"
        }
      ],
      "name": "addConsumer",
      "outputs": [],
      "payable": false,
      "stateMutability": "nonpayable",
      "type": "function"
    },
    {
      "constant": false,
      "inputs": [
        {
          "internalType": "address",
          "name": "account",
          "type": "address"
        }
      ],
      "name": "addDistributor",
      "outputs": [],
      "payable": false,
      "stateMutability": "nonpayable",
      "type": "function"
    },
    {
      "constant": false,
      "inputs": [
        {
          "internalType": "address",
          "name": "account",
          "type": "address"
        }
      ],
      "name": "addGrower",
      "outputs": [],
      "payable": false,
      "stateMutability": "nonpayable",
      "type": "function"
    },
    {
      "constant": false,
      "inputs": [
        {
          "internalType": "address",
          "name": "_growerID",
          "type": "address"
        },
        {
          "internalType": "string",
          "name": "_originFarmName",
          "type": "string"
        },
        {
          "internalType": "string",
          "name": "_originFarmInformation",
          "type": "string"
        },
        {
          "internalType": "string",
          "name": "_originFarmLatitude",
          "type": "string"
        },
        {
          "internalType": "string",
          "name": "_originFarmLongitude",
          "type": "string"
        }
      ],
      "name": "addGrowerInfo",
      "outputs": [],
      "payable": false,
      "stateMutability": "nonpayable",
      "type": "function"
    },
    {
      "constant": false,
      "inputs": [
        {
          "internalType": "address",
          "name": "account",
          "type": "address"
        }
      ],
      "name": "addRetailer",
      "outputs": [],
      "payable": false,
      "stateMutability": "nonpayable",
      "type": "function"
    },
    {
      "constant": false,
      "inputs": [
        {
          "internalType": "address",
          "name": "account",
          "type": "address"
        }
      ],
      "name": "addTester",
      "outputs": [],
      "payable": false,
      "stateMutability": "nonpayable",
      "type": "function"
    },
    {
      "constant": false,
      "inputs": [
        {
          "internalType": "uint256",
          "name": "_upc",
          "type": "uint256"
        },
        {
          "internalType": "uint256",
          "name": "_baleId",
          "type": "uint256"
        },
        {
          "internalType": "uint256",
          "name": "_sampleId",
          "type": "uint256"
        }
      ],
      "name": "approveSample",
      "outputs": [
        {
          "internalType": "uint256",
          "name": "state",
          "type": "uint256"
        },
        {
          "internalType": "string",
          "name": "stateStr",
          "type": "string"
        },
        {
          "internalType": "uint256",
          "name": "thcPct",
          "type": "uint256"
        },
        {
          "internalType": "uint256",
          "name": "cbdPct",
          "type": "uint256"
        }
      ],
      "payable": false,
      "stateMutability": "nonpayable",
      "type": "function"
    },
    {
      "constant": false,
      "inputs": [
        {
          "internalType": "uint256",
          "name": "_upc",
          "type": "uint256"
        },
        {
          "internalType": "uint256",
          "name": "_baleId",
          "type": "uint256"
        }
      ],
      "name": "buyBaleFromDistributor",
      "outputs": [
        {
          "internalType": "uint256",
          "name": "state",
          "type": "uint256"
        },
        {
          "internalType": "string",
          "name": "stateStr",
          "type": "string"
        }
      ],
      "payable": true,
      "stateMutability": "payable",
      "type": "function"
    },
    {
      "constant": false,
      "inputs": [
        {
          "internalType": "uint256",
          "name": "_upc",
          "type": "uint256"
        },
        {
          "internalType": "uint256",
          "name": "_baleId",
          "type": "uint256"
        }
      ],
      "name": "buyBaleFromGrower",
      "outputs": [
        {
          "internalType": "uint256",
          "name": "state",
          "type": "uint256"
        },
        {
          "internalType": "string",
          "name": "stateStr",
          "type": "string"
        }
      ],
      "payable": true,
      "stateMutability": "payable",
      "type": "function"
    },
    {
      "constant": false,
      "inputs": [
        {
          "internalType": "uint256",
          "name": "_upc",
          "type": "uint256"
        },
        {
          "internalType": "uint256",
          "name": "_baleId",
          "type": "uint256"
        },
        {
          "internalType": "address payable",
          "name": "_originGrowerID",
          "type": "address"
        },
        {
          "internalType": "string",
          "name": "_productNotes",
          "type": "string"
        }
      ],
      "name": "harvestWeed",
      "outputs": [
        {
          "internalType": "uint256",
          "name": "state",
          "type": "uint256"
        },
        {
          "internalType": "string",
          "name": "stateStr",
          "type": "string"
        },
        {
          "internalType": "string",
          "name": "strainStr",
          "type": "string"
        }
      ],
      "payable": false,
      "stateMutability": "nonpayable",
      "type": "function"
    },
    {
      "constant": true,
      "inputs": [
        {
          "internalType": "address",
          "name": "account",
          "type": "address"
        }
      ],
      "name": "isConsumer",
      "outputs": [
        {
          "internalType": "bool",
          "name": "",
          "type": "bool"
        }
      ],
      "payable": false,
      "stateMutability": "view",
      "type": "function"
    },
    {
      "constant": true,
      "inputs": [
        {
          "internalType": "address",
          "name": "account",
          "type": "address"
        }
      ],
      "name": "isDistributor",
      "outputs": [
        {
          "internalType": "bool",
          "name": "",
          "type": "bool"
        }
      ],
      "payable": false,
      "stateMutability": "view",
      "type": "function"
    },
    {
      "constant": true,
      "inputs": [
        {
          "internalType": "address",
          "name": "account",
          "type": "address"
        }
      ],
      "name": "isGrower",
      "outputs": [
        {
          "internalType": "bool",
          "name": "",
          "type": "bool"
        }
      ],
      "payable": false,
      "stateMutability": "view",
      "type": "function"
    },
    {
      "constant": true,
      "inputs": [],
      "name": "isOwner",
      "outputs": [
        {
          "internalType": "bool",
          "name": "",
          "type": "bool"
        }
      ],
      "payable": false,
      "stateMutability": "view",
      "type": "function"
    },
    {
      "constant": true,
      "inputs": [
        {
          "internalType": "address",
          "name": "account",
          "type": "address"
        }
      ],
      "name": "isRetailer",
      "outputs": [
        {
          "internalType": "bool",
          "name": "",
          "type": "bool"
        }
      ],
      "payable": false,
      "stateMutability": "view",
      "type": "function"
    },
    {
      "constant": true,
      "inputs": [
        {
          "internalType": "address",
          "name": "account",
          "type": "address"
        }
      ],
      "name": "isTester",
      "outputs": [
        {
          "internalType": "bool",
          "name": "",
          "type": "bool"
        }
      ],
      "payable": false,
      "stateMutability": "view",
      "type": "function"
    },
    {
      "constant": false,
      "inputs": [],
      "name": "kill",
      "outputs": [],
      "payable": false,
      "stateMutability": "nonpayable",
      "type": "function"
    },
    {
      "constant": true,
      "inputs": [],
      "name": "owner",
      "outputs": [
        {
          "internalType": "address payable",
          "name": "",
          "type": "address"
        }
      ],
      "payable": false,
      "stateMutability": "view",
      "type": "function"
    },
    {
      "constant": false,
      "inputs": [
        {
          "internalType": "uint256",
          "name": "_upc",
          "type": "uint256"
        },
        {
          "internalType": "uint256",
          "name": "_baleId",
          "type": "uint256"
        }
      ],
      "name": "processWeed",
      "outputs": [
        {
          "internalType": "uint256",
          "name": "state",
          "type": "uint256"
        },
        {
          "internalType": "string",
          "name": "stateStr",
          "type": "string"
        }
      ],
      "payable": false,
      "stateMutability": "nonpayable",
      "type": "function"
    },
    {
      "constant": false,
      "inputs": [
        {
          "internalType": "uint256",
          "name": "_upc",
          "type": "uint256"
        },
        {
          "internalType": "uint256",
          "name": "_baleId",
          "type": "uint256"
        }
      ],
      "name": "productize",
      "outputs": [
        {
          "internalType": "uint256",
          "name": "state",
          "type": "uint256"
        },
        {
          "internalType": "string",
          "name": "stateStr",
          "type": "string"
        },
        {
          "internalType": "uint256",
          "name": "numRetailProducts",
          "type": "uint256"
        }
      ],
      "payable": false,
      "stateMutability": "nonpayable",
      "type": "function"
    },
    {
      "constant": false,
      "inputs": [
        {
          "internalType": "uint256",
          "name": "_upc",
          "type": "uint256"
        },
        {
          "internalType": "uint256",
          "name": "_baleId",
          "type": "uint256"
        },
        {
          "internalType": "uint256",
          "name": "_retailId",
          "type": "uint256"
        }
      ],
      "name": "purchaseItem",
      "outputs": [
        {
          "internalType": "uint256",
          "name": "state",
          "type": "uint256"
        },
        {
          "internalType": "string",
          "name": "stateStr",
          "type": "string"
        }
      ],
      "payable": true,
      "stateMutability": "payable",
      "type": "function"
    },
    {
      "constant": false,
      "inputs": [],
      "name": "removeConsumer",
      "outputs": [],
      "payable": false,
      "stateMutability": "nonpayable",
      "type": "function"
    },
    {
      "constant": false,
      "inputs": [],
      "name": "removeDistributor",
      "outputs": [],
      "payable": false,
      "stateMutability": "nonpayable",
      "type": "function"
    },
    {
      "constant": false,
      "inputs": [],
      "name": "removeGrower",
      "outputs": [],
      "payable": false,
      "stateMutability": "nonpayable",
      "type": "function"
    },
    {
      "constant": false,
      "inputs": [],
      "name": "removeRetailer",
      "outputs": [],
      "payable": false,
      "stateMutability": "nonpayable",
      "type": "function"
    },
    {
      "constant": false,
      "inputs": [],
      "name": "removeTester",
      "outputs": [],
      "payable": false,
      "stateMutability": "nonpayable",
      "type": "function"
    },
    {
      "constant": false,
      "inputs": [],
      "name": "renounceOwnership",
      "outputs": [],
      "payable": false,
      "stateMutability": "nonpayable",
      "type": "function"
    },
    {
      "constant": false,
      "inputs": [
        {
          "internalType": "uint256",
          "name": "_upc",
          "type": "uint256"
        },
        {
          "internalType": "uint256",
          "name": "_baleId",
          "type": "uint256"
        }
      ],
      "name": "requestSample",
      "outputs": [
        {
          "internalType": "uint256",
          "name": "state",
          "type": "uint256"
        },
        {
          "internalType": "string",
          "name": "stateStr",
          "type": "string"
        }
      ],
      "payable": false,
      "stateMutability": "nonpayable",
      "type": "function"
    },
    {
      "constant": false,
      "inputs": [
        {
          "internalType": "uint256",
          "name": "_upc",
          "type": "uint256"
        },
        {
          "internalType": "uint256",
          "name": "_baleId",
          "type": "uint256"
        },
        {
          "internalType": "address payable",
          "name": "testerAddr",
          "type": "address"
        }
      ],
      "name": "sampleWeed",
      "outputs": [
        {
          "internalType": "uint256",
          "name": "state",
          "type": "uint256"
        },
        {
          "internalType": "string",
          "name": "stateStr",
          "type": "string"
        },
        {
          "internalType": "uint256",
          "name": "newSampleId",
          "type": "uint256"
        }
      ],
      "payable": false,
      "stateMutability": "nonpayable",
      "type": "function"
    },
    {
      "constant": false,
      "inputs": [
        {
          "internalType": "uint256",
          "name": "_upc",
          "type": "uint256"
        },
        {
          "internalType": "uint256",
          "name": "_baleId",
          "type": "uint256"
        },
        {
          "internalType": "uint256",
          "name": "_sampleId",
          "type": "uint256"
        }
      ],
      "name": "sendSampleToTester",
      "outputs": [
        {
          "internalType": "uint256",
          "name": "state",
          "type": "uint256"
        },
        {
          "internalType": "string",
          "name": "stateStr",
          "type": "string"
        }
      ],
      "payable": false,
      "stateMutability": "nonpayable",
      "type": "function"
    },
    {
      "constant": false,
      "inputs": [
        {
          "internalType": "uint256",
          "name": "_upc",
          "type": "uint256"
        },
        {
          "internalType": "uint256",
          "name": "_baleId",
          "type": "uint256"
        },
        {
          "internalType": "uint256",
          "name": "_distributorPrice",
          "type": "uint256"
        }
      ],
      "name": "setForSaleByDistributor",
      "outputs": [
        {
          "internalType": "uint256",
          "name": "state",
          "type": "uint256"
        },
        {
          "internalType": "string",
          "name": "stateStr",
          "type": "string"
        },
        {
          "internalType": "uint256",
          "name": "distributorPrice",
          "type": "uint256"
        }
      ],
      "payable": false,
      "stateMutability": "nonpayable",
      "type": "function"
    },
    {
      "constant": false,
      "inputs": [
        {
          "internalType": "uint256",
          "name": "_upc",
          "type": "uint256"
        },
        {
          "internalType": "uint256",
          "name": "_baleId",
          "type": "uint256"
        },
        {
          "internalType": "uint256",
          "name": "_price",
          "type": "uint256"
        }
      ],
      "name": "setForSaleByGrower",
      "outputs": [
        {
          "internalType": "uint256",
          "name": "state",
          "type": "uint256"
        },
        {
          "internalType": "string",
          "name": "stateStr",
          "type": "string"
        },
        {
          "internalType": "uint256",
          "name": "growerPrice",
          "type": "uint256"
        }
      ],
      "payable": false,
      "stateMutability": "nonpayable",
      "type": "function"
    },
    {
      "constant": false,
      "inputs": [
        {
          "internalType": "uint256",
          "name": "_upc",
          "type": "uint256"
        },
        {
          "internalType": "uint256",
          "name": "_baleId",
          "type": "uint256"
        },
        {
          "internalType": "uint256",
          "name": "_retailPrice",
          "type": "uint256"
        }
      ],
      "name": "setForSaleByRetailer",
      "outputs": [
        {
          "internalType": "uint256",
          "name": "state",
          "type": "uint256"
        },
        {
          "internalType": "string",
          "name": "stateStr",
          "type": "string"
        },
        {
          "internalType": "uint256",
          "name": "retailPrice",
          "type": "uint256"
        }
      ],
      "payable": false,
      "stateMutability": "nonpayable",
      "type": "function"
    },
    {
      "constant": false,
      "inputs": [
        {
          "internalType": "uint256",
          "name": "_upc",
          "type": "uint256"
        },
        {
          "internalType": "uint256",
          "name": "_baleId",
          "type": "uint256"
        }
      ],
      "name": "setReceivedByDistributor",
      "outputs": [
        {
          "internalType": "uint256",
          "name": "state",
          "type": "uint256"
        },
        {
          "internalType": "string",
          "name": "stateStr",
          "type": "string"
        }
      ],
      "payable": false,
      "stateMutability": "nonpayable",
      "type": "function"
    },
    {
      "constant": false,
      "inputs": [
        {
          "internalType": "uint256",
          "name": "_upc",
          "type": "uint256"
        },
        {
          "internalType": "uint256",
          "name": "_baleId",
          "type": "uint256"
        }
      ],
      "name": "setReceivedByRetailer",
      "outputs": [
        {
          "internalType": "uint256",
          "name": "state",
          "type": "uint256"
        },
        {
          "internalType": "string",
          "name": "stateStr",
          "type": "string"
        }
      ],
      "payable": false,
      "stateMutability": "nonpayable",
      "type": "function"
    },
    {
      "constant": false,
      "inputs": [
        {
          "internalType": "uint256",
          "name": "_upc",
          "type": "uint256"
        },
        {
          "internalType": "uint256",
          "name": "_baleId",
          "type": "uint256"
        },
        {
          "internalType": "uint256",
          "name": "_sampleId",
          "type": "uint256"
        }
      ],
      "name": "setReceivedByTester",
      "outputs": [
        {
          "internalType": "uint256",
          "name": "state",
          "type": "uint256"
        },
        {
          "internalType": "string",
          "name": "stateStr",
          "type": "string"
        }
      ],
      "payable": false,
      "stateMutability": "nonpayable",
      "type": "function"
    },
    {
      "constant": false,
      "inputs": [
        {
          "internalType": "uint256",
          "name": "_upc",
          "type": "uint256"
        },
        {
          "internalType": "uint256",
          "name": "_baleId",
          "type": "uint256"
        }
      ],
      "name": "shipToDistributor",
      "outputs": [
        {
          "internalType": "uint256",
          "name": "state",
          "type": "uint256"
        },
        {
          "internalType": "string",
          "name": "stateStr",
          "type": "string"
        }
      ],
      "payable": false,
      "stateMutability": "nonpayable",
      "type": "function"
    },
    {
      "constant": false,
      "inputs": [
        {
          "internalType": "uint256",
          "name": "_upc",
          "type": "uint256"
        },
        {
          "internalType": "uint256",
          "name": "_baleId",
          "type": "uint256"
        }
      ],
      "name": "shipToRetailer",
      "outputs": [
        {
          "internalType": "uint256",
          "name": "state",
          "type": "uint256"
        },
        {
          "internalType": "string",
          "name": "stateStr",
          "type": "string"
        }
      ],
      "payable": false,
      "stateMutability": "nonpayable",
      "type": "function"
    },
    {
      "constant": false,
      "inputs": [
        {
          "internalType": "uint256",
          "name": "_upc",
          "type": "uint256"
        },
        {
          "internalType": "uint256",
          "name": "_baleId",
          "type": "uint256"
        },
        {
          "internalType": "uint256",
          "name": "_sampleId",
          "type": "uint256"
        }
      ],
      "name": "testSample",
      "outputs": [
        {
          "internalType": "uint256",
          "name": "state",
          "type": "uint256"
        },
        {
          "internalType": "string",
          "name": "stateStr",
          "type": "string"
        }
      ],
      "payable": false,
      "stateMutability": "nonpayable",
      "type": "function"
    },
    {
      "constant": false,
      "inputs": [
        {
          "internalType": "address payable",
          "name": "newOwner",
          "type": "address"
        }
      ],
      "name": "transferOwnership",
      "outputs": [],
      "payable": false,
      "stateMutability": "nonpayable",
      "type": "function"
    },
    {
      "constant": true,
      "inputs": [
        {
          "internalType": "address",
          "name": "originGrowerID",
          "type": "address"
        }
      ],
      "name": "fetchFarmInfo",
      "outputs": [
        {
          "internalType": "string",
          "name": "originFarmName",
          "type": "string"
        },
        {
          "internalType": "string",
          "name": "originFarmInformation",
          "type": "string"
        },
        {
          "internalType": "string",
          "name": "originFarmLatitude",
          "type": "string"
        },
        {
          "internalType": "string",
          "name": "originFarmLongitude",
          "type": "string"
        }
      ],
      "payable": false,
      "stateMutability": "view",
      "type": "function"
    },
    {
      "constant": true,
      "inputs": [
        {
          "internalType": "uint256",
          "name": "_upc",
          "type": "uint256"
        },
        {
          "internalType": "uint256",
          "name": "_baleId",
          "type": "uint256"
        }
      ],
      "name": "fetchBaleAddressInfo",
      "outputs": [
        {
          "internalType": "address",
          "name": "ownerID",
          "type": "address"
        },
        {
          "internalType": "address",
          "name": "originGrowerID",
          "type": "address"
        },
        {
          "internalType": "address",
          "name": "testerID",
          "type": "address"
        },
        {
          "internalType": "address",
          "name": "distributorID",
          "type": "address"
        },
        {
          "internalType": "address",
          "name": "retailerID",
          "type": "address"
        }
      ],
      "payable": false,
      "stateMutability": "view",
      "type": "function"
    },
    {
      "constant": true,
      "inputs": [
        {
          "internalType": "uint256",
          "name": "_upc",
          "type": "uint256"
        },
        {
          "internalType": "uint256",
          "name": "_baleId",
          "type": "uint256"
        }
      ],
      "name": "fetchBaleInfo",
      "outputs": [
        {
          "internalType": "uint256",
          "name": "itemSKU",
          "type": "uint256"
        },
        {
          "internalType": "string",
          "name": "strainName",
          "type": "string"
        },
        {
          "internalType": "uint256",
          "name": "thcPct",
          "type": "uint256"
        },
        {
          "internalType": "uint256",
          "name": "cbdPct",
          "type": "uint256"
        },
        {
          "internalType": "string",
          "name": "productNotes",
          "type": "string"
        },
        {
          "internalType": "uint256",
          "name": "growerPrice",
          "type": "uint256"
        },
        {
          "internalType": "uint256",
          "name": "distributorPrice",
          "type": "uint256"
        },
        {
          "internalType": "uint256",
          "name": "numRetail",
          "type": "uint256"
        },
        {
          "internalType": "address",
          "name": "ownerID",
          "type": "address"
        },
        {
          "internalType": "string",
          "name": "stateStr",
          "type": "string"
        }
      ],
      "payable": false,
      "stateMutability": "view",
      "type": "function"
    },
    {
      "constant": true,
      "inputs": [
        {
          "internalType": "uint256",
          "name": "_upc",
          "type": "uint256"
        },
        {
          "internalType": "uint256",
          "name": "_baleId",
          "type": "uint256"
        }
      ],
      "name": "fetchBaleRetailIds",
      "outputs": [
        {
          "internalType": "uint256[]",
          "name": "retailIds",
          "type": "uint256[]"
        }
      ],
      "payable": false,
      "stateMutability": "view",
      "type": "function"
    },
    {
      "constant": true,
      "inputs": [
        {
          "internalType": "uint256",
          "name": "_upc",
          "type": "uint256"
        },
        {
          "internalType": "uint256",
          "name": "_baleId",
          "type": "uint256"
        },
        {
          "internalType": "uint256",
          "name": "_retailId",
          "type": "uint256"
        }
      ],
      "name": "fetchRetailItemInfo",
      "outputs": [
        {
          "internalType": "uint256",
          "name": "itemSKU",
          "type": "uint256"
        },
        {
          "internalType": "uint256",
          "name": "retailPrice",
          "type": "uint256"
        },
        {
          "internalType": "address",
          "name": "ownerID",
          "type": "address"
        },
        {
          "internalType": "address",
          "name": "retailerID",
          "type": "address"
        },
        {
          "internalType": "address",
          "name": "consumerID",
          "type": "address"
        },
        {
          "internalType": "string",
          "name": "stateStr",
          "type": "string"
        }
      ],
      "payable": false,
      "stateMutability": "view",
      "type": "function"
    }
  ],
  "bytecode": "0x6080604081905260008054600160a060020a0319163317808255600160a060020a0316917f5c486528ec3e3f0ea91181cff8116f02bfa350e03b8b6f12e00765adbb5af85c908290a36200005c33640100000000620000ca810204565b62000070336401000000006200011c810204565b62000084336401000000006200016e810204565b6200009833640100000000620001c0810204565b620000ac3364010000000062000212810204565b6001600655620000c464010000000062000264810204565b62000bea565b620000e56001826401000000006200468062000ab682021704565b604051600160a060020a038216907f423fd8158a2c5772d65f93f5aa158245f414b4da880b0d6d2a3361a3915ad3ae90600090a250565b620001376002826401000000006200468062000ab682021704565b604051600160a060020a038216907fe4d25ff5a46e97955a9f6b0941a56b0865a723be7acfaae1f711d0c6833f6fab90600090a250565b620001896003826401000000006200468062000ab682021704565b604051600160a060020a038216907fddbf200aa634dc3fb81cfd68583dd1040d1c751d335e1d86b631bde3e977fea890600090a250565b620001db6004826401000000006200468062000ab682021704565b604051600160a060020a038216907f71ae26cad02663e3d92efd6ec56031a80d74a20c0ab4183faa8bf262261c9baa90600090a250565b6200022d6005826401000000006200468062000ab682021704565b604051600160a060020a038216907f28b26e7a3d20aedbc5f8f2ebf7da671c0491723a2b78f47a097b0e46dee0714290600090a250565b60408051808201909152600981527f4861727665737465640000000000000000000000000000000000000000000000602080830191825260008052601090529051620002d2917f6e0956cda88cad152e89927e53611735b61a5c762d1428573c6931b0a5efcb019162000b45565b5060408051808201909152600981527f50726f63657373656400000000000000000000000000000000000000000000006020808301918252600160005260109052905162000342917f8c6065603763fec3f5742441d3833f3f43b982453612d76adb39a885e3006b5f9162000b45565b5060408051808201909152600781527f53616d706c65640000000000000000000000000000000000000000000000000060208083019182526002600052601090529051620003b2917f853b2fefe141400fef543280f93d98bd49996069f632d0d20236afeeed8e46a29162000b45565b506040805180820190915260108082527f53616d706c6520526571756573746564000000000000000000000000000000006020808401918252600360005291909152905162000423917fb3edd0d534d647cffdae9f1294f11ad21f3fcf2814bea44c92bbb8d384a57d9e9162000b45565b5060408051808201909152600e81527f53656e7420546f205465737465720000000000000000000000000000000000006020808301918252600460005260109052905162000493917f1588ac671d87f82adc0e6ae8ab009c0de98f92a20243897597e566bc59b9c1269162000b45565b5060408051808201909152601281527f52656365697665642042792054657374657200000000000000000000000000006020808301918252600560005260109052905162000503917f61a7346ab5ebdac457db2a901eaf1b805239b6049a1b2f34bab85e2e274f39cb9162000b45565b5060408051808201909152600a81527f496e2054657374696e67000000000000000000000000000000000000000000006020808301918252600660005260109052905162000573917f20edfb71820f6f00f6a84ccfefb91587cd9f849f8349b0a3182a4795899d9cd99162000b45565b5060408051808201909152600881527f417070726f76656400000000000000000000000000000000000000000000000060208083019182526007600052601090529051620005e3917f4ef6145e44e4298293af15ae5f84f922a836b1d6db608fd5008f32a528b312a99162000b45565b5060408051808201909152600b81527f50726f64756374697a65640000000000000000000000000000000000000000006020808301918252600860005260109052905162000653917f5f04e77c60ed37290f5789e2e9c5d396103f3c4b14614065cbb4c8362609d5a59162000b45565b5060408051808201909152601281527f466f722053616c652042792047726f776572000000000000000000000000000060208083019182526009600052601090529051620006c3917fa8197f9f3066d467dba941614f445cf878e0beb059ed920f6258667ed2470eb89162000b45565b5060408051808201909152600e81527f536f6c642042792047726f7765720000000000000000000000000000000000006020808301918252600a60005260109052905162000733917fbbe6df1631c6a5c37158096bc15825d83d22eaca9ac1e829be6dfcdebed1d2d79162000b45565b5060408051808201909152601681527f5368697070656420546f204469737472696275746f72000000000000000000006020808301918252600b600052601090529051620007a3917f222281f8a778a50c678b18290b6f1f76b73341460456cd404319acd135fca4779162000b45565b5060408051808201909152601781527f5265636569766564204279204469737472696275746f720000000000000000006020808301918252600c60005260109052905162000813917f1c47f412c035acfb11780222aae71bf1bbf164d6655f4eb426a4fdb92a17a3239162000b45565b5060408051808201909152601781527f466f722053616c65204279204469737472696275746f720000000000000000006020808301918252600d60005260109052905162000883917fdfb340902d3967fa50e8165d4f7a13c9cb160eea8fb21544939c9a839ac4b6c49162000b45565b5060408051808201909152601381527f536f6c64204279204469737472696275746f72000000000000000000000000006020808301918252600e600052601090529051620008f3917fd331405802b48c62503c15f58c7a0f7d4e115b3f84eaa7ece1215aeb38f6b4bf9162000b45565b5060408051808201909152601381527f5368697070656420546f2052657461696c6572000000000000000000000000006020808301918252600f60005260109052905162000963917fad6509bb0b6dc44cf2f1c6595da7ff5ec660b594001258d15cd32de4206f0af09162000b45565b5060408051808201909152601481527f52656365697665642042792052657461696c657200000000000000000000000060208083019182526010600081905290529051620009d3917f70245aa8eee00889cc059fdc11a53867c856b61f1cf8bc3ee4f4442d6b5c3c379162000b45565b5060408051808201909152601481527f466f722053616c652042792052657461696c65720000000000000000000000006020808301918252601160005260109052905162000a43917f28f973f655c78d879d00767376b860c7f1ff781d69e5cd4aa2f5a99e2232013c9162000b45565b5060408051808201909152601581527f50757263686173656420427920436f6e73756d657200000000000000000000006020808301918252601260005260109052905162000ab3917fe397cf9706f522dafff518f3ae63b4cdcabf8a93293fcc829843d749f8151bb09162000b45565b50565b600160a060020a03811662000aca57600080fd5b62000adf828264010000000062000b0f810204565b1562000aea57600080fd5b600160a060020a0316600090815260209190915260409020805460ff19166001179055565b6000600160a060020a03821662000b2557600080fd5b50600160a060020a03166000908152602091909152604090205460ff1690565b828054600181600116156101000203166002900490600052602060002090601f016020900481019282601f1062000b8857805160ff191683800117855562000bb8565b8280016001018555821562000bb8579182015b8281111562000bb857825182559160200191906001019062000b9b565b5062000bc692915062000bca565b5090565b62000be791905b8082111562000bc6576000815560010162000bd1565b90565b61483e8062000bfa6000396000f3fe60806040526004361061030f576000357c0100000000000000000000000000000000000000000000000000000000900480638da5cb5b116101ac578063bd630dc7116100fe578063e38488a1116100a7578063f11f47c811610081578063f11f47c814611406578063f2fde38b1461143c578063f54470cc1461146f5761030f565b8063e38488a11461136a578063e797313f146113a0578063efcf1f43146113d05761030f565b8063ccefa5dc116100d8578063ccefa5dc146110d3578063d2d941cb14611109578063d6f37919146112e65761030f565b8063bd630dc71461104a578063c4d10d741461107d578063c95b0e9f146110b05761030f565b8063a888a68411610160578063b8b06c861161013a578063b8b06c8614610e21578063b93983e014610e54578063ba40a1ce14610e935761030f565b8063a888a68414610b84578063b567e2c214610bb4578063b726aa1414610bc95761030f565b80638f0c86fa116101915780638f0c86fa14610b275780638f32d59b14610b5a5780639bdc080114610b6f5761030f565b80638da5cb5b14610ac35780638ec4f50514610af45761030f565b80635da09b88116102655780637250e22411610219578063857ce3a1116101f3578063857ce3a114610a4e57806388896c4114610a7e5780638c4246f814610a935761030f565b80637250e224146109685780637f9caa351461099b578063834ff73914610a1b5761030f565b8063639cca021161024a578063639cca02146108fa57806366020ba51461092a578063715018a6146109535761030f565b80635da09b88146108835780635f84a3b8146108ca5761030f565b80632c96e0cd116102c757806342fa6c1c116102a157806342fa6c1c14610734578063468532101461083b57806347810fe3146108505761030f565b80632c96e0cd14610535578063408d71af1461056b57806341c0e1b51461071f5761030f565b806316479b85116102f857806316479b851461040557806321c4abd01461041a578063281063c1146104c95761030f565b8063112940f91461031457806315aeb9bb14610349575b600080fd5b34801561032057600080fd5b506103476004803603602081101561033757600080fd5b5035600160a060020a0316611492565b005b34801561035557600080fd5b5061037f6004803603606081101561036c57600080fd5b50803590602081013590604001356114b0565b6040518084815260200180602001838152602001828103825284818151815260200191508051906020019080838360005b838110156103c85781810151838201526020016103b0565b50505050905090810190601f1680156103f55780820380516001836020036101000a031916815260200191505b5094505050505060405180910390f35b34801561041157600080fd5b50610347611681565b34801561042657600080fd5b5061044a6004803603604081101561043d57600080fd5b508035906020013561168c565b6040518083815260200180602001828103825283818151815260200191508051906020019080838360005b8381101561048d578181015183820152602001610475565b50505050905090810190601f1680156104ba5780820380516001836020036101000a031916815260200191505b50935050505060405180910390f35b3480156104d557600080fd5b506104f9600480360360408110156104ec57600080fd5b5080359060200135611788565b60408051600160a060020a0396871681529486166020860152928516848401529084166060840152909216608082015290519081900360a00190f35b34801561054157600080fd5b5061044a6004803603606081101561055857600080fd5b50803590602081013590604001356117d8565b34801561057757600080fd5b5061063a6004803603608081101561058e57600080fd5b813591602081013591600160a060020a0360408301351691908101906080810160608201356401000000008111156105c557600080fd5b8201836020820111156105d757600080fd5b803590602001918460018302840111640100000000831117156105f957600080fd5b91908080601f01602080910402602001604051908101604052809392919081815260200183838082843760009201919091525092955061193d945050505050565b604051808481526020018060200180602001838103835285818151815260200191508051906020019080838360005b83811015610681578181015183820152602001610669565b50505050905090810190601f1680156106ae5780820380516001836020036101000a031916815260200191505b50838103825284518152845160209182019186019080838360005b838110156106e15781810151838201526020016106c9565b50505050905090810190601f16801561070e5780820380516001836020036101000a031916815260200191505b509550505050505060405180910390f35b34801561072b57600080fd5b50610347611d0e565b34801561074057600080fd5b5061076a6004803603606081101561075757600080fd5b5080359060208101359060400135611d32565b6040518087815260200186815260200185600160a060020a0316600160a060020a0316815260200184600160a060020a0316600160a060020a0316815260200183600160a060020a0316600160a060020a0316815260200180602001828103825283818151815260200191508051906020019080838360005b838110156107fb5781810151838201526020016107e3565b50505050905090810190601f1680156108285780820380516001836020036101000a031916815260200191505b5097505050505050505060405180910390f35b34801561084757600080fd5b50610347611dbe565b34801561085c57600080fd5b506103476004803603602081101561087357600080fd5b5035600160a060020a0316611dc7565b34801561088f57600080fd5b506108b6600480360360208110156108a657600080fd5b5035600160a060020a0316611de2565b604080519115158252519081900360200190f35b3480156108d657600080fd5b5061044a600480360360408110156108ed57600080fd5b5080359060200135611dfd565b34801561090657600080fd5b5061044a6004803603604081101561091d57600080fd5b5080359060200135611f6f565b61044a6004803603606081101561094057600080fd5b5080359060208101359060400135612063565b34801561095f57600080fd5b506103476121e8565b34801561097457600080fd5b506103476004803603602081101561098b57600080fd5b5035600160a060020a0316612250565b3480156109a757600080fd5b506109cb600480360360408110156109be57600080fd5b508035906020013561226b565b60408051602080825283518183015283519192839290830191858101910280838360005b83811015610a075781810151838201526020016109ef565b505050509050019250505060405180910390f35b348015610a2757600080fd5b506108b660048036036020811015610a3e57600080fd5b5035600160a060020a031661233e565b348015610a5a57600080fd5b5061044a60048036036040811015610a7157600080fd5b5080359060200135612351565b348015610a8a57600080fd5b5061034761255f565b348015610a9f57600080fd5b5061037f60048036036040811015610ab657600080fd5b5080359060200135612568565b348015610acf57600080fd5b50610ad8612963565b60408051600160a060020a039092168252519081900360200190f35b348015610b0057600080fd5b5061034760048036036020811015610b1757600080fd5b5035600160a060020a0316612973565b348015610b3357600080fd5b506108b660048036036020811015610b4a57600080fd5b5035600160a060020a031661298e565b348015610b6657600080fd5b506108b66129a1565b348015610b7b57600080fd5b506103476129b2565b348015610b9057600080fd5b5061044a60048036036040811015610ba757600080fd5b50803590602001356129bb565b348015610bc057600080fd5b50610347612aaf565b348015610bd557600080fd5b50610347600480360360a0811015610bec57600080fd5b600160a060020a038235169190810190604081016020820135640100000000811115610c1757600080fd5b820183602082011115610c2957600080fd5b80359060200191846001830284011164010000000083111715610c4b57600080fd5b91908080601f0160208091040260200160405190810160405280939291908181526020018383808284376000920191909152509295949360208101935035915050640100000000811115610c9e57600080fd5b820183602082011115610cb057600080fd5b80359060200191846001830284011164010000000083111715610cd257600080fd5b91908080601f0160208091040260200160405190810160405280939291908181526020018383808284376000920191909152509295949360208101935035915050640100000000811115610d2557600080fd5b820183602082011115610d3757600080fd5b80359060200191846001830284011164010000000083111715610d5957600080fd5b91908080601f0160208091040260200160405190810160405280939291908181526020018383808284376000920191909152509295949360208101935035915050640100000000811115610dac57600080fd5b820183602082011115610dbe57600080fd5b80359060200191846001830284011164010000000083111715610de057600080fd5b91908080601f016020809104026020016040519081016040528093929190818152602001838380828437600092019190915250929550612ab8945050505050565b348015610e2d57600080fd5b5061034760048036036020811015610e4457600080fd5b5035600160a060020a0316612b7d565b348015610e6057600080fd5b5061037f60048036036060811015610e7757600080fd5b5080359060208101359060400135600160a060020a0316612b98565b348015610e9f57600080fd5b50610ec360048036036040811015610eb657600080fd5b5080359060200135612f24565b604051808b8152602001806020018a81526020018981526020018060200188815260200187815260200186815260200185600160a060020a0316600160a060020a031681526020018060200184810384528d818151815260200191508051906020019080838360005b83811015610f44578181015183820152602001610f2c565b50505050905090810190601f168015610f715780820380516001836020036101000a031916815260200191505b5084810383528a5181528a516020918201918c019080838360005b83811015610fa4578181015183820152602001610f8c565b50505050905090810190601f168015610fd15780820380516001836020036101000a031916815260200191505b50848103825285518152855160209182019187019080838360005b83811015611004578181015183820152602001610fec565b50505050905090810190601f1680156110315780820380516001836020036101000a031916815260200191505b509d505050505050505050505050505060405180910390f35b34801561105657600080fd5b506108b66004803603602081101561106d57600080fd5b5035600160a060020a031661317e565b34801561108957600080fd5b506108b6600480360360208110156110a057600080fd5b5035600160a060020a0316613191565b61044a600480360360408110156110c657600080fd5b50803590602001356131a4565b3480156110df57600080fd5b5061037f600480360360608110156110f657600080fd5b50803590602081013590604001356133ce565b34801561111557600080fd5b5061113c6004803603602081101561112c57600080fd5b5035600160a060020a03166134d4565b6040518080602001806020018060200180602001858103855289818151815260200191508051906020019080838360005b8381101561118557818101518382015260200161116d565b50505050905090810190601f1680156111b25780820380516001836020036101000a031916815260200191505b5085810384528851815288516020918201918a019080838360005b838110156111e55781810151838201526020016111cd565b50505050905090810190601f1680156112125780820380516001836020036101000a031916815260200191505b50858103835287518152875160209182019189019080838360005b8381101561124557818101518382015260200161122d565b50505050905090810190601f1680156112725780820380516001836020036101000a031916815260200191505b50858103825286518152865160209182019188019080838360005b838110156112a557818101518382015260200161128d565b50505050905090810190601f1680156112d25780820380516001836020036101000a031916815260200191505b509850505050505050505060405180910390f35b3480156112f257600080fd5b5061131c6004803603606081101561130957600080fd5b5080359060208101359060400135613799565b604051808581526020018060200184815260200183815260200182810382528581815181526020019150805190602001908083836000838110156106e15781810151838201526020016106c9565b34801561137657600080fd5b5061037f6004803603606081101561138d57600080fd5b508035906020810135906040013561391f565b3480156113ac57600080fd5b5061044a600480360360408110156113c357600080fd5b5080359060200135613a25565b3480156113dc57600080fd5b5061044a600480360360608110156113f357600080fd5b5080359060208101359060400135613b19565b34801561141257600080fd5b5061044a6004803603606081101561142957600080fd5b5080359060208101359060400135613c6b565b34801561144857600080fd5b506103476004803603602081101561145f57600080fd5b5035600160a060020a0316613dc6565b61044a6004803603604081101561148557600080fd5b5080359060200135613de0565b61149b3361233e565b6114a457600080fd5b6114ad81613f9d565b50565b6000606060006114bf33611de2565b6114c857600080fd5b8585601060008381526008602090815260408083208584529091529020600a015460ff1660128111156114f757fe5b1461150157600080fd5b60008881526008602090815260408083208a8452909152902060100154600160a060020a031633811461153357600080fd5b60008981526008602090815260408083208b8452909152812060090154889550815b818110156116395760008c8152600c602090815260408083208e8452909152902080548290811061158257fe5b60009182526020808320600792909202909101600301548e8352600b825260408084208f85528352808420828552909252912060048101899055600501805491945060119174ff0000000000000000000000000000000000000000191660a060020a830217905550604080518d8152602081018d90528082018590526060810189905290517f96c2922ac2a41db68a4cfbd8ce03d4a43e60ff80155848052620169ea194f01d9181900360800190a1600101611555565b5060008b81526008602090815260408083208d84529091529020600a01805460ff1916601190811790915561166d90613fe5565b965060119750505050505093509350939050565b61168a33614098565b565b600060606116993361298e565b6116a257600080fd5b8383600b60008381526008602090815260408083208584529091529020600a015460ff1660128111156116d157fe5b146116db57600080fd5b60008681526008602090815260408083208884529091529020600f0154600160a060020a031633811461170d57600080fd5b6000878152600860209081526040808320898452825291829020600a01805460ff1916600c179055815189815290810188905281517fc30acdcb1201c48f56e1ddc7102d53bb493d7f4d91ddb3645dc1747633eb4a91929181900390910190a1611777600c613fe5565b9350600c5b94505050509250929050565b60009182526008602090815260408084209284529190529020600b810154600c820154600e830154600f840154601090940154600160a060020a0393841695928416949184169391821692911690565b600060606117e53361317e565b6117ee57600080fd5b84848460056000848152600960209081526040808320868452825280832085845290915290206003015460a060020a900460ff16601281111561182d57fe5b1461183757600080fd5b60008881526008602090815260408083208a84529091529020600e0154600160a060020a031633811461186957600080fd5b60008981526008602090815260408083208b84528252808320600a018054600660ff199091161790558b8352600982528083208b845282528083208a8452825291829020600301805474ff000000000000000000000000000000000000000019167406000000000000000000000000000000000000000017905581518b81529081018a905280820189905290517f2795e4936ef15a2dd89c852fd4c442dee9e33f97996c154c9c99b0fe8133d5f69181900360600190a161192a6006613fe5565b945060065b955050505050935093915050565b600060608061194b33613191565b61195457600080fd5b6000878152600860209081526040808320898452909152902054879087901561197c57600080fd5b60006119878a6140e0565b905061199281614126565b935061199c614714565b6040518060c001604052808a600160a060020a031681526020018a600160a060020a031681526020018a600160a060020a031681526020016000600160a060020a031681526020016000600160a060020a031681526020016000600160a060020a0316815250905060405180610180016040528060065481526020018c81526020018b8152602001868152602001600081526020016000815260200189815260200160008152602001600081526020016000815260200160006012811115611a6057fe5b8152602090810183905260008d81526008825260408082208e835283529081902083518155838301516001820155908301516002820155606083015180519192611ab292600385019290910190614749565b506080820151600482015560a0820151600582015560c08201518051611ae2916006840191602090910190614749565b5060e0820151600782015561010082015160088201556101208201516009820155610140820151600a8201805460ff19166001836012811115611b2157fe5b021790555061016091909101518051600b8301805473ffffffffffffffffffffffffffffffffffffffff19908116600160a060020a03938416179091556020830151600c8501805483169184169190911790556040830151600d8501805483169184169190911790556060830151600e8501805483169184169190911790556080830151600f85018054831691841691909117905560a0909201516010909301805490921692169190911790556006805460010190557f87e455d21f3a21acd04eb16ba6df36cb83a22a783d909439f1a79cb350257b1b8b8b60008989604051808681526020018581526020018481526020018060200180602001838103835285818151815260200191508051906020019080838360005b83811015611c51578181015183820152602001611c39565b50505050905090810190601f168015611c7e5780820380516001836020036101000a031916815260200191505b50838103825284518152845160209182019186019080838360005b83811015611cb1578181015183820152602001611c99565b50505050905090810190601f168015611cde5780820380516001836020036101000a031916815260200191505b5097505050505050505060405180910390a1611cfa6000613fe5565b955060009650505050509450945094915050565b611d166129a1565b611d1f57600080fd5b611d27612963565b600160a060020a0316ff5b6000838152600b6020908152604080832085845282528083208484528083528184208054600482015460058301548a8852600887528588208a8952875294872060100154600690930154968890529290945292939092600160a060020a0380841693918116921690606090611db09060a060020a900460ff16613fe5565b905093975093979195509350565b61168a3361424c565b611dd03361317e565b611dd957600080fd5b6114ad81614294565b6000611df560048363ffffffff6142dc16565b90505b919050565b60006060611e0a33613191565b611e1357600080fd5b83836000808381526008602090815260408083208584529091529020600a015460ff166012811115611e4157fe5b14611e4b57600080fd5b60008681526008602090815260408083208884529091529020600c0154600160a060020a0316338114611e7d57600080fd5b60008781526008602090815260408083208984529091529020600a0180546001919060ff1916828002179055507f727c9c839d964fd8094590eb342992c0979c75970020d651077ad8a138744cd287876001876040518085815260200184815260200183815260200180602001828103825283818151815260200191508051906020019080838360005b83811015611f1f578181015183820152602001611f07565b50505050905090810190601f168015611f4c5780820380516001836020036101000a031916815260200191505b509550505050505060405180910390a1611f666001613fe5565b9350600161177c565b60006060611f7c33611de2565b611f8557600080fd5b8383600f60008381526008602090815260408083208584529091529020600a015460ff166012811115611fb457fe5b14611fbe57600080fd5b6000868152600860209081526040808320888452909152902060100154600160a060020a0316338114611ff057600080fd5b6000878152600860209081526040808320898452825291829020600a01805460ff19166010179055815189815290810188905281517f3f73cc9d17e448f506ccd0922687c3d8a7b32df582b0aa033b25044a1649d95d929181900390910190a161205a6010613fe5565b9350601061177c565b600060606120703361233e565b61207957600080fd5b612084858585614311565b6000858152600b6020908152604080832087845282528083208684529091529020600401546120b29061435c565b6120bd858585614369565b6000858152600b6020908152604080832087845282528083208684528083528184206005810180546006830180543373ffffffffffffffffffffffffffffffffffffffff1991821681179092559091161774ff000000000000000000000000000000000000000019167412000000000000000000000000000000000000000017905589855260088452828520898652845282852060100154888652919093526004909201549051600160a060020a039092169281156108fc029290818181858888f1935050505015801561219057600080fd5b50604080518681526020810186905280820185905290517fe40771d8dec1e35943a824aec96932e3b917f18b945260371ac6a70126f9fa829181900360600190a16121db6011613fe5565b6011969095509350505050565b6121f06129a1565b6121f957600080fd5b60008054604051600160a060020a03909116907f5c486528ec3e3f0ea91181cff8116f02bfa350e03b8b6f12e00765adbb5af85c908390a36000805473ffffffffffffffffffffffffffffffffffffffff19169055565b6122593361298e565b61226257600080fd5b6114ad816143d3565b6000828152600860209081526040808320848452909152902060090154606090801561232557806040519080825280602002602001820160405280156122bb578160200160208202803883390190505b50915060005b8181101561231f576000858152600c6020908152604080832087845290915290208054829081106122ee57fe5b90600052602060002090600702016003015483828151811061230c57fe5b60209081029190910101526001016122c1565b50612337565b60408051600081526020810190915291505b5092915050565b6000611df560058363ffffffff6142dc16565b6000606061235e3361317e565b61236757600080fd5b8383600260008381526008602090815260408083208584529091529020600a015460ff16601281111561239657fe5b146123a057600080fd5b60008681526008602090815260408083208884529091529020600e0154600160a060020a03163381146123d257600080fd5b60008781526008602090815260408083208984528252808320600e8101805473ffffffffffffffffffffffffffffffffffffffff191633179055600a908101805460ff191660031790558a8452825280832089845290915281208054829061243657fe5b6000918252602080832060026005939093020191909101548a83526009825260408084208b8552835280842082855283528084206003908101805474ff00000000000000000000000000000000000000001916740300000000000000000000000000000000000000001790558c8552600a84528185208c8652909352832080549194509192906124c257fe5b60009182526020909120600360059092020101805474ff0000000000000000000000000000000000000000191660a060020a83601281111561250057fe5b0217905550604080518981526020810189905280820183905290517fd91d0e9cc51b8001466a983f23e06131aa49508bab5eaac6f9b4de5a26fa4dd49181900360600190a161254f6003613fe5565b6003999098509650505050505050565b61168a3361441b565b60006060600061257733613191565b61258057600080fd5b8484600760008381526008602090815260408083208584529091529020600a015460ff1660128111156125af57fe5b146125b957600080fd5b60008781526008602090815260408083208984529091529020600c0154600160a060020a03163381146125eb57600080fd5b60015b600a81116128dd57604051806101000160405280600860008c815260200190815260200160002060008b81526020019081526020016000206000015481526020018a815260200189815260200182815260200160008152602001600860008c815260200190815260200160002060008b8152602001908152602001600020600b0160000160009054906101000a9004600160a060020a0316600160a060020a03168152602001600860128111156126a157fe5b8152600060209182018190528b8152600b825260408082208c83528352808220858352835290819020835181559183015160018301558201516002820155606082015160038201556080820151600482015560a082015160058201805473ffffffffffffffffffffffffffffffffffffffff1916600160a060020a039092169190911780825560c0840151919074ff0000000000000000000000000000000000000000191660a060020a83601281111561275757fe5b021790555060e0919091015160069091018054600160a060020a0392831673ffffffffffffffffffffffffffffffffffffffff199182161790915560008b8152600c602090815260408083208d845282528083208e8452600b83528184208e855283528184208785528352908320815460018181018085559386529390942081546007909502019384558083015492840192909255600280830154908401556003808301549084015560048083015490840155600580830180549185018054909616919096161780855594549094919360ff60a060020a928390041692909174ff0000000000000000000000000000000000000000199091169083601281111561285d57fe5b02179055506006918201549101805473ffffffffffffffffffffffffffffffffffffffff1916600160a060020a0390921691909117905550604080518a8152602081018a905280820183905290517fbff3e7b624651838b1696c7312b5551dd7a8f4cf449943e026c4104c7b8e1c099181900360600190a16001016125ee565b5060008881526008602081815260408084208b8552825292839020600a60098201819055908101805460ff191690931790925582518b81529081018a905282519196507fc5a18b275433db1378bc7903935c605523f86c5c4197599ce2c7e448cfd8013992908290030190a16129536008613fe5565b9450600895505050509250925092565b600054600160a060020a03165b90565b61297c33611de2565b61298557600080fd5b6114ad81614463565b6000611df560038363ffffffff6142dc16565b600054600160a060020a0316331490565b61168a336144ab565b600060606129c83361298e565b6129d157600080fd5b8383600e60008381526008602090815260408083208584529091529020600a015460ff166012811115612a0057fe5b14612a0a57600080fd5b60008681526008602090815260408083208884529091529020600f0154600160a060020a0316338114612a3c57600080fd5b6000878152600860209081526040808320898452825291829020600a01805460ff1916600f179055815189815290810188905281517f13faaff0d18f6b864dd4234cae38b3b881af04aaf6dab40a95864edc5f453a7d929181900390910190a1612aa6600f613fe5565b9350600f61177c565b61168a336144f3565b612ac133613191565b612aca57600080fd5b612ad26147c7565b5060408051608081018252858152602080820186905281830185905260608201849052600160a060020a038816600090815260078252929092208151805192938493612b219284920190614749565b506020828101518051612b3a9260018501920190614749565b5060408201518051612b56916002840191602090910190614749565b5060608201518051612b72916003840191602090910190614749565b505050505050505050565b612b8633613191565b612b8f57600080fd5b6114ad8161453b565b600060606000612ba733613191565b612bb057600080fd5b8585600160008381526008602090815260408083208584529091529020600a015460ff166012811115612bdf57fe5b14612be957600080fd5b60008881526008602090815260408083208a84529091529020600c0154600160a060020a0316338114612c1b57600080fd5b60008981526008602090815260408083208b84529091529020600e8101805473ffffffffffffffffffffffffffffffffffffffff1916600160a060020a038a16179055600a0180546002919060ff191660018302179055506040805160c0810182528a815260208082018b9052600182840181905260008d8152600883528481208d8252909252929020600b0154600160a060020a031660608201529094506080810160028152600060209182018190528b81526009825260408082208c83528352808220888352835290819020835181559183015160018301558201516002820155606082015160038201805473ffffffffffffffffffffffffffffffffffffffff1916600160a060020a03909216919091178082556080840151919074ff0000000000000000000000000000000000000000191660a060020a836012811115612d6257fe5b021790555060a0919091015160049091018054600160a060020a0392831673ffffffffffffffffffffffffffffffffffffffff199182161790915560008b8152600a602090815260408083208d845282528083208e8452600983528184208e855283528184208a8552835290832081546001818101808555938652939094208154600590950201938455808301549284019290925560028083015490840155600380830180549185018054909616919096161780855594549094919360ff60a060020a928390041692909174ff00000000000000000000000000000000000000001990911690836012811115612e5457fe5b02179055506004918201549101805473ffffffffffffffffffffffffffffffffffffffff1916600160a060020a0390921691909117905550604080518a8152602081018a905281517fc3c4dcce954f73871bbb65ebe500431eb869d83933d7ac17adaf4151f6f188b7929181900390910190a1604080518a8152602081018a905280820186905290517f971f98e90f3ef3af50f067ec51f75e2848e8e6bed20918e2d882bc32d67652059181900360600190a1612f116002613fe5565b945060025b955050505093509350939050565b60008281526008602090815260408083208484529091528120549060609080828180808084612f5a612f558d6140e0565b614126565b9850600860008d815260200190815260200160002060008c8152602001908152602001600020600401549750600860008d815260200190815260200160002060008c8152602001908152602001600020600501549650600860008d815260200190815260200160002060008c81526020019081526020016000206006018054600181600116156101000203166002900480601f01602080910402602001604051908101604052809291908181526020018280546001816001161561010002031660029004801561306b5780601f106130405761010080835404028352916020019161306b565b820191906000526020600020905b81548152906001019060200180831161304e57829003601f168201915b50505050509550600860008d815260200190815260200160002060008c8152602001908152602001600020600701549450600860008d815260200190815260200160002060008c8152602001908152602001600020600801549350600860008d815260200190815260200160002060008c8152602001908152602001600020600901549250600860008d815260200190815260200160002060008c8152602001908152602001600020600b0160000160009054906101000a9004600160a060020a0316915061316d600860008e815260200190815260200160002060008d8152602001908152602001600020600a0160009054906101000a900460ff16613fe5565b90509295989b9194979a5092959850565b6000611df560028363ffffffff6142dc16565b6000611df560018363ffffffff6142dc16565b600060606131b133611de2565b6131ba57600080fd5b8383600d60008381526008602090815260408083208584529091529020600a015460ff1660128111156131e957fe5b146131f357600080fd5b600086815260086020818152604080842089855290915290912001543481111561321c57600080fd5b60008781526008602081815260408084208a855290915280832091820154600f9092015490518a938a93923484900392600160a060020a03909116916108fc841502918491818181858888f1935050505015801561327957600080fd5b5060008b81526008602090815260408083208d84529091529020600b810180543373ffffffffffffffffffffffffffffffffffffffff1991821681179092556010830180549091169091179055600a018054600e919060ff19166001830217905550600860008c815260200190815260200160002060008b8152602001908152602001600020600b0160040160009054906101000a9004600160a060020a0316600160a060020a03166108fc600860008e815260200190815260200160002060008d8152602001908152602001600020600801549081150290604051600060405180830381858888f1935050505015801561337357600080fd5b50604080518c8152602081018c905281517f56de697aab297c2e736901bb52a53a598515366b07f3e2af06f718098437ab51929181900390910190a16133b9600e613fe5565b9750600e5b9850505050505050509250929050565b6000606060006133dd33613191565b6133e657600080fd5b8585600860008381526008602090815260408083208584529091529020600a015460ff16601281111561341557fe5b1461341f57600080fd5b60008881526008602090815260408083208a84529091529020600c0154600160a060020a031633811461345157600080fd5b60008981526008602090815260408083208b8452825291829020600a8101805460ff1916600917905560070189905581518b81529081018a905280820189905290518895507f631b3a0d92b5d1da5a90f9d995b6a7f069a07dac98ae09d22bde9ffb29c67337916060908290030190a16134cb6009613fe5565b94506009612f16565b600160a060020a03811660009081526007602090815260409182902080548351601f60026000196101006001861615020190931692909204918201849004840281018401909452808452606093849384938493909183018282801561357a5780601f1061354f5761010080835404028352916020019161357a565b820191906000526020600020905b81548152906001019060200180831161355d57829003601f168201915b505050505093506007600086600160a060020a0316600160a060020a031681526020019081526020016000206001018054600181600116156101000203166002900480601f01602080910402602001604051908101604052809291908181526020018280546001816001161561010002031660029004801561363d5780601f106136125761010080835404028352916020019161363d565b820191906000526020600020905b81548152906001019060200180831161362057829003601f168201915b50505050600160a060020a0387166000908152600760209081526040918290206002908101805484516001821615610100026000190190911692909204601f81018490048402830184019094528382529497509392508301828280156136e45780601f106136b9576101008083540402835291602001916136e4565b820191906000526020600020905b8154815290600101906020018083116136c757829003601f168201915b50505050600160a060020a0387166000908152600760209081526040918290206003018054835160026001831615610100026000190190921691909104601f8101849004840282018401909452838152949650925083018282801561378a5780601f1061375f5761010080835404028352916020019161378a565b820191906000526020600020905b81548152906001019060200180831161376d57829003601f168201915b50939450505050509193509193565b600060606000806137a93361317e565b6137b257600080fd5b86868660066000848152600960209081526040808320868452825280832085845290915290206003015460a060020a900460ff1660128111156137f157fe5b146137fb57600080fd5b60008a81526008602090815260408083208c84529091529020600e0154600160a060020a031633811461382d57600080fd5b6138368b614583565b60008d81526009602090815260408083208f845282528083208e84528252808320600301805474ff00000000000000000000000000000000000000001916740700000000000000000000000000000000000000001790558f8352600882528083208f84528252918290206004810185905560058101849055600a018054600760ff1990911617905581518f81529081018e90528082018d905290519298509096507f36ea04725f8aa40ee603224671681b753f9cba3cb5f67c5a0e24a3b39900c065919081900360600190a161390c6007613fe5565b9650600797505050505093509350935093565b60006060600061392e3361298e565b61393757600080fd5b8585600c60008381526008602090815260408083208584529091529020600a015460ff16601281111561396657fe5b1461397057600080fd5b60008881526008602090815260408083208a84529091529020600f0154600160a060020a03163381146139a257600080fd5b60008981526008602081815260408084208c8552825292839020600a8101805460ff1916600d17905590910189905581518b81529081018a905280820189905290518895507fe655dcb98558e62b1c786b682011faefa66269ed534cdcc70cb9260b7ed76ae9916060908290030190a1613a1c600d613fe5565b9450600d612f16565b60006060613a3233613191565b613a3b57600080fd5b8383600a60008381526008602090815260408083208584529091529020600a015460ff166012811115613a6a57fe5b14613a7457600080fd5b60008681526008602090815260408083208884529091529020600c0154600160a060020a0316338114613aa657600080fd5b6000878152600860209081526040808320898452825291829020600a01805460ff1916600b179055815189815290810188905281517fc818f5a4561bbaa82ebb7db7a6e7fffac09ea3b11d30264aaa0882f07bf84ecb929181900390910190a1613b10600b613fe5565b9350600b61177c565b60006060613b2633613191565b613b2f57600080fd5b8484600360008381526008602090815260408083208584529091529020600a015460ff166012811115613b5e57fe5b14613b6857600080fd5b60008781526008602090815260408083208984529091529020600c0154600160a060020a0316338114613b9a57600080fd5b60008881526008602090815260408083208a84528252808320600a018054600460ff199091161790558a8352600982528083208a84528252808320898452825291829020600301805474ff000000000000000000000000000000000000000019167404000000000000000000000000000000000000000017905581518a815290810189905280820188905290517f30e1e730c5720358f2d1e80b1a36b50ff0cf80a20e537b50a091093d8b3526ee9181900360600190a1613c5b6004613fe5565b6004999098509650505050505050565b60006060613c783361317e565b613c8157600080fd5b84848460046000848152600960209081526040808320868452825280832085845290915290206003015460a060020a900460ff166012811115613cc057fe5b14613cca57600080fd5b60008881526008602090815260408083208a84529091529020600e0154600160a060020a0316338114613cfc57600080fd5b60008981526008602090815260408083208b84528252808320600a018054600560ff199091161790558b8352600982528083208b845282528083208a8452825291829020600301805474ff000000000000000000000000000000000000000019167405000000000000000000000000000000000000000017905581518b81529081018a905280820189905290517f059b5fa12820d369a51cdb86ae5faa89f822ea1fbac7b70b2bd0ccc805ce67529181900360600190a1613dbd6005613fe5565b9450600561192f565b613dce6129a1565b613dd757600080fd5b6114ad81614605565b60006060613ded3361298e565b613df657600080fd5b8383600960008381526008602090815260408083208584529091529020600a015460ff166012811115613e2557fe5b14613e2f57600080fd5b600086815260086020908152604080832088845290915290206007015434811115613e5957600080fd5b60008781526008602090815260408083208984529091528082206007810154600f9091015491518a938a933484900392600160a060020a03909116916108fc841502918491818181858888f19350505050158015613eb657600080fd5b5060008b81526008602090815260408083208d8452909152808220600b810180543373ffffffffffffffffffffffffffffffffffffffff199182168117909255600f830180549091169091179055600a808201805460ff19169091179055600c8101546007909101549151600160a060020a03909116926108fc831502929190818181858888f19350505050158015613f4e57600080fd5b50604080518c8152602081018c905281517f8b4554e9bb7948273660bceca2cdc74ceec0e26bcf21ee73e62db5d5bc99466f929181900390910190a1613f94600a613fe5565b9750600a6133be565b613fae60058263ffffffff61468016565b604051600160a060020a038216907f28b26e7a3d20aedbc5f8f2ebf7da671c0491723a2b78f47a097b0e46dee0714290600090a250565b606060106000836012811115613ff757fe5b815260208082019290925260409081016000208054825160026001831615610100026000190190921691909104601f81018590048502820185019093528281529290919083018282801561408c5780601f106140615761010080835404028352916020019161408c565b820191906000526020600020905b81548152906001019060200180831161406f57829003601f168201915b50505050509050919050565b6140a960048263ffffffff6146cc16565b604051600160a060020a038216907fdb7176e79cffef81cb01767dd0447a0b24bb72ca9778d4b245581086b2a7e6db90600090a250565b6000600a8206600281116140f8576000915050611df8565b6005811161410a576001915050611df8565b6007811161411c576002915050611df8565b6003915050611df8565b6060600082600381111561413657fe5b1415614176575060408051808201909152601c81527f54726970707920507572706c6520427562626c6567756d2048617a65000000006020820152611df8565b600182600381111561418457fe5b14156141c4575060408051808201909152601081527f56756c63616e204d696e64204d656c74000000000000000000000000000000006020820152611df8565b60028260038111156141d257fe5b1415614212575060408051808201909152601881527f43617461746f6e696320436f7563686c6f636b204b75736800000000000000006020820152611df8565b5060408051808201909152600c81527f536e6f6f7a7920576f6f7a7900000000000000000000000000000000000000006020820152611df8565b61425d60018263ffffffff6146cc16565b604051600160a060020a038216907f686dbfa27271f8cf2fe2e5eaeaf43f15d839d20c7e162ca3aee8362b6c6a861b90600090a250565b6142a560028263ffffffff61468016565b604051600160a060020a038216907fe4d25ff5a46e97955a9f6b0941a56b0865a723be7acfaae1f711d0c6833f6fab90600090a250565b6000600160a060020a0382166142f157600080fd5b50600160a060020a03166000908152602091909152604090205460ff1690565b60116000848152600b60209081526040808320868452825280832085845290915290206005015460a060020a900460ff16601281111561434d57fe5b1461435757600080fd5b505050565b803410156114ad57600080fd5b6000838152600b6020908152604080832085845282528083208484529091528082206004810154600690910154915190923484900392600160a060020a0316916108fc84150291849190818181858888f193505050501580156143cb57600080fd5b505050505050565b6143e460038263ffffffff61468016565b604051600160a060020a038216907fddbf200aa634dc3fb81cfd68583dd1040d1c751d335e1d86b631bde3e977fea890600090a250565b61442c60058263ffffffff6146cc16565b604051600160a060020a038216907fe3f5ed5f263f1f01764a96edfc7d025f511ec5f7d180e8816908b78bcf74f09890600090a250565b61447460048263ffffffff61468016565b604051600160a060020a038216907f71ae26cad02663e3d92efd6ec56031a80d74a20c0ab4183faa8bf262261c9baa90600090a250565b6144bc60038263ffffffff6146cc16565b604051600160a060020a038216907f126174f6cf49c81cdb4a9214c6b8f037bef55b4ec31e4fc776cea2a1c8a88d5990600090a250565b61450460028263ffffffff6146cc16565b604051600160a060020a038216907fe8ce47043de08fd3fc122d8d670b283ff74ad523739a032edea680aaee9ae42d90600090a250565b61454c60018263ffffffff61468016565b604051600160a060020a038216907f423fd8158a2c5772d65f93f5aa158245f414b4da880b0d6d2a3361a3915ad3ae90600090a250565b6000806000614591846140e0565b905060008160038111156145a157fe5b14156145b457601e9250600191506145ff565b60018160038111156145c257fe5b14156145d55760199250600291506145ff565b60028160038111156145e357fe5b14156145f65760149250600391506145ff565b60059250601491505b50915091565b600160a060020a03811661461857600080fd5b60008054604051600160a060020a03808516939216917f5c486528ec3e3f0ea91181cff8116f02bfa350e03b8b6f12e00765adbb5af85c91a36000805473ffffffffffffffffffffffffffffffffffffffff1916600160a060020a0392909216919091179055565b600160a060020a03811661469357600080fd5b61469d82826142dc565b156146a757600080fd5b600160a060020a0316600090815260209190915260409020805460ff19166001179055565b600160a060020a0381166146df57600080fd5b6146e982826142dc565b6146f257600080fd5b600160a060020a0316600090815260209190915260409020805460ff19169055565b6040805160c081018252600080825260208201819052918101829052606081018290526080810182905260a081019190915290565b828054600181600116156101000203166002900490600052602060002090601f016020900481019282601f1061478a57805160ff19168380011785556147b7565b828001600101855582156147b7579182015b828111156147b757825182559160200191906001019061479c565b506147c39291506147ef565b5090565b6040518060800160405280606081526020016060815260200160608152602001606081525090565b61297091905b808211156147c357600081556001016147f556fea265627a7a72315820186a347155a1da6a4467b6a1918a5b3c55218c52a71906ef2c4b758baeb33e8e64736f6c63430005100032",
  "source": "pragma solidity ^0.5.16;\n\nimport '../base/SupplyChainBase.sol';\n\ncontract SupplyChain is SupplyChainBase {\n\n  // Define a function 'fetchFarmInfo' that fetches the data\n  function fetchFarmInfo(address originGrowerID) public view returns (\n      string  memory originFarmName,\n      string  memory originFarmInformation,\n      string  memory originFarmLatitude,\n      string  memory originFarmLongitude\n  ) {\n\n    originFarmName = farmsInfo[originGrowerID].originFarmName;\n    originFarmInformation = farmsInfo[originGrowerID].originFarmInformation;\n    originFarmLatitude = farmsInfo[originGrowerID].originFarmLatitude;\n    originFarmLongitude = farmsInfo[originGrowerID].originFarmLongitude;      \n    return \n    (\n      originFarmName,\n      originFarmInformation,\n      originFarmLatitude,\n      originFarmLongitude\n    );\n  }\n\n  function fetchBaleAddressInfo(uint _upc, uint _baleId) public view returns (\n      address ownerID,\n      address originGrowerID,\n      address testerID,   \n      address distributorID,   \n      address retailerID\n  ) {\n    ownerID = bales[_upc][_baleId].baleAddresses.ownerID;\n    originGrowerID = bales[_upc][_baleId].baleAddresses.originGrowerID;\n    testerID = bales[_upc][_baleId].baleAddresses.testerID;\n    distributorID = bales[_upc][_baleId].baleAddresses.distributorID;\n    retailerID = bales[_upc][_baleId].baleAddresses.retailerID;\n\n    return \n    (\n      ownerID,\n      originGrowerID,\n      testerID,\n      distributorID,\n      retailerID\n    );\n  }\n\n  // Define a function 'fetchBaleInfo' that fetches the data\n  function fetchBaleInfo(uint _upc, uint _baleId) public view returns (\n      uint    itemSKU,\n      string  memory strainName,\n      uint    thcPct,\n      uint    cbdPct,\n      string  memory productNotes,\n      uint    growerPrice,\n      uint    distributorPrice,\n      uint    numRetail,  \n      address ownerID, \n      string  memory stateStr\n  ) {\n    // Assign values to the parameters\n    itemSKU = bales[_upc][_baleId].sku;\n    strainName = getStrainString(getStrainFromUPC(_upc));\n    thcPct = bales[_upc][_baleId].thcPct;\n    cbdPct = bales[_upc][_baleId].cbdPct;\n    productNotes = bales[_upc][_baleId].productNotes;\n    growerPrice = bales[_upc][_baleId].growerPrice;\n    distributorPrice = bales[_upc][_baleId].distributorPrice;\n    numRetail = bales[_upc][_baleId].numRetailProducts;\n    ownerID = bales[_upc][_baleId].baleAddresses.ownerID;\n    stateStr=getStateString(bales[_upc][_baleId].itemState);\n\n    return \n    (\n      itemSKU,\n      strainName,\n      thcPct,\n      cbdPct,\n      productNotes,\n      growerPrice,\n      distributorPrice,\n      numRetail,\n      ownerID,  \n      stateStr\n    );\n  }\n\n  //\n  // Define a function 'fetchBaleRetailIds' that fetches the array of retailId properties for the retail products from this bale\n  //\n  function fetchBaleRetailIds(uint _upc, uint _baleId) public view returns (uint[] memory retailIds) {\n      uint n = bales[_upc][_baleId].numRetailProducts;\n      if (n > 0) {\n          retailIds = new uint[](n);\n          for (uint i=0; i<n; i++) {\n              retailIds[i] = retailItemsForBale[_upc][_baleId][i].retailId;\n          }\n      } else {\n          retailIds = new uint[](0);\n      }\n      return retailIds;\n  }\n\n  //\n  // Define a function 'fetchRetailItemInfo' that fetches the data\n  //\n  function fetchRetailItemInfo(uint _upc, uint _baleId, uint _retailId) public view returns (\n      uint    itemSKU,\n      uint    retailPrice,\n      address ownerID,\n      address retailerID,\n      address consumerID,\n      string  memory stateStr\n  ) {\n    // Assign values to the parameters\n    itemSKU = retailItems[_upc][_baleId][_retailId].sku;\n    retailPrice = retailItems[_upc][_baleId][_retailId].retailPrice;\n    ownerID = retailItems[_upc][_baleId][_retailId].ownerID;\n    retailerID = bales[_upc][_baleId].baleAddresses.retailerID;\n    consumerID = retailItems[_upc][_baleId][_retailId].consumerID;\n\n    stateStr=getStateString(retailItems[_upc][_baleId][_retailId].itemState);\n\n    return \n    (\n      itemSKU,\n      retailPrice,  \n      ownerID,\n      retailerID,\n      consumerID,\n      stateStr\n    );\n  }\n\n}\n",
  "sourcePath": "/Users/marcilgen/work/blockchain/UdacityNanodegree/project3/cannabis-supply-chain/app/contracts/base/SupplyChain.sol",
  "compiler": {
    "name": "solc",
    "version": "0.5.16+commit.9c3226ce.Emscripten.clang"
  },
  "schemaVersion": "3.4.2",
  "updatedAt": "2021-08-10T19:08:27.109Z",
  "networkType": "ethereum",
  "devdoc": {
    "methods": {}
  },
  "userdoc": {
    "methods": {
      "addGrowerInfo(address,string,string,string,string)": {
        "notice": "////////////////////////////////"
      },
      "isOwner()": {
        "notice": "Check if the calling address is the owner of the contract"
      },
      "owner()": {
        "notice": "Look up the address of the owner"
      },
      "renounceOwnership()": {
        "notice": "Define a function to renounce ownerhip"
      },
      "transferOwnership(address)": {
        "notice": "Define a public function to transfer ownership"
      }
    }
  }
}