{
  "contractName": "TesterRole",
  "abi": [
    {
      "inputs": [],
      "payable": false,
      "stateMutability": "nonpayable",
      "type": "constructor"
    },
    {
      "anonymous": false,
      "inputs": [
        {
          "indexed": true,
          "internalType": "address",
          "name": "account",
          "type": "address"
        }
      ],
      "name": "TesterAdded",
      "type": "event"
    },
    {
      "anonymous": false,
      "inputs": [
        {
          "indexed": true,
          "internalType": "address",
          "name": "account",
          "type": "address"
        }
      ],
      "name": "TesterRemoved",
      "type": "event"
    },
    {
      "constant": true,
      "inputs": [
        {
          "internalType": "address",
          "name": "account",
          "type": "address"
        }
      ],
      "name": "isTester",
      "outputs": [
        {
          "internalType": "bool",
          "name": "",
          "type": "bool"
        }
      ],
      "payable": false,
      "stateMutability": "view",
      "type": "function"
    },
    {
      "constant": false,
      "inputs": [
        {
          "internalType": "address",
          "name": "account",
          "type": "address"
        }
      ],
      "name": "addTester",
      "outputs": [],
      "payable": false,
      "stateMutability": "nonpayable",
      "type": "function"
    },
    {
      "constant": false,
      "inputs": [],
      "name": "removeTester",
      "outputs": [],
      "payable": false,
      "stateMutability": "nonpayable",
      "type": "function"
    }
  ],
  "bytecode": "0x608060405234801561001057600080fd5b5061002333640100000000610028810204565b610101565b61004060008264010000000061022061007782021704565b604051600160a060020a038216907fe4d25ff5a46e97955a9f6b0941a56b0865a723be7acfaae1f711d0c6833f6fab90600090a250565b600160a060020a03811661008a57600080fd5b61009d82826401000000006100cc810204565b156100a757600080fd5b600160a060020a0316600090815260209190915260409020805460ff19166001179055565b6000600160a060020a0382166100e157600080fd5b50600160a060020a03166000908152602091909152604090205460ff1690565b61031d806101106000396000f3fe608060405234801561001057600080fd5b506004361061005d577c0100000000000000000000000000000000000000000000000000000000600035046347810fe38114610062578063b567e2c214610097578063bd630dc71461009f575b600080fd5b6100956004803603602081101561007857600080fd5b503573ffffffffffffffffffffffffffffffffffffffff166100e6565b005b610095610104565b6100d2600480360360208110156100b557600080fd5b503573ffffffffffffffffffffffffffffffffffffffff1661010f565b604080519115158252519081900360200190f35b6100ef3361010f565b6100f857600080fd5b61010181610127565b50565b61010d3361017c565b565b6000610121818363ffffffff6101d116565b92915050565b61013860008263ffffffff61022016565b60405173ffffffffffffffffffffffffffffffffffffffff8216907fe4d25ff5a46e97955a9f6b0941a56b0865a723be7acfaae1f711d0c6833f6fab90600090a250565b61018d60008263ffffffff61028616565b60405173ffffffffffffffffffffffffffffffffffffffff8216907fe8ce47043de08fd3fc122d8d670b283ff74ad523739a032edea680aaee9ae42d90600090a250565b600073ffffffffffffffffffffffffffffffffffffffff82166101f357600080fd5b5073ffffffffffffffffffffffffffffffffffffffff166000908152602091909152604090205460ff1690565b73ffffffffffffffffffffffffffffffffffffffff811661024057600080fd5b61024a82826101d1565b1561025457600080fd5b73ffffffffffffffffffffffffffffffffffffffff16600090815260209190915260409020805460ff19166001179055565b73ffffffffffffffffffffffffffffffffffffffff81166102a657600080fd5b6102b082826101d1565b6102b957600080fd5b73ffffffffffffffffffffffffffffffffffffffff16600090815260209190915260409020805460ff1916905556fea265627a7a723158203d5bf3ec7bb9d338f5c65d50dcd1534b5d96becf4ee26c4525549f6fe3d21a7664736f6c63430005100032",
  "source": "pragma solidity ^0.5.16;\n\n//\n// Import the Roles library \n//\nimport \"./Roles.sol\";\n\ncontract TesterRole {\n  using Roles for Roles.Role;\n\n  //\n  // Events\n  //\n  event TesterAdded(address indexed account);\n  event TesterRemoved(address indexed account);\n\n  Roles.Role private testers;\n\n  constructor() public {\n    _addTester(msg.sender);\n  }\n\n  modifier onlyTester() {\n    require(isTester(msg.sender));\n    _;\n  }\n\n  function isTester(address account) public view returns (bool) {\n    return testers.has(account);\n  }\n\n  function addTester(address account) public onlyTester {\n    _addTester(account);\n  }\n\n  function removeTester() public {\n    _removeTester(msg.sender);\n  }\n\n  function _addTester(address account) internal {\n    testers.add(account);\n    emit TesterAdded(account);\n  }\n\n  function _removeTester(address account) internal {\n    testers.remove(account);\n    emit TesterRemoved(account);\n  }\n}\n\n",
  "sourcePath": "/Users/marcilgen/work/blockchain/UdacityNanodegree/project3/cannabis-supply-chain/app/contracts/accesscontrol/TesterRole.sol",
  "compiler": {
    "name": "solc",
    "version": "0.5.16+commit.9c3226ce.Emscripten.clang"
  },
  "schemaVersion": "3.4.2",
  "updatedAt": "2021-08-10T19:08:27.039Z",
  "networkType": "ethereum",
  "devdoc": {
    "methods": {}
  },
  "userdoc": {
    "methods": {}
  }
}